{
	"data": {
		"bytecode": {
			"linkReferences": {},
			"object": "60806040526000600360006101000a81548160ff021916908315150217905550348015602a57600080fd5b50336000806101000a81548173ffffffffffffffffffffffffffffffffffffffff021916908373ffffffffffffffffffffffffffffffffffffffff160217905550615f748061007a6000396000f3fe608060405234801561001057600080fd5b506004361061023c5760003560e01c80638c70e0661161013b578063d407fbda116100b8578063ddb2a5b61161007c578063ddb2a5b6146106ea578063e85cdae11461070b578063ef88777614610729578063f27fa80714610747578063f3952e06146107515761023c565b8063d407fbda14610643578063d449dc541461065f578063d679fa6d1461068f578063d874af53146106b0578063dab8b3e1146106ce5761023c565b8063b490e968116100ff578063b490e96814610575578063b83ff659146105a5578063bc0b8187146105c1578063bc1d00b2146105f1578063cc53aa89146106275761023c565b80638c70e066146104b75780638da5cb5b146104e757806394c2026e146105055780639b72ade014610521578063b118d04e146105555761023c565b80634baa226d116101c95780635d5e0bae1161018d5780635d5e0bae14610439578063625945b1146104555780636f368243146104735780637fa069141461048f57806383d6d087146104ad5761023c565b80634baa226d146103815780634ee00eef1461039d5780635521dcce146103cd5780635b9197f3146103ff5780635c975abb1461041b5761023c565b80631bc7509e116102105780631bc7509e146102c75780631ee5dacc146102f757806325a944c91461031357806327b70f401461032f57806348063326146103655761023c565b80629a458a1461024157806306aafd041461025d578063071c2ba71461027b5780630fe6896d14610297575b600080fd5b61025b60048036038101906102569190613cda565b610785565b005b610265610911565b6040516102729190613d20565b60405180910390f35b61029560048036038101906102909190613cda565b610917565b005b6102b160048036038101906102ac9190613d67565b610a4c565b6040516102be9190613f42565b60405180910390f35b6102e160048036038101906102dc9190613d67565b610cda565b6040516102ee9190614076565b60405180910390f35b610311600480360381019061030c9190613d67565b610e06565b005b61032d600480360381019061032891906141cd565b610fc8565b005b61034960048036038101906103449190613d67565b611091565b60405161035c97969594939291906142be565b60405180910390f35b61037f600480360381019061037a9190614450565b61129d565b005b61039b600480360381019061039691906141cd565b6113ba565b005b6103b760048036038101906103b29190613d67565b6115bf565b6040516103c491906145b8565b60405180910390f35b6103e760048036038101906103e291906145da565b6118a7565b6040516103f69392919061461a565b60405180910390f35b61041960048036038101906104149190614658565b61198a565b005b610423611a82565b60405161043091906146e2565b60405180910390f35b610453600480360381019061044e9190613d67565b611a95565b005b61045d611b16565b60405161046a91906147bf565b60405180910390f35b61048d60048036038101906104889190613cda565b611c8e565b005b610497611dc3565b6040516104a49190613d20565b60405180910390f35b6104b5611dc9565b005b6104d160048036038101906104cc9190613d67565b611ec0565b6040516104de9190614831565b60405180910390f35b6104ef612042565b6040516104fc9190614862565b60405180910390f35b61051f600480360381019061051a91906148cd565b612066565b005b61053b60048036038101906105369190613d67565b6122e5565b60405161054c95949392919061496c565b60405180910390f35b61055d61243f565b60405161056c939291906149cd565b60405180910390f35b61058f600480360381019061058a9190613d67565b6124fc565b60405161059c9190614076565b60405180910390f35b6105bf60048036038101906105ba9190613d67565b612679565b005b6105db60048036038101906105d69190614a04565b612871565b6040516105e89190614afc565b60405180910390f35b61060b60048036038101906106069190613d67565b612958565b60405161061e9796959493929190614b99565b60405180910390f35b610641600480360381019061063c9190614c20565b612bbe565b005b61065d60048036038101906106589190614d3f565b613232565b005b61067960048036038101906106749190613cda565b6133a5565b60405161068691906146e2565b60405180910390f35b6106976133c5565b6040516106a79493929190614d7f565b60405180910390f35b6106b86133e5565b6040516106c59190613d20565b60405180910390f35b6106e860048036038101906106e39190614dc4565b6133eb565b005b6106f26134ef565b6040516107029493929190614d7f565b60405180910390f35b6107136135db565b6040516107209190613d20565b60405180910390f35b6107316135e1565b60405161073e9190614fbe565b60405180910390f35b61074f61391a565b005b61076b60048036038101906107669190613d67565b613a11565b60405161077c959493929190614fef565b60405180910390f35b60008054906101000a900473ffffffffffffffffffffffffffffffffffffffff1673ffffffffffffffffffffffffffffffffffffffff163373ffffffffffffffffffffffffffffffffffffffff161461085f573373ffffffffffffffffffffffffffffffffffffffff167f1bdb0a42f6061b7b08ae342c42472613d878cf5ee160da7733d223b4234490c260405161081c90615095565b60405180910390a26040517f08c379a000000000000000000000000000000000000000000000000000000000815260040161085690615127565b60405180910390fd5b600073ffffffffffffffffffffffffffffffffffffffff168173ffffffffffffffffffffffffffffffffffffffff16036108ce576040517f08c379a00000000000000000000000000000000000000000000000000000000081526004016108c5906151b9565b60405180910390fd5b806000806101000a81548173ffffffffffffffffffffffffffffffffffffffff021916908373ffffffffffffffffffffffffffffffffffffffff16021790555050565b60015481565b60008054906101000a900473ffffffffffffffffffffffffffffffffffffffff1673ffffffffffffffffffffffffffffffffffffffff163373ffffffffffffffffffffffffffffffffffffffff16146109f1573373ffffffffffffffffffffffffffffffffffffffff167f1bdb0a42f6061b7b08ae342c42472613d878cf5ee160da7733d223b4234490c26040516109ae90615095565b60405180910390a26040517f08c379a00000000000000000000000000000000000000000000000000000000081526004016109e890615127565b60405180910390fd5b6000600760008373ffffffffffffffffffffffffffffffffffffffff1673ffffffffffffffffffffffffffffffffffffffff16815260200190815260200160002060006101000a81548160ff02191690831515021790555050565b610a54613ae3565b600082118015610a6657506002548211155b610aa5576040517f08c379a0000000000000000000000000000000000000000000000000000000008152600401610a9c90615225565b60405180910390fd5b600560008381526020019081526020016000206040518060e00160405290816000820154815260200160018201548152602001600282018054610ae790615274565b80601f0160208091040260200160405190810160405280929190818152602001828054610b1390615274565b8015610b605780601f10610b3557610100808354040283529160200191610b60565b820191906000526020600020905b815481529060010190602001808311610b4357829003601f168201915b5050505050815260200160038201604051806040016040529081600082015481526020016001820154815250508152602001600582018054610ba190615274565b80601f0160208091040260200160405190810160405280929190818152602001828054610bcd90615274565b8015610c1a5780601f10610bef57610100808354040283529160200191610c1a565b820191906000526020600020905b815481529060010190602001808311610bfd57829003601f168201915b50505050508152602001600682018054610c3390615274565b80601f0160208091040260200160405190810160405280929190818152602001828054610c5f90615274565b8015610cac5780601f10610c8157610100808354040283529160200191610cac565b820191906000526020600020905b815481529060010190602001808311610c8f57829003601f168201915b5050505050815260200160078201604051806020016040529081600082015481525050815250509050919050565b606060066000838152602001908152602001600020805480602002602001604051908101604052809291908181526020016000905b82821015610dfb578382906000526020600020906003020160405180606001604052908160008201548152602001600182018054610d4c90615274565b80601f0160208091040260200160405190810160405280929190818152602001828054610d7890615274565b8015610dc55780601f10610d9a57610100808354040283529160200191610dc5565b820191906000526020600020905b815481529060010190602001808311610da857829003601f168201915b50505050508152602001600282016040518060200160405290816000820154815250508152505081526020019060010190610d0f565b505050509050919050565b60008054906101000a900473ffffffffffffffffffffffffffffffffffffffff1673ffffffffffffffffffffffffffffffffffffffff163373ffffffffffffffffffffffffffffffffffffffff1614610ee0573373ffffffffffffffffffffffffffffffffffffffff167f1bdb0a42f6061b7b08ae342c42472613d878cf5ee160da7733d223b4234490c2604051610e9d90615095565b60405180910390a26040517f08c379a0000000000000000000000000000000000000000000000000000000008152600401610ed790615127565b60405180910390fd5b600081118015610ef257506002548111155b610f31576040517f08c379a0000000000000000000000000000000000000000000000000000000008152600401610f2890615225565b60405180910390fd5b600560008281526020019081526020016000206000808201600090556001820160009055600282016000610f659190613b2c565b6003820160008082016000905560018201600090555050600582016000610f8c9190613b2c565b600682016000610f9c9190613b2c565b600782016000808201600090555050505060026000815480929190610fc0906152d4565b919050555050565b600360009054906101000a900460ff1615611018576040517f08c379a000000000000000000000000000000000000000000000000000000000815260040161100f90615349565b60405180910390fd5b60008211801561102a57506001548211155b611069576040517f08c379a0000000000000000000000000000000000000000000000000000000008152600401611060906153b5565b60405180910390fd5b8060046000848152602001908152602001600020600b01908161108c9190615581565b505050565b60056020528060005260406000206000915090508060000154908060010154908060020180546110c090615274565b80601f01602080910402602001604051908101604052809291908181526020018280546110ec90615274565b80156111395780601f1061110e57610100808354040283529160200191611139565b820191906000526020600020905b81548152906001019060200180831161111c57829003601f168201915b50505050509080600301604051806040016040529081600082015481526020016001820154815250509080600501805461117290615274565b80601f016020809104026020016040519081016040528092919081815260200182805461119e90615274565b80156111eb5780601f106111c0576101008083540402835291602001916111eb565b820191906000526020600020905b8154815290600101906020018083116111ce57829003601f168201915b50505050509080600601805461120090615274565b80601f016020809104026020016040519081016040528092919081815260200182805461122c90615274565b80156112795780601f1061124e57610100808354040283529160200191611279565b820191906000526020600020905b81548152906001019060200180831161125c57829003601f168201915b50505050509080600701604051806020016040529081600082015481525050905087565b600360009054906101000a900460ff16156112ed576040517f08c379a00000000000000000000000000000000000000000000000000000000081526004016112e490615349565b60405180910390fd5b6000821180156112ff57506001548211155b61133e576040517f08c379a0000000000000000000000000000000000000000000000000000000008152600401611335906153b5565b60405180910390fd5b6040518060200160405280428152508160a001819052508060046000848152602001908152602001600020600501600082015181600001556020820151816001015560408201518160020155606082015181600301556080820151816004015560a0820151816005016000820151816000015550509050505050565b600360009054906101000a900460ff161561140a576040517f08c379a000000000000000000000000000000000000000000000000000000000815260040161140190615349565b60405180910390fd5b60008211801561141c57506002548211155b61145b576040517f08c379a000000000000000000000000000000000000000000000000000000000815260040161145290615225565b60405180910390fd5b60008054906101000a900473ffffffffffffffffffffffffffffffffffffffff1673ffffffffffffffffffffffffffffffffffffffff163373ffffffffffffffffffffffffffffffffffffffff16146114fb573373ffffffffffffffffffffffffffffffffffffffff167f168164f3da86521dbaf859c50a68cf332b8097abd188c8991b1a225fe04d77a96040516114f29061569f565b60405180910390a25b8060056000848152602001908152602001600020600201908161151e9190615581565b5060066000838152602001908152602001600020604051806060016040528084815260200183815260200160405180602001604052804281525081525090806001815401808255809150506001900390600052602060002090600302016000909190919091506000820151816000015560208201518160010190816115a39190615581565b5060408201518160020160008201518160000155505050505050565b6115c7613b6c565b6000821180156115d957506001548211155b611618576040517f08c379a000000000000000000000000000000000000000000000000000000000815260040161160f906153b5565b60405180910390fd5b600460008381526020019081526020016000206040518060e00160405290816000820154815260200160018201805461165090615274565b80601f016020809104026020016040519081016040528092919081815260200182805461167c90615274565b80156116c95780601f1061169e576101008083540402835291602001916116c9565b820191906000526020600020905b8154815290600101906020018083116116ac57829003601f168201915b505050505081526020016002820160405180604001604052908160008201548152602001600182015481525050815260200160048201805461170a90615274565b80601f016020809104026020016040519081016040528092919081815260200182805461173690615274565b80156117835780601f1061175857610100808354040283529160200191611783565b820191906000526020600020905b81548152906001019060200180831161176657829003601f168201915b50505050508152602001600582016040518060c0016040529081600082015481526020016001820154815260200160028201548152602001600382015481526020016004820154815260200160058201604051806020016040529081600082015481525050815250508152602001600b8201805461180090615274565b80601f016020809104026020016040519081016040528092919081815260200182805461182c90615274565b80156118795780601f1061184e57610100808354040283529160200191611879565b820191906000526020600020905b81548152906001019060200180831161185c57829003601f168201915b50505050508152602001600c8201604051806020016040529081600082015481525050815250509050919050565b600660205281600052604060002081815481106118c357600080fd5b9060005260206000209060030201600091509150508060000154908060010180546118ed90615274565b80601f016020809104026020016040519081016040528092919081815260200182805461191990615274565b80156119665780601f1061193b57610100808354040283529160200191611966565b820191906000526020600020905b81548152906001019060200180831161194957829003601f168201915b50505050509080600201604051806020016040529081600082015481525050905083565b600b600081548092919061199d906156bf565b9190505550600060405180602001604052804281525090506040518060a00160405280600b5481526020018581526020018481526020018381526020018281525060096000600b548152602001908152602001600020600082015181600001556020820151816001019081611a129190615581565b5060408201518160020155606082015181600301556080820151816004016000820151816000015550509050507f53d9e4a0097096af7eff3c7e78fdbf76884fcbfca3caeaec979773dea650399d600b548583604051611a749392919061461a565b60405180910390a150505050565b600360009054906101000a900460ff1681565b60006004600083815260200190815260200160002090507ffffffffffffffffffffffffffffffffffffffffffffffffffffffffffffffffb81600501600001541215611b1257817f0c631f0e01f88f1dfaa87717772cf1c289ead3f941ff55b9260f7639e442b857604051611b0990615753565b60405180910390a25b5050565b60606000600254600154611b2a9190615773565b67ffffffffffffffff811115611b4357611b426140a2565b5b604051908082528060200260200182016040528015611b7657816020015b6060815260200190600190039081611b615790505b509050600080600190505b6001548111611bff576040518060400160405280601381526020017f526567697374726f2064652073656d696c6c6100000000000000000000000000815250838381518110611bd357611bd26157a7565b5b60200260200101819052508180611be9906156bf565b9250508080611bf7906156bf565b915050611b81565b506000600190505b6002548111611c85576040518060400160405280601281526020017f526567697374726f20646520706c616e74610000000000000000000000000000815250838381518110611c5957611c586157a7565b5b60200260200101819052508180611c6f906156bf565b9250508080611c7d906156bf565b915050611c07565b50819250505090565b60008054906101000a900473ffffffffffffffffffffffffffffffffffffffff1673ffffffffffffffffffffffffffffffffffffffff163373ffffffffffffffffffffffffffffffffffffffff1614611d68573373ffffffffffffffffffffffffffffffffffffffff167f1bdb0a42f6061b7b08ae342c42472613d878cf5ee160da7733d223b4234490c2604051611d2590615095565b60405180910390a26040517f08c379a0000000000000000000000000000000000000000000000000000000008152600401611d5f90615127565b60405180910390fd5b6001600760008373ffffffffffffffffffffffffffffffffffffffff1673ffffffffffffffffffffffffffffffffffffffff16815260200190815260200160002060006101000a81548160ff02191690831515021790555050565b600a5481565b60008054906101000a900473ffffffffffffffffffffffffffffffffffffffff1673ffffffffffffffffffffffffffffffffffffffff163373ffffffffffffffffffffffffffffffffffffffff1614611ea3573373ffffffffffffffffffffffffffffffffffffffff167f1bdb0a42f6061b7b08ae342c42472613d878cf5ee160da7733d223b4234490c2604051611e6090615095565b60405180910390a26040517f08c379a0000000000000000000000000000000000000000000000000000000008152600401611e9a90615127565b60405180910390fd5b6001600360006101000a81548160ff021916908315150217905550565b611ec8613bbb565b6000600660008481526020019081526020016000208054905011611f21576040517f08c379a0000000000000000000000000000000000000000000000000000000008152600401611f1890615848565b60405180910390fd5b6006600083815260200190815260200160002060016006600085815260200190815260200160002080549050611f579190615868565b81548110611f6857611f676157a7565b5b906000526020600020906003020160405180606001604052908160008201548152602001600182018054611f9b90615274565b80601f0160208091040260200160405190810160405280929190818152602001828054611fc790615274565b80156120145780601f10611fe957610100808354040283529160200191612014565b820191906000526020600020905b815481529060010190602001808311611ff757829003601f168201915b5050505050815260200160028201604051806020016040529081600082015481525050815250509050919050565b60008054906101000a900473ffffffffffffffffffffffffffffffffffffffff1681565b600360009054906101000a900460ff16156120b6576040517f08c379a00000000000000000000000000000000000000000000000000000000081526004016120ad90615349565b60405180910390fd5b6000841180156120c857506001548411155b612107576040517f08c379a00000000000000000000000000000000000000000000000000000000081526004016120fe906153b5565b60405180910390fd5b60008054906101000a900473ffffffffffffffffffffffffffffffffffffffff1673ffffffffffffffffffffffffffffffffffffffff163373ffffffffffffffffffffffffffffffffffffffff16146121a7573373ffffffffffffffffffffffffffffffffffffffff167f168164f3da86521dbaf859c50a68cf332b8097abd188c8991b1a225fe04d77a960405161219e906158e8565b60405180910390a25b600260008154809291906121ba906156bf565b9190505550600060405180602001604052804281525090506040518060e0016040528060025481526020018681526020016040518060400160405280600881526020017f547261736c61646f0000000000000000000000000000000000000000000000008152508152602001858152602001848152602001838152602001828152506005600060025481526020019081526020016000206000820151816000015560208201518160010155604082015181600201908161227a9190615581565b506060820151816003016000820151816000015560208201518160010155505060808201518160050190816122af9190615581565b5060a08201518160060190816122c59190615581565b5060c0820151816007016000820151816000015550509050505050505050565b600860205280600052604060002060009150905080600001549080600101805461230e90615274565b80601f016020809104026020016040519081016040528092919081815260200182805461233a90615274565b80156123875780601f1061235c57610100808354040283529160200191612387565b820191906000526020600020905b81548152906001019060200180831161236a57829003601f168201915b50505050509080600201805461239c90615274565b80601f01602080910402602001604051908101604052809291908181526020018280546123c890615274565b80156124155780601f106123ea57610100808354040283529160200191612415565b820191906000526020600020905b8154815290600101906020018083116123f857829003601f168201915b50505050509080600301549080600401604051806020016040529081600082015481525050905085565b600080600080600090506000600190505b60015481116124e8576040518060400160405280600981526020017f467261696c656a6f6e000000000000000000000000000000000000000000000081525080519060200120600460008381526020019081526020016000206001016040516124b991906159ab565b6040518091039020036124d55781806124d1906156bf565b9250505b80806124e0906156bf565b915050612450565b506001546002548293509350935050909192565b606060008211801561251057506001548211155b61254f576040517f08c379a0000000000000000000000000000000000000000000000000000000008152600401612546906153b5565b60405180910390fd5b60066000838152602001908152602001600020805480602002602001604051908101604052809291908181526020016000905b8282101561266e5783829060005260206000209060030201604051806060016040529081600082015481526020016001820180546125bf90615274565b80601f01602080910402602001604051908101604052809291908181526020018280546125eb90615274565b80156126385780601f1061260d57610100808354040283529160200191612638565b820191906000526020600020905b81548152906001019060200180831161261b57829003601f168201915b50505050508152602001600282016040518060200160405290816000820154815250508152505081526020019060010190612582565b505050509050919050565b60008054906101000a900473ffffffffffffffffffffffffffffffffffffffff1673ffffffffffffffffffffffffffffffffffffffff163373ffffffffffffffffffffffffffffffffffffffff1614612753573373ffffffffffffffffffffffffffffffffffffffff167f1bdb0a42f6061b7b08ae342c42472613d878cf5ee160da7733d223b4234490c260405161271090615095565b60405180910390a26040517f08c379a000000000000000000000000000000000000000000000000000000000815260040161274a90615127565b60405180910390fd5b60008111801561276557506001548111155b6127a4576040517f08c379a000000000000000000000000000000000000000000000000000000000815260040161279b906153b5565b60405180910390fd5b600460008281526020019081526020016000206000808201600090556001820160006127d09190613b2c565b60028201600080820160009055600182016000905550506004820160006127f79190613b2c565b6005820160008082016000905560018201600090556002820160009055600382016000905560048201600090556005820160008082016000905550505050600b820160006128459190613b2c565b600c82016000808201600090555050505060016000815480929190612869906152d4565b919050555050565b6060600060015467ffffffffffffffff811115612891576128906140a2565b5b6040519080825280602002602001820160405280156128bf5781602001602082028036833780820191505090505b509050600080600190505b600154811161294d578480519060200120600460008381526020019081526020016000206004016040516128fe91906159ab565b60405180910390200361293a578083838151811061291f5761291e6157a7565b5b6020026020010181815250508180612936906156bf565b9250505b8080612945906156bf565b9150506128ca565b508192505050919050565b600460205280600052604060002060009150905080600001549080600101805461298190615274565b80601f01602080910402602001604051908101604052809291908181526020018280546129ad90615274565b80156129fa5780601f106129cf576101008083540402835291602001916129fa565b820191906000526020600020905b8154815290600101906020018083116129dd57829003601f168201915b505050505090806002016040518060400160405290816000820154815260200160018201548152505090806004018054612a3390615274565b80601f0160208091040260200160405190810160405280929190818152602001828054612a5f90615274565b8015612aac5780601f10612a8157610100808354040283529160200191612aac565b820191906000526020600020905b815481529060010190602001808311612a8f57829003601f168201915b505050505090806005016040518060c0016040529081600082015481526020016001820154815260200160028201548152602001600382015481526020016004820154815260200160058201604051806020016040529081600082015481525050815250509080600b018054612b2190615274565b80601f0160208091040260200160405190810160405280929190818152602001828054612b4d90615274565b8015612b9a5780601f10612b6f57610100808354040283529160200191612b9a565b820191906000526020600020905b815481529060010190602001808311612b7d57829003601f168201915b50505050509080600c01604051806020016040529081600082015481525050905087565b886040518060400160405280600981526020017f467261696c656a6f6e00000000000000000000000000000000000000000000008152508051906020012081805190602001201480612c5257506040518060400160405280600881526020017f436172646f6e6573000000000000000000000000000000000000000000000000815250805190602001208180519060200120145b80612c9f57506040518060400160405280600781526020017f4d61636f6c6c6100000000000000000000000000000000000000000000000000815250805190602001208180519060200120145b80612cec57506040518060400160405280600781526020017f42616d6275657300000000000000000000000000000000000000000000000000815250805190602001208180519060200120145b612d2b576040517f08c379a0000000000000000000000000000000000000000000000000000000008152600401612d2290615a0e565b60405180910390fd5b6001808114612d6f576040517f08c379a0000000000000000000000000000000000000000000000000000000008152600401612d6690615aa0565b60405180910390fd5b600360009054906101000a900460ff1615612dbf576040517f08c379a0000000000000000000000000000000000000000000000000000000008152600401612db690615349565b60405180910390fd5b7ffffffffffffffffffffffffffffffffffffffffffffffffffffffffffaa2b5808a6000015112158015612dfb575063055d4a808a6000015113155b612e3a576040517f08c379a0000000000000000000000000000000000000000000000000000000008152600401612e3190615b0c565b60405180910390fd5b7ffffffffffffffffffffffffffffffffffffffffffffffffffffffffff5456b008a6020015112158015612e765750630aba95008a6020015113155b612eb5576040517f08c379a0000000000000000000000000000000000000000000000000000000008152600401612eac90615b78565b60405180910390fd5b7ffffffffffffffffffffffffffffffffffffffffffffffffffffffffffffffff68812158015612ee65750600f8813155b612f25576040517f08c379a0000000000000000000000000000000000000000000000000000000008152600401612f1c90615c0a565b60405180910390fd5b60328710158015612f37575060648711155b612f76576040517f08c379a0000000000000000000000000000000000000000000000000000000008152600401612f6d90615c9c565b60405180910390fd5b610af08410158015612f8a57506110688411155b612fc9576040517f08c379a0000000000000000000000000000000000000000000000000000000008152600401612fc090615d2e565b60405180910390fd5b60326001541061300e576040517f08c379a000000000000000000000000000000000000000000000000000000000815260040161300590615dc0565b60405180910390fd5b60008054906101000a900473ffffffffffffffffffffffffffffffffffffffff1673ffffffffffffffffffffffffffffffffffffffff163373ffffffffffffffffffffffffffffffffffffffff16146130ae573373ffffffffffffffffffffffffffffffffffffffff167f168164f3da86521dbaf859c50a68cf332b8097abd188c8991b1a225fe04d77a96040516130a590615e2c565b60405180910390a25b600160008154809291906130c1906156bf565b9190505550600060405180602001604052804281525090506040518060e0016040528060015481526020018d81526020018c81526020018b81526020016040518060c001604052808c81526020018b81526020018a81526020018981526020018881526020018481525081526020018581526020018281525060046000600154815260200190815260200160002060008201518160000155602082015181600101908161316e9190615581565b506040820151816002016000820151816000015560208201518160010155505060608201518160040190816131a39190615581565b50608082015181600501600082015181600001556020820151816001015560408201518160020155606082015181600301556080820151816004015560a082015181600501600082015181600001555050505060a082015181600b01908161320b9190615581565b5060c082015181600c01600082015181600001555050905050505050505050505050505050565b600360009054906101000a900460ff1615613282576040517f08c379a000000000000000000000000000000000000000000000000000000000815260040161327990615349565b60405180910390fd5b60008211801561329457506002548211155b6132d3576040517f08c379a00000000000000000000000000000000000000000000000000000000081526004016132ca90615225565b60405180910390fd5b60008054906101000a900473ffffffffffffffffffffffffffffffffffffffff1673ffffffffffffffffffffffffffffffffffffffff163373ffffffffffffffffffffffffffffffffffffffff1614613373573373ffffffffffffffffffffffffffffffffffffffff167f168164f3da86521dbaf859c50a68cf332b8097abd188c8991b1a225fe04d77a960405161336a90615ebe565b60405180910390a25b806005600084815260200190815260200160002060030160008201518160000155602082015181600101559050505050565b60076020528060005260406000206000915054906101000a900460ff1681565b600080600080600154600254600a54600b54935093509350935090919293565b60025481565b600a60008154809291906133fe906156bf565b9190505550600060405180602001604052804281525090506040518060a00160405280600a5481526020018581526020018481526020018381526020018281525060086000600a5481526020019081526020016000206000820151816000015560208201518160010190816134739190615581565b5060408201518160020190816134899190615581565b50606082015181600301556080820151816004016000820151816000015550509050507f67996453674aab2721531e89b351acf35c086e98213b93b7a4c07be4a373aedb600a5485836040516134e19392919061461a565b60405180910390a150505050565b600080600080600062278d00426135069190615f0d565b90506000600190505b6001548111613568578162278d0060046000848152602001908152602001600020600c01600001546135419190615f0d565b03613555578380613551906156bf565b9450505b8080613560906156bf565b91505061350f565b506000600190505b60025481116135c9578162278d0060056000848152602001908152602001600020600701600001546135a29190615f0d565b036135b65782806135b2906156bf565b9350505b80806135c1906156bf565b915050613570565b50600154600254945094505090919293565b600b5481565b6060600060015467ffffffffffffffff811115613601576136006140a2565b5b60405190808252806020026020018201604052801561363a57816020015b613627613b6c565b81526020019060019003908161361f5790505b5090506000600190505b600154811161391257600460008281526020019081526020016000206040518060e00160405290816000820154815260200160018201805461368590615274565b80601f01602080910402602001604051908101604052809291908181526020018280546136b190615274565b80156136fe5780601f106136d3576101008083540402835291602001916136fe565b820191906000526020600020905b8154815290600101906020018083116136e157829003601f168201915b505050505081526020016002820160405180604001604052908160008201548152602001600182015481525050815260200160048201805461373f90615274565b80601f016020809104026020016040519081016040528092919081815260200182805461376b90615274565b80156137b85780601f1061378d576101008083540402835291602001916137b8565b820191906000526020600020905b81548152906001019060200180831161379b57829003601f168201915b50505050508152602001600582016040518060c0016040529081600082015481526020016001820154815260200160028201548152602001600382015481526020016004820154815260200160058201604051806020016040529081600082015481525050815250508152602001600b8201805461383590615274565b80601f016020809104026020016040519081016040528092919081815260200182805461386190615274565b80156138ae5780601f10613883576101008083540402835291602001916138ae565b820191906000526020600020905b81548152906001019060200180831161389157829003601f168201915b50505050508152602001600c820160405180602001604052908160008201548152505081525050826001836138e39190615868565b815181106138f4576138f36157a7565b5b6020026020010181905250808061390a906156bf565b915050613644565b508091505090565b60008054906101000a900473ffffffffffffffffffffffffffffffffffffffff1673ffffffffffffffffffffffffffffffffffffffff163373ffffffffffffffffffffffffffffffffffffffff16146139f4573373ffffffffffffffffffffffffffffffffffffffff167f1bdb0a42f6061b7b08ae342c42472613d878cf5ee160da7733d223b4234490c26040516139b190615095565b60405180910390a26040517f08c379a00000000000000000000000000000000000000000000000000000000081526004016139eb90615127565b60405180910390fd5b6000600360006101000a81548160ff021916908315150217905550565b6009602052806000526040600020600091509050806000015490806001018054613a3a90615274565b80601f0160208091040260200160405190810160405280929190818152602001828054613a6690615274565b8015613ab35780601f10613a8857610100808354040283529160200191613ab3565b820191906000526020600020905b815481529060010190602001808311613a9657829003601f168201915b50505050509080600201549080600301549080600401604051806020016040529081600082015481525050905085565b6040518060e00160405280600081526020016000815260200160608152602001613b0b613be2565b81526020016060815260200160608152602001613b26613bfc565b81525090565b508054613b3890615274565b6000825580601f10613b4a5750613b69565b601f016020900490600052602060002090810190613b689190613c0f565b5b50565b6040518060e001604052806000815260200160608152602001613b8d613be2565b815260200160608152602001613ba1613c2c565b815260200160608152602001613bb5613bfc565b81525090565b60405180606001604052806000815260200160608152602001613bdc613bfc565b81525090565b604051806040016040528060008152602001600081525090565b6040518060200160405280600081525090565b5b80821115613c28576000816000905550600101613c10565b5090565b6040518060c001604052806000815260200160008152602001600081526020016000815260200160008152602001613c62613bfc565b81525090565b6000604051905090565b600080fd5b600080fd5b600073ffffffffffffffffffffffffffffffffffffffff82169050919050565b6000613ca782613c7c565b9050919050565b613cb781613c9c565b8114613cc257600080fd5b50565b600081359050613cd481613cae565b92915050565b600060208284031215613cf057613cef613c72565b5b6000613cfe84828501613cc5565b91505092915050565b6000819050919050565b613d1a81613d07565b82525050565b6000602082019050613d356000830184613d11565b92915050565b613d4481613d07565b8114613d4f57600080fd5b50565b600081359050613d6181613d3b565b92915050565b600060208284031215613d7d57613d7c613c72565b5b6000613d8b84828501613d52565b91505092915050565b613d9d81613d07565b82525050565b600081519050919050565b600082825260208201905092915050565b60005b83811015613ddd578082015181840152602081019050613dc2565b60008484015250505050565b6000601f19601f8301169050919050565b6000613e0582613da3565b613e0f8185613dae565b9350613e1f818560208601613dbf565b613e2881613de9565b840191505092915050565b6000819050919050565b613e4681613e33565b82525050565b604082016000820151613e626000850182613e3d565b506020820151613e756020850182613e3d565b50505050565b602082016000820151613e916000850182613d94565b50505050565b600061010083016000830151613eb06000860182613d94565b506020830151613ec36020860182613d94565b5060408301518482036040860152613edb8282613dfa565b9150506060830151613ef06060860182613e4c565b50608083015184820360a0860152613f088282613dfa565b91505060a083015184820360c0860152613f228282613dfa565b91505060c0830151613f3760e0860182613e7b565b508091505092915050565b60006020820190508181036000830152613f5c8184613e97565b905092915050565b600081519050919050565b600082825260208201905092915050565b6000819050602082019050919050565b6000606083016000830151613fa86000860182613d94565b5060208301518482036020860152613fc08282613dfa565b9150506040830151613fd56040860182613e7b565b508091505092915050565b6000613fec8383613f90565b905092915050565b6000602082019050919050565b600061400c82613f64565b6140168185613f6f565b93508360208202850161402885613f80565b8060005b8581101561406457848403895281516140458582613fe0565b945061405083613ff4565b925060208a0199505060018101905061402c565b50829750879550505050505092915050565b600060208201905081810360008301526140908184614001565b905092915050565b600080fd5b600080fd5b7f4e487b7100000000000000000000000000000000000000000000000000000000600052604160045260246000fd5b6140da82613de9565b810181811067ffffffffffffffff821117156140f9576140f86140a2565b5b80604052505050565b600061410c613c68565b905061411882826140d1565b919050565b600067ffffffffffffffff821115614138576141376140a2565b5b61414182613de9565b9050602081019050919050565b82818337600083830152505050565b600061417061416b8461411d565b614102565b90508281526020810184848401111561418c5761418b61409d565b5b61419784828561414e565b509392505050565b600082601f8301126141b4576141b3614098565b5b81356141c484826020860161415d565b91505092915050565b600080604083850312156141e4576141e3613c72565b5b60006141f285828601613d52565b925050602083013567ffffffffffffffff81111561421357614212613c77565b5b61421f8582860161419f565b9150509250929050565b600082825260208201905092915050565b600061424582613da3565b61424f8185614229565b935061425f818560208601613dbf565b61426881613de9565b840191505092915050565b6040820160008201516142896000850182613e3d565b50602082015161429c6020850182613e3d565b50505050565b6020820160008201516142b86000850182613d94565b50505050565b6000610100820190506142d4600083018a613d11565b6142e16020830189613d11565b81810360408301526142f3818861423a565b90506143026060830187614273565b81810360a0830152614314818661423a565b905081810360c0830152614328818561423a565b905061433760e08301846142a2565b98975050505050505050565b600080fd5b61435181613e33565b811461435c57600080fd5b50565b60008135905061436e81614348565b92915050565b60006020828403121561438a57614389614343565b5b6143946020614102565b905060006143a484828501613d52565b60008301525092915050565b600060c082840312156143c6576143c5614343565b5b6143d060c0614102565b905060006143e08482850161435f565b60008301525060206143f484828501613d52565b602083015250604061440884828501613d52565b604083015250606061441c84828501613d52565b606083015250608061443084828501613d52565b60808301525060a061444484828501614374565b60a08301525092915050565b60008060e0838503121561446757614466613c72565b5b600061447585828601613d52565b9250506020614486858286016143b0565b9150509250929050565b60c0820160008201516144a66000850182613e3d565b5060208201516144b96020850182613d94565b5060408201516144cc6040850182613d94565b5060608201516144df6060850182613d94565b5060808201516144f26080850182613d94565b5060a082015161450560a0850182613e7b565b50505050565b60006101a0830160008301516145246000860182613d94565b506020830151848203602086015261453c8282613dfa565b91505060408301516145516040860182613e4c565b50606083015184820360808601526145698282613dfa565b915050608083015161457e60a0860182614490565b5060a08301518482036101608601526145978282613dfa565b91505060c08301516145ad610180860182613e7b565b508091505092915050565b600060208201905081810360008301526145d2818461450b565b905092915050565b600080604083850312156145f1576145f0613c72565b5b60006145ff85828601613d52565b925050602061461085828601613d52565b9150509250929050565b600060608201905061462f6000830186613d11565b8181036020830152614641818561423a565b905061465060408301846142a2565b949350505050565b60008060006060848603121561467157614670613c72565b5b600084013567ffffffffffffffff81111561468f5761468e613c77565b5b61469b8682870161419f565b93505060206146ac8682870161435f565b92505060406146bd86828701613d52565b9150509250925092565b60008115159050919050565b6146dc816146c7565b82525050565b60006020820190506146f760008301846146d3565b92915050565b600081519050919050565b600082825260208201905092915050565b6000819050602082019050919050565b60006147358383613dfa565b905092915050565b6000602082019050919050565b6000614755826146fd565b61475f8185614708565b93508360208202850161477185614719565b8060005b858110156147ad578484038952815161478e8582614729565b94506147998361473d565b925060208a01995050600181019050614775565b50829750879550505050505092915050565b600060208201905081810360008301526147d9818461474a565b905092915050565b60006060830160008301516147f96000860182613d94565b50602083015184820360208601526148118282613dfa565b91505060408301516148266040860182613e7b565b508091505092915050565b6000602082019050818103600083015261484b81846147e1565b905092915050565b61485c81613c9c565b82525050565b60006020820190506148776000830184614853565b92915050565b60006040828403121561489357614892614343565b5b61489d6040614102565b905060006148ad8482850161435f565b60008301525060206148c18482850161435f565b60208301525092915050565b60008060008060a085870312156148e7576148e6613c72565b5b60006148f587828801613d52565b94505060206149068782880161487d565b935050606085013567ffffffffffffffff81111561492757614926613c77565b5b6149338782880161419f565b925050608085013567ffffffffffffffff81111561495457614953613c77565b5b6149608782880161419f565b91505092959194509250565b600060a0820190506149816000830188613d11565b8181036020830152614993818761423a565b905081810360408301526149a7818661423a565b90506149b66060830185613d11565b6149c360808301846142a2565b9695505050505050565b60006060820190506149e26000830186613d11565b6149ef6020830185613d11565b6149fc6040830184613d11565b949350505050565b600060208284031215614a1a57614a19613c72565b5b600082013567ffffffffffffffff811115614a3857614a37613c77565b5b614a448482850161419f565b91505092915050565b600081519050919050565b600082825260208201905092915050565b6000819050602082019050919050565b6000614a858383613d94565b60208301905092915050565b6000602082019050919050565b6000614aa982614a4d565b614ab38185614a58565b9350614abe83614a69565b8060005b83811015614aef578151614ad68882614a79565b9750614ae183614a91565b925050600181019050614ac2565b5085935050505092915050565b60006020820190508181036000830152614b168184614a9e565b905092915050565b60c082016000820151614b346000850182613e3d565b506020820151614b476020850182613d94565b506040820151614b5a6040850182613d94565b506060820151614b6d6060850182613d94565b506080820151614b806080850182613d94565b5060a0820151614b9360a0850182613e7b565b50505050565b60006101a082019050614baf600083018a613d11565b8181036020830152614bc1818961423a565b9050614bd06040830188614273565b8181036080830152614be2818761423a565b9050614bf160a0830186614b1e565b818103610160830152614c04818561423a565b9050614c146101808301846142a2565b98975050505050505050565b60008060008060008060008060006101408a8c031215614c4357614c42613c72565b5b60008a013567ffffffffffffffff811115614c6157614c60613c77565b5b614c6d8c828d0161419f565b9950506020614c7e8c828d0161487d565b98505060608a013567ffffffffffffffff811115614c9f57614c9e613c77565b5b614cab8c828d0161419f565b9750506080614cbc8c828d0161435f565b96505060a0614ccd8c828d01613d52565b95505060c0614cde8c828d01613d52565b94505060e0614cef8c828d01613d52565b935050610100614d018c828d01613d52565b9250506101208a013567ffffffffffffffff811115614d2357614d22613c77565b5b614d2f8c828d0161419f565b9150509295985092959850929598565b60008060608385031215614d5657614d55613c72565b5b6000614d6485828601613d52565b9250506020614d758582860161487d565b9150509250929050565b6000608082019050614d946000830187613d11565b614da16020830186613d11565b614dae6040830185613d11565b614dbb6060830184613d11565b95945050505050565b600080600060608486031215614ddd57614ddc613c72565b5b600084013567ffffffffffffffff811115614dfb57614dfa613c77565b5b614e078682870161419f565b935050602084013567ffffffffffffffff811115614e2857614e27613c77565b5b614e348682870161419f565b9250506040614e4586828701613d52565b9150509250925092565b600081519050919050565b600082825260208201905092915050565b6000819050602082019050919050565b60006101a083016000830151614e946000860182613d94565b5060208301518482036020860152614eac8282613dfa565b9150506040830151614ec16040860182613e4c565b5060608301518482036080860152614ed98282613dfa565b9150506080830151614eee60a0860182614490565b5060a0830151848203610160860152614f078282613dfa565b91505060c0830151614f1d610180860182613e7b565b508091505092915050565b6000614f348383614e7b565b905092915050565b6000602082019050919050565b6000614f5482614e4f565b614f5e8185614e5a565b935083602082028501614f7085614e6b565b8060005b85811015614fac5784840389528151614f8d8582614f28565b9450614f9883614f3c565b925060208a01995050600181019050614f74565b50829750879550505050505092915050565b60006020820190508181036000830152614fd88184614f49565b905092915050565b614fe981613e33565b82525050565b600060a0820190506150046000830188613d11565b8181036020830152615016818761423a565b90506150256040830186614fe0565b6150326060830185613d11565b61503f60808301846142a2565b9695505050505050565b7f496e74656e746f206465206d6f64696669636163696f6e000000000000000000600082015250565b600061507f601783614229565b915061508a82615049565b602082019050919050565b600060208201905081810360008301526150ae81615072565b9050919050565b7f4e6f207469656e6573207065726d69736f732070617261207265616c697a617260008201527f206573746120616363696f6e0000000000000000000000000000000000000000602082015250565b6000615111602c83614229565b915061511c826150b5565b604082019050919050565b6000602082019050818103600083015261514081615104565b9050919050565b7f4e7565766120646972656363696f6e206e6f207075656465207365722063657260008201527f6f00000000000000000000000000000000000000000000000000000000000000602082015250565b60006151a3602183614229565b91506151ae82615147565b604082019050919050565b600060208201905081810360008301526151d281615196565b9050919050565b7f494420646520706c616e746120696e76616c69646f0000000000000000000000600082015250565b600061520f601583614229565b915061521a826151d9565b602082019050919050565b6000602082019050818103600083015261523e81615202565b9050919050565b7f4e487b7100000000000000000000000000000000000000000000000000000000600052602260045260246000fd5b6000600282049050600182168061528c57607f821691505b60208210810361529f5761529e615245565b5b50919050565b7f4e487b7100000000000000000000000000000000000000000000000000000000600052601160045260246000fd5b60006152df82613d07565b9150600082036152f2576152f16152a5565b5b600182039050919050565b7f456c20636f6e747261746f2065737461207061757361646f0000000000000000600082015250565b6000615333601883614229565b915061533e826152fd565b602082019050919050565b6000602082019050818103600083015261536281615326565b9050919050565b7f49442064652073656d696c6c6120696e76616c69646f00000000000000000000600082015250565b600061539f601683614229565b91506153aa82615369565b602082019050919050565b600060208201905081810360008301526153ce81615392565b9050919050565b60008190508160005260206000209050919050565b60006020601f8301049050919050565b600082821b905092915050565b6000600883026154377fffffffffffffffffffffffffffffffffffffffffffffffffffffffffffffffff826153fa565b61544186836153fa565b95508019841693508086168417925050509392505050565b6000819050919050565b600061547e61547961547484613d07565b615459565b613d07565b9050919050565b6000819050919050565b61549883615463565b6154ac6154a482615485565b848454615407565b825550505050565b600090565b6154c16154b4565b6154cc81848461548f565b505050565b5b818110156154f0576154e56000826154b9565b6001810190506154d2565b5050565b601f82111561553557615506816153d5565b61550f846153ea565b8101602085101561551e578190505b61553261552a856153ea565b8301826154d1565b50505b505050565b600082821c905092915050565b60006155586000198460080261553a565b1980831691505092915050565b60006155718383615547565b9150826002028217905092915050565b61558a82613da3565b67ffffffffffffffff8111156155a3576155a26140a2565b5b6155ad8254615274565b6155b88282856154f4565b600060209050601f8311600181146155eb57600084156155d9578287015190505b6155e38582615565565b86555061564b565b601f1984166155f9866153d5565b60005b82811015615621578489015182556001820191506020850194506020810190506155fc565b8683101561563e578489015161563a601f891682615547565b8355505b6001600288020188555050505b505050505050565b7f41637475616c697a6163696f6e20646520706c616e7461000000000000000000600082015250565b6000615689601783614229565b915061569482615653565b602082019050919050565b600060208201905081810360008301526156b88161567c565b9050919050565b60006156ca82613d07565b91507fffffffffffffffffffffffffffffffffffffffffffffffffffffffffffffffff82036156fc576156fb6152a5565b5b600182019050919050565b7f54656d70657261747572612064656d61736961646f2062616a61000000000000600082015250565b600061573d601a83614229565b915061574882615707565b602082019050919050565b6000602082019050818103600083015261576c81615730565b9050919050565b600061577e82613d07565b915061578983613d07565b92508282019050808211156157a1576157a06152a5565b5b92915050565b7f4e487b7100000000000000000000000000000000000000000000000000000000600052603260045260246000fd5b7f4e6f2068617920686973746f7269616c2070617261206573746120706c616e7460008201527f6100000000000000000000000000000000000000000000000000000000000000602082015250565b6000615832602183614229565b915061583d826157d6565b604082019050919050565b6000602082019050818103600083015261586181615825565b9050919050565b600061587382613d07565b915061587e83613d07565b9250828203905081811115615896576158956152a5565b5b92915050565b7f526567697374726f20646520706c616e74610000000000000000000000000000600082015250565b60006158d2601283614229565b91506158dd8261589c565b602082019050919050565b60006020820190508181036000830152615901816158c5565b9050919050565b600081905092915050565b60008190508160005260206000209050919050565b6000815461593581615274565b61593f8186615908565b9450600182166000811461595a576001811461596f576159a2565b60ff19831686528115158202860193506159a2565b61597885615913565b60005b8381101561599a5781548189015260018201915060208101905061597b565b838801955050505b50505092915050565b60006159b78284615928565b915081905092915050565b7f456c207469706f2064652073656d696c6c61206e6f2065732076616c69646f00600082015250565b60006159f8601f83614229565b9150615a03826159c2565b602082019050919050565b60006020820190508181036000830152615a27816159eb565b9050919050565b7f4c612063616e74696461642064652073656d696c6c617320646562652073657260008201527f2031000000000000000000000000000000000000000000000000000000000000602082015250565b6000615a8a602283614229565b9150615a9582615a2e565b604082019050919050565b60006020820190508181036000830152615ab981615a7d565b9050919050565b7f4c6174697475642066756572612064652072616e676f00000000000000000000600082015250565b6000615af6601683614229565b9150615b0182615ac0565b602082019050919050565b60006020820190508181036000830152615b2581615ae9565b9050919050565b7f4c6f6e67697475642066756572612064652072616e676f000000000000000000600082015250565b6000615b62601783614229565b9150615b6d82615b2c565b602082019050919050565b60006020820190508181036000830152615b9181615b55565b9050919050565b7f54656d70657261747572612066756572612064656c2072616e676f207065726d60008201527f697469646f20282d3130206120313520677261646f7329000000000000000000602082015250565b6000615bf4603783614229565b9150615bff82615b98565b604082019050919050565b60006020820190508181036000830152615c2381615be7565b9050919050565b7f48756d656461642072656c61746976612066756572612064656c2072616e676f60008201527f207065726d697469646f20283530252061203130302529000000000000000000602082015250565b6000615c86603783614229565b9150615c9182615c2a565b604082019050919050565b60006020820190508181036000830152615cb581615c79565b9050919050565b7f416c74697475642066756572612064656c2072616e676f207065726d6974696460008201527f6f2028323830306d206120343230306d29000000000000000000000000000000602082015250565b6000615d18603183614229565b9150615d2382615cbc565b604082019050919050565b60006020820190508181036000830152615d4781615d0b565b9050919050565b7f536520686120616c63616e7a61646f20656c206c696d6974652064652035302060008201527f73656d696c6c6173207265676973747261646173000000000000000000000000602082015250565b6000615daa603483614229565b9150615db582615d4e565b604082019050919050565b60006020820190508181036000830152615dd981615d9d565b9050919050565b7f526567697374726f2064652073656d696c6c6100000000000000000000000000600082015250565b6000615e16601383614229565b9150615e2182615de0565b602082019050919050565b60006020820190508181036000830152615e4581615e09565b9050919050565b7f41637475616c697a6163696f6e20646520756269636163696f6e20646520706c60008201527f616e746100000000000000000000000000000000000000000000000000000000602082015250565b6000615ea8602483614229565b9150615eb382615e4c565b604082019050919050565b60006020820190508181036000830152615ed781615e9b565b9050919050565b7f4e487b7100000000000000000000000000000000000000000000000000000000600052601260045260246000fd5b6000615f1882613d07565b9150615f2383613d07565b925082615f3357615f32615ede565b5b82820490509291505056fea2646970667358221220cb5ab60ccd7d1a418c6769fada9f8b15ee6fa3250fcf72a6e585761010bf678e64736f6c634300081b0033",
			"opcodes": "PUSH1 0x80 PUSH1 0x40 MSTORE PUSH1 0x0 PUSH1 0x3 PUSH1 0x0 PUSH2 0x100 EXP DUP2 SLOAD DUP2 PUSH1 0xFF MUL NOT AND SWAP1 DUP4 ISZERO ISZERO MUL OR SWAP1 SSTORE POP CALLVALUE DUP1 ISZERO PUSH1 0x2A JUMPI PUSH1 0x0 DUP1 REVERT JUMPDEST POP CALLER PUSH1 0x0 DUP1 PUSH2 0x100 EXP DUP2 SLOAD DUP2 PUSH20 0xFFFFFFFFFFFFFFFFFFFFFFFFFFFFFFFFFFFFFFFF MUL NOT AND SWAP1 DUP4 PUSH20 0xFFFFFFFFFFFFFFFFFFFFFFFFFFFFFFFFFFFFFFFF AND MUL OR SWAP1 SSTORE POP PUSH2 0x5F74 DUP1 PUSH2 0x7A PUSH1 0x0 CODECOPY PUSH1 0x0 RETURN INVALID PUSH1 0x80 PUSH1 0x40 MSTORE CALLVALUE DUP1 ISZERO PUSH2 0x10 JUMPI PUSH1 0x0 DUP1 REVERT JUMPDEST POP PUSH1 0x4 CALLDATASIZE LT PUSH2 0x23C JUMPI PUSH1 0x0 CALLDATALOAD PUSH1 0xE0 SHR DUP1 PUSH4 0x8C70E066 GT PUSH2 0x13B JUMPI DUP1 PUSH4 0xD407FBDA GT PUSH2 0xB8 JUMPI DUP1 PUSH4 0xDDB2A5B6 GT PUSH2 0x7C JUMPI DUP1 PUSH4 0xDDB2A5B6 EQ PUSH2 0x6EA JUMPI DUP1 PUSH4 0xE85CDAE1 EQ PUSH2 0x70B JUMPI DUP1 PUSH4 0xEF887776 EQ PUSH2 0x729 JUMPI DUP1 PUSH4 0xF27FA807 EQ PUSH2 0x747 JUMPI DUP1 PUSH4 0xF3952E06 EQ PUSH2 0x751 JUMPI PUSH2 0x23C JUMP JUMPDEST DUP1 PUSH4 0xD407FBDA EQ PUSH2 0x643 JUMPI DUP1 PUSH4 0xD449DC54 EQ PUSH2 0x65F JUMPI DUP1 PUSH4 0xD679FA6D EQ PUSH2 0x68F JUMPI DUP1 PUSH4 0xD874AF53 EQ PUSH2 0x6B0 JUMPI DUP1 PUSH4 0xDAB8B3E1 EQ PUSH2 0x6CE JUMPI PUSH2 0x23C JUMP JUMPDEST DUP1 PUSH4 0xB490E968 GT PUSH2 0xFF JUMPI DUP1 PUSH4 0xB490E968 EQ PUSH2 0x575 JUMPI DUP1 PUSH4 0xB83FF659 EQ PUSH2 0x5A5 JUMPI DUP1 PUSH4 0xBC0B8187 EQ PUSH2 0x5C1 JUMPI DUP1 PUSH4 0xBC1D00B2 EQ PUSH2 0x5F1 JUMPI DUP1 PUSH4 0xCC53AA89 EQ PUSH2 0x627 JUMPI PUSH2 0x23C JUMP JUMPDEST DUP1 PUSH4 0x8C70E066 EQ PUSH2 0x4B7 JUMPI DUP1 PUSH4 0x8DA5CB5B EQ PUSH2 0x4E7 JUMPI DUP1 PUSH4 0x94C2026E EQ PUSH2 0x505 JUMPI DUP1 PUSH4 0x9B72ADE0 EQ PUSH2 0x521 JUMPI DUP1 PUSH4 0xB118D04E EQ PUSH2 0x555 JUMPI PUSH2 0x23C JUMP JUMPDEST DUP1 PUSH4 0x4BAA226D GT PUSH2 0x1C9 JUMPI DUP1 PUSH4 0x5D5E0BAE GT PUSH2 0x18D JUMPI DUP1 PUSH4 0x5D5E0BAE EQ PUSH2 0x439 JUMPI DUP1 PUSH4 0x625945B1 EQ PUSH2 0x455 JUMPI DUP1 PUSH4 0x6F368243 EQ PUSH2 0x473 JUMPI DUP1 PUSH4 0x7FA06914 EQ PUSH2 0x48F JUMPI DUP1 PUSH4 0x83D6D087 EQ PUSH2 0x4AD JUMPI PUSH2 0x23C JUMP JUMPDEST DUP1 PUSH4 0x4BAA226D EQ PUSH2 0x381 JUMPI DUP1 PUSH4 0x4EE00EEF EQ PUSH2 0x39D JUMPI DUP1 PUSH4 0x5521DCCE EQ PUSH2 0x3CD JUMPI DUP1 PUSH4 0x5B9197F3 EQ PUSH2 0x3FF JUMPI DUP1 PUSH4 0x5C975ABB EQ PUSH2 0x41B JUMPI PUSH2 0x23C JUMP JUMPDEST DUP1 PUSH4 0x1BC7509E GT PUSH2 0x210 JUMPI DUP1 PUSH4 0x1BC7509E EQ PUSH2 0x2C7 JUMPI DUP1 PUSH4 0x1EE5DACC EQ PUSH2 0x2F7 JUMPI DUP1 PUSH4 0x25A944C9 EQ PUSH2 0x313 JUMPI DUP1 PUSH4 0x27B70F40 EQ PUSH2 0x32F JUMPI DUP1 PUSH4 0x48063326 EQ PUSH2 0x365 JUMPI PUSH2 0x23C JUMP JUMPDEST DUP1 PUSH3 0x9A458A EQ PUSH2 0x241 JUMPI DUP1 PUSH4 0x6AAFD04 EQ PUSH2 0x25D JUMPI DUP1 PUSH4 0x71C2BA7 EQ PUSH2 0x27B JUMPI DUP1 PUSH4 0xFE6896D EQ PUSH2 0x297 JUMPI JUMPDEST PUSH1 0x0 DUP1 REVERT JUMPDEST PUSH2 0x25B PUSH1 0x4 DUP1 CALLDATASIZE SUB DUP2 ADD SWAP1 PUSH2 0x256 SWAP2 SWAP1 PUSH2 0x3CDA JUMP JUMPDEST PUSH2 0x785 JUMP JUMPDEST STOP JUMPDEST PUSH2 0x265 PUSH2 0x911 JUMP JUMPDEST PUSH1 0x40 MLOAD PUSH2 0x272 SWAP2 SWAP1 PUSH2 0x3D20 JUMP JUMPDEST PUSH1 0x40 MLOAD DUP1 SWAP2 SUB SWAP1 RETURN JUMPDEST PUSH2 0x295 PUSH1 0x4 DUP1 CALLDATASIZE SUB DUP2 ADD SWAP1 PUSH2 0x290 SWAP2 SWAP1 PUSH2 0x3CDA JUMP JUMPDEST PUSH2 0x917 JUMP JUMPDEST STOP JUMPDEST PUSH2 0x2B1 PUSH1 0x4 DUP1 CALLDATASIZE SUB DUP2 ADD SWAP1 PUSH2 0x2AC SWAP2 SWAP1 PUSH2 0x3D67 JUMP JUMPDEST PUSH2 0xA4C JUMP JUMPDEST PUSH1 0x40 MLOAD PUSH2 0x2BE SWAP2 SWAP1 PUSH2 0x3F42 JUMP JUMPDEST PUSH1 0x40 MLOAD DUP1 SWAP2 SUB SWAP1 RETURN JUMPDEST PUSH2 0x2E1 PUSH1 0x4 DUP1 CALLDATASIZE SUB DUP2 ADD SWAP1 PUSH2 0x2DC SWAP2 SWAP1 PUSH2 0x3D67 JUMP JUMPDEST PUSH2 0xCDA JUMP JUMPDEST PUSH1 0x40 MLOAD PUSH2 0x2EE SWAP2 SWAP1 PUSH2 0x4076 JUMP JUMPDEST PUSH1 0x40 MLOAD DUP1 SWAP2 SUB SWAP1 RETURN JUMPDEST PUSH2 0x311 PUSH1 0x4 DUP1 CALLDATASIZE SUB DUP2 ADD SWAP1 PUSH2 0x30C SWAP2 SWAP1 PUSH2 0x3D67 JUMP JUMPDEST PUSH2 0xE06 JUMP JUMPDEST STOP JUMPDEST PUSH2 0x32D PUSH1 0x4 DUP1 CALLDATASIZE SUB DUP2 ADD SWAP1 PUSH2 0x328 SWAP2 SWAP1 PUSH2 0x41CD JUMP JUMPDEST PUSH2 0xFC8 JUMP JUMPDEST STOP JUMPDEST PUSH2 0x349 PUSH1 0x4 DUP1 CALLDATASIZE SUB DUP2 ADD SWAP1 PUSH2 0x344 SWAP2 SWAP1 PUSH2 0x3D67 JUMP JUMPDEST PUSH2 0x1091 JUMP JUMPDEST PUSH1 0x40 MLOAD PUSH2 0x35C SWAP8 SWAP7 SWAP6 SWAP5 SWAP4 SWAP3 SWAP2 SWAP1 PUSH2 0x42BE JUMP JUMPDEST PUSH1 0x40 MLOAD DUP1 SWAP2 SUB SWAP1 RETURN JUMPDEST PUSH2 0x37F PUSH1 0x4 DUP1 CALLDATASIZE SUB DUP2 ADD SWAP1 PUSH2 0x37A SWAP2 SWAP1 PUSH2 0x4450 JUMP JUMPDEST PUSH2 0x129D JUMP JUMPDEST STOP JUMPDEST PUSH2 0x39B PUSH1 0x4 DUP1 CALLDATASIZE SUB DUP2 ADD SWAP1 PUSH2 0x396 SWAP2 SWAP1 PUSH2 0x41CD JUMP JUMPDEST PUSH2 0x13BA JUMP JUMPDEST STOP JUMPDEST PUSH2 0x3B7 PUSH1 0x4 DUP1 CALLDATASIZE SUB DUP2 ADD SWAP1 PUSH2 0x3B2 SWAP2 SWAP1 PUSH2 0x3D67 JUMP JUMPDEST PUSH2 0x15BF JUMP JUMPDEST PUSH1 0x40 MLOAD PUSH2 0x3C4 SWAP2 SWAP1 PUSH2 0x45B8 JUMP JUMPDEST PUSH1 0x40 MLOAD DUP1 SWAP2 SUB SWAP1 RETURN JUMPDEST PUSH2 0x3E7 PUSH1 0x4 DUP1 CALLDATASIZE SUB DUP2 ADD SWAP1 PUSH2 0x3E2 SWAP2 SWAP1 PUSH2 0x45DA JUMP JUMPDEST PUSH2 0x18A7 JUMP JUMPDEST PUSH1 0x40 MLOAD PUSH2 0x3F6 SWAP4 SWAP3 SWAP2 SWAP1 PUSH2 0x461A JUMP JUMPDEST PUSH1 0x40 MLOAD DUP1 SWAP2 SUB SWAP1 RETURN JUMPDEST PUSH2 0x419 PUSH1 0x4 DUP1 CALLDATASIZE SUB DUP2 ADD SWAP1 PUSH2 0x414 SWAP2 SWAP1 PUSH2 0x4658 JUMP JUMPDEST PUSH2 0x198A JUMP JUMPDEST STOP JUMPDEST PUSH2 0x423 PUSH2 0x1A82 JUMP JUMPDEST PUSH1 0x40 MLOAD PUSH2 0x430 SWAP2 SWAP1 PUSH2 0x46E2 JUMP JUMPDEST PUSH1 0x40 MLOAD DUP1 SWAP2 SUB SWAP1 RETURN JUMPDEST PUSH2 0x453 PUSH1 0x4 DUP1 CALLDATASIZE SUB DUP2 ADD SWAP1 PUSH2 0x44E SWAP2 SWAP1 PUSH2 0x3D67 JUMP JUMPDEST PUSH2 0x1A95 JUMP JUMPDEST STOP JUMPDEST PUSH2 0x45D PUSH2 0x1B16 JUMP JUMPDEST PUSH1 0x40 MLOAD PUSH2 0x46A SWAP2 SWAP1 PUSH2 0x47BF JUMP JUMPDEST PUSH1 0x40 MLOAD DUP1 SWAP2 SUB SWAP1 RETURN JUMPDEST PUSH2 0x48D PUSH1 0x4 DUP1 CALLDATASIZE SUB DUP2 ADD SWAP1 PUSH2 0x488 SWAP2 SWAP1 PUSH2 0x3CDA JUMP JUMPDEST PUSH2 0x1C8E JUMP JUMPDEST STOP JUMPDEST PUSH2 0x497 PUSH2 0x1DC3 JUMP JUMPDEST PUSH1 0x40 MLOAD PUSH2 0x4A4 SWAP2 SWAP1 PUSH2 0x3D20 JUMP JUMPDEST PUSH1 0x40 MLOAD DUP1 SWAP2 SUB SWAP1 RETURN JUMPDEST PUSH2 0x4B5 PUSH2 0x1DC9 JUMP JUMPDEST STOP JUMPDEST PUSH2 0x4D1 PUSH1 0x4 DUP1 CALLDATASIZE SUB DUP2 ADD SWAP1 PUSH2 0x4CC SWAP2 SWAP1 PUSH2 0x3D67 JUMP JUMPDEST PUSH2 0x1EC0 JUMP JUMPDEST PUSH1 0x40 MLOAD PUSH2 0x4DE SWAP2 SWAP1 PUSH2 0x4831 JUMP JUMPDEST PUSH1 0x40 MLOAD DUP1 SWAP2 SUB SWAP1 RETURN JUMPDEST PUSH2 0x4EF PUSH2 0x2042 JUMP JUMPDEST PUSH1 0x40 MLOAD PUSH2 0x4FC SWAP2 SWAP1 PUSH2 0x4862 JUMP JUMPDEST PUSH1 0x40 MLOAD DUP1 SWAP2 SUB SWAP1 RETURN JUMPDEST PUSH2 0x51F PUSH1 0x4 DUP1 CALLDATASIZE SUB DUP2 ADD SWAP1 PUSH2 0x51A SWAP2 SWAP1 PUSH2 0x48CD JUMP JUMPDEST PUSH2 0x2066 JUMP JUMPDEST STOP JUMPDEST PUSH2 0x53B PUSH1 0x4 DUP1 CALLDATASIZE SUB DUP2 ADD SWAP1 PUSH2 0x536 SWAP2 SWAP1 PUSH2 0x3D67 JUMP JUMPDEST PUSH2 0x22E5 JUMP JUMPDEST PUSH1 0x40 MLOAD PUSH2 0x54C SWAP6 SWAP5 SWAP4 SWAP3 SWAP2 SWAP1 PUSH2 0x496C JUMP JUMPDEST PUSH1 0x40 MLOAD DUP1 SWAP2 SUB SWAP1 RETURN JUMPDEST PUSH2 0x55D PUSH2 0x243F JUMP JUMPDEST PUSH1 0x40 MLOAD PUSH2 0x56C SWAP4 SWAP3 SWAP2 SWAP1 PUSH2 0x49CD JUMP JUMPDEST PUSH1 0x40 MLOAD DUP1 SWAP2 SUB SWAP1 RETURN JUMPDEST PUSH2 0x58F PUSH1 0x4 DUP1 CALLDATASIZE SUB DUP2 ADD SWAP1 PUSH2 0x58A SWAP2 SWAP1 PUSH2 0x3D67 JUMP JUMPDEST PUSH2 0x24FC JUMP JUMPDEST PUSH1 0x40 MLOAD PUSH2 0x59C SWAP2 SWAP1 PUSH2 0x4076 JUMP JUMPDEST PUSH1 0x40 MLOAD DUP1 SWAP2 SUB SWAP1 RETURN JUMPDEST PUSH2 0x5BF PUSH1 0x4 DUP1 CALLDATASIZE SUB DUP2 ADD SWAP1 PUSH2 0x5BA SWAP2 SWAP1 PUSH2 0x3D67 JUMP JUMPDEST PUSH2 0x2679 JUMP JUMPDEST STOP JUMPDEST PUSH2 0x5DB PUSH1 0x4 DUP1 CALLDATASIZE SUB DUP2 ADD SWAP1 PUSH2 0x5D6 SWAP2 SWAP1 PUSH2 0x4A04 JUMP JUMPDEST PUSH2 0x2871 JUMP JUMPDEST PUSH1 0x40 MLOAD PUSH2 0x5E8 SWAP2 SWAP1 PUSH2 0x4AFC JUMP JUMPDEST PUSH1 0x40 MLOAD DUP1 SWAP2 SUB SWAP1 RETURN JUMPDEST PUSH2 0x60B PUSH1 0x4 DUP1 CALLDATASIZE SUB DUP2 ADD SWAP1 PUSH2 0x606 SWAP2 SWAP1 PUSH2 0x3D67 JUMP JUMPDEST PUSH2 0x2958 JUMP JUMPDEST PUSH1 0x40 MLOAD PUSH2 0x61E SWAP8 SWAP7 SWAP6 SWAP5 SWAP4 SWAP3 SWAP2 SWAP1 PUSH2 0x4B99 JUMP JUMPDEST PUSH1 0x40 MLOAD DUP1 SWAP2 SUB SWAP1 RETURN JUMPDEST PUSH2 0x641 PUSH1 0x4 DUP1 CALLDATASIZE SUB DUP2 ADD SWAP1 PUSH2 0x63C SWAP2 SWAP1 PUSH2 0x4C20 JUMP JUMPDEST PUSH2 0x2BBE JUMP JUMPDEST STOP JUMPDEST PUSH2 0x65D PUSH1 0x4 DUP1 CALLDATASIZE SUB DUP2 ADD SWAP1 PUSH2 0x658 SWAP2 SWAP1 PUSH2 0x4D3F JUMP JUMPDEST PUSH2 0x3232 JUMP JUMPDEST STOP JUMPDEST PUSH2 0x679 PUSH1 0x4 DUP1 CALLDATASIZE SUB DUP2 ADD SWAP1 PUSH2 0x674 SWAP2 SWAP1 PUSH2 0x3CDA JUMP JUMPDEST PUSH2 0x33A5 JUMP JUMPDEST PUSH1 0x40 MLOAD PUSH2 0x686 SWAP2 SWAP1 PUSH2 0x46E2 JUMP JUMPDEST PUSH1 0x40 MLOAD DUP1 SWAP2 SUB SWAP1 RETURN JUMPDEST PUSH2 0x697 PUSH2 0x33C5 JUMP JUMPDEST PUSH1 0x40 MLOAD PUSH2 0x6A7 SWAP5 SWAP4 SWAP3 SWAP2 SWAP1 PUSH2 0x4D7F JUMP JUMPDEST PUSH1 0x40 MLOAD DUP1 SWAP2 SUB SWAP1 RETURN JUMPDEST PUSH2 0x6B8 PUSH2 0x33E5 JUMP JUMPDEST PUSH1 0x40 MLOAD PUSH2 0x6C5 SWAP2 SWAP1 PUSH2 0x3D20 JUMP JUMPDEST PUSH1 0x40 MLOAD DUP1 SWAP2 SUB SWAP1 RETURN JUMPDEST PUSH2 0x6E8 PUSH1 0x4 DUP1 CALLDATASIZE SUB DUP2 ADD SWAP1 PUSH2 0x6E3 SWAP2 SWAP1 PUSH2 0x4DC4 JUMP JUMPDEST PUSH2 0x33EB JUMP JUMPDEST STOP JUMPDEST PUSH2 0x6F2 PUSH2 0x34EF JUMP JUMPDEST PUSH1 0x40 MLOAD PUSH2 0x702 SWAP5 SWAP4 SWAP3 SWAP2 SWAP1 PUSH2 0x4D7F JUMP JUMPDEST PUSH1 0x40 MLOAD DUP1 SWAP2 SUB SWAP1 RETURN JUMPDEST PUSH2 0x713 PUSH2 0x35DB JUMP JUMPDEST PUSH1 0x40 MLOAD PUSH2 0x720 SWAP2 SWAP1 PUSH2 0x3D20 JUMP JUMPDEST PUSH1 0x40 MLOAD DUP1 SWAP2 SUB SWAP1 RETURN JUMPDEST PUSH2 0x731 PUSH2 0x35E1 JUMP JUMPDEST PUSH1 0x40 MLOAD PUSH2 0x73E SWAP2 SWAP1 PUSH2 0x4FBE JUMP JUMPDEST PUSH1 0x40 MLOAD DUP1 SWAP2 SUB SWAP1 RETURN JUMPDEST PUSH2 0x74F PUSH2 0x391A JUMP JUMPDEST STOP JUMPDEST PUSH2 0x76B PUSH1 0x4 DUP1 CALLDATASIZE SUB DUP2 ADD SWAP1 PUSH2 0x766 SWAP2 SWAP1 PUSH2 0x3D67 JUMP JUMPDEST PUSH2 0x3A11 JUMP JUMPDEST PUSH1 0x40 MLOAD PUSH2 0x77C SWAP6 SWAP5 SWAP4 SWAP3 SWAP2 SWAP1 PUSH2 0x4FEF JUMP JUMPDEST PUSH1 0x40 MLOAD DUP1 SWAP2 SUB SWAP1 RETURN JUMPDEST PUSH1 0x0 DUP1 SLOAD SWAP1 PUSH2 0x100 EXP SWAP1 DIV PUSH20 0xFFFFFFFFFFFFFFFFFFFFFFFFFFFFFFFFFFFFFFFF AND PUSH20 0xFFFFFFFFFFFFFFFFFFFFFFFFFFFFFFFFFFFFFFFF AND CALLER PUSH20 0xFFFFFFFFFFFFFFFFFFFFFFFFFFFFFFFFFFFFFFFF AND EQ PUSH2 0x85F JUMPI CALLER PUSH20 0xFFFFFFFFFFFFFFFFFFFFFFFFFFFFFFFFFFFFFFFF AND PUSH32 0x1BDB0A42F6061B7B08AE342C42472613D878CF5EE160DA7733D223B4234490C2 PUSH1 0x40 MLOAD PUSH2 0x81C SWAP1 PUSH2 0x5095 JUMP JUMPDEST PUSH1 0x40 MLOAD DUP1 SWAP2 SUB SWAP1 LOG2 PUSH1 0x40 MLOAD PUSH32 0x8C379A000000000000000000000000000000000000000000000000000000000 DUP2 MSTORE PUSH1 0x4 ADD PUSH2 0x856 SWAP1 PUSH2 0x5127 JUMP JUMPDEST PUSH1 0x40 MLOAD DUP1 SWAP2 SUB SWAP1 REVERT JUMPDEST PUSH1 0x0 PUSH20 0xFFFFFFFFFFFFFFFFFFFFFFFFFFFFFFFFFFFFFFFF AND DUP2 PUSH20 0xFFFFFFFFFFFFFFFFFFFFFFFFFFFFFFFFFFFFFFFF AND SUB PUSH2 0x8CE JUMPI PUSH1 0x40 MLOAD PUSH32 0x8C379A000000000000000000000000000000000000000000000000000000000 DUP2 MSTORE PUSH1 0x4 ADD PUSH2 0x8C5 SWAP1 PUSH2 0x51B9 JUMP JUMPDEST PUSH1 0x40 MLOAD DUP1 SWAP2 SUB SWAP1 REVERT JUMPDEST DUP1 PUSH1 0x0 DUP1 PUSH2 0x100 EXP DUP2 SLOAD DUP2 PUSH20 0xFFFFFFFFFFFFFFFFFFFFFFFFFFFFFFFFFFFFFFFF MUL NOT AND SWAP1 DUP4 PUSH20 0xFFFFFFFFFFFFFFFFFFFFFFFFFFFFFFFFFFFFFFFF AND MUL OR SWAP1 SSTORE POP POP JUMP JUMPDEST PUSH1 0x1 SLOAD DUP2 JUMP JUMPDEST PUSH1 0x0 DUP1 SLOAD SWAP1 PUSH2 0x100 EXP SWAP1 DIV PUSH20 0xFFFFFFFFFFFFFFFFFFFFFFFFFFFFFFFFFFFFFFFF AND PUSH20 0xFFFFFFFFFFFFFFFFFFFFFFFFFFFFFFFFFFFFFFFF AND CALLER PUSH20 0xFFFFFFFFFFFFFFFFFFFFFFFFFFFFFFFFFFFFFFFF AND EQ PUSH2 0x9F1 JUMPI CALLER PUSH20 0xFFFFFFFFFFFFFFFFFFFFFFFFFFFFFFFFFFFFFFFF AND PUSH32 0x1BDB0A42F6061B7B08AE342C42472613D878CF5EE160DA7733D223B4234490C2 PUSH1 0x40 MLOAD PUSH2 0x9AE SWAP1 PUSH2 0x5095 JUMP JUMPDEST PUSH1 0x40 MLOAD DUP1 SWAP2 SUB SWAP1 LOG2 PUSH1 0x40 MLOAD PUSH32 0x8C379A000000000000000000000000000000000000000000000000000000000 DUP2 MSTORE PUSH1 0x4 ADD PUSH2 0x9E8 SWAP1 PUSH2 0x5127 JUMP JUMPDEST PUSH1 0x40 MLOAD DUP1 SWAP2 SUB SWAP1 REVERT JUMPDEST PUSH1 0x0 PUSH1 0x7 PUSH1 0x0 DUP4 PUSH20 0xFFFFFFFFFFFFFFFFFFFFFFFFFFFFFFFFFFFFFFFF AND PUSH20 0xFFFFFFFFFFFFFFFFFFFFFFFFFFFFFFFFFFFFFFFF AND DUP2 MSTORE PUSH1 0x20 ADD SWAP1 DUP2 MSTORE PUSH1 0x20 ADD PUSH1 0x0 KECCAK256 PUSH1 0x0 PUSH2 0x100 EXP DUP2 SLOAD DUP2 PUSH1 0xFF MUL NOT AND SWAP1 DUP4 ISZERO ISZERO MUL OR SWAP1 SSTORE POP POP JUMP JUMPDEST PUSH2 0xA54 PUSH2 0x3AE3 JUMP JUMPDEST PUSH1 0x0 DUP3 GT DUP1 ISZERO PUSH2 0xA66 JUMPI POP PUSH1 0x2 SLOAD DUP3 GT ISZERO JUMPDEST PUSH2 0xAA5 JUMPI PUSH1 0x40 MLOAD PUSH32 0x8C379A000000000000000000000000000000000000000000000000000000000 DUP2 MSTORE PUSH1 0x4 ADD PUSH2 0xA9C SWAP1 PUSH2 0x5225 JUMP JUMPDEST PUSH1 0x40 MLOAD DUP1 SWAP2 SUB SWAP1 REVERT JUMPDEST PUSH1 0x5 PUSH1 0x0 DUP4 DUP2 MSTORE PUSH1 0x20 ADD SWAP1 DUP2 MSTORE PUSH1 0x20 ADD PUSH1 0x0 KECCAK256 PUSH1 0x40 MLOAD DUP1 PUSH1 0xE0 ADD PUSH1 0x40 MSTORE SWAP1 DUP2 PUSH1 0x0 DUP3 ADD SLOAD DUP2 MSTORE PUSH1 0x20 ADD PUSH1 0x1 DUP3 ADD SLOAD DUP2 MSTORE PUSH1 0x20 ADD PUSH1 0x2 DUP3 ADD DUP1 SLOAD PUSH2 0xAE7 SWAP1 PUSH2 0x5274 JUMP JUMPDEST DUP1 PUSH1 0x1F ADD PUSH1 0x20 DUP1 SWAP2 DIV MUL PUSH1 0x20 ADD PUSH1 0x40 MLOAD SWAP1 DUP2 ADD PUSH1 0x40 MSTORE DUP1 SWAP3 SWAP2 SWAP1 DUP2 DUP2 MSTORE PUSH1 0x20 ADD DUP3 DUP1 SLOAD PUSH2 0xB13 SWAP1 PUSH2 0x5274 JUMP JUMPDEST DUP1 ISZERO PUSH2 0xB60 JUMPI DUP1 PUSH1 0x1F LT PUSH2 0xB35 JUMPI PUSH2 0x100 DUP1 DUP4 SLOAD DIV MUL DUP4 MSTORE SWAP2 PUSH1 0x20 ADD SWAP2 PUSH2 0xB60 JUMP JUMPDEST DUP3 ADD SWAP2 SWAP1 PUSH1 0x0 MSTORE PUSH1 0x20 PUSH1 0x0 KECCAK256 SWAP1 JUMPDEST DUP2 SLOAD DUP2 MSTORE SWAP1 PUSH1 0x1 ADD SWAP1 PUSH1 0x20 ADD DUP1 DUP4 GT PUSH2 0xB43 JUMPI DUP3 SWAP1 SUB PUSH1 0x1F AND DUP3 ADD SWAP2 JUMPDEST POP POP POP POP POP DUP2 MSTORE PUSH1 0x20 ADD PUSH1 0x3 DUP3 ADD PUSH1 0x40 MLOAD DUP1 PUSH1 0x40 ADD PUSH1 0x40 MSTORE SWAP1 DUP2 PUSH1 0x0 DUP3 ADD SLOAD DUP2 MSTORE PUSH1 0x20 ADD PUSH1 0x1 DUP3 ADD SLOAD DUP2 MSTORE POP POP DUP2 MSTORE PUSH1 0x20 ADD PUSH1 0x5 DUP3 ADD DUP1 SLOAD PUSH2 0xBA1 SWAP1 PUSH2 0x5274 JUMP JUMPDEST DUP1 PUSH1 0x1F ADD PUSH1 0x20 DUP1 SWAP2 DIV MUL PUSH1 0x20 ADD PUSH1 0x40 MLOAD SWAP1 DUP2 ADD PUSH1 0x40 MSTORE DUP1 SWAP3 SWAP2 SWAP1 DUP2 DUP2 MSTORE PUSH1 0x20 ADD DUP3 DUP1 SLOAD PUSH2 0xBCD SWAP1 PUSH2 0x5274 JUMP JUMPDEST DUP1 ISZERO PUSH2 0xC1A JUMPI DUP1 PUSH1 0x1F LT PUSH2 0xBEF JUMPI PUSH2 0x100 DUP1 DUP4 SLOAD DIV MUL DUP4 MSTORE SWAP2 PUSH1 0x20 ADD SWAP2 PUSH2 0xC1A JUMP JUMPDEST DUP3 ADD SWAP2 SWAP1 PUSH1 0x0 MSTORE PUSH1 0x20 PUSH1 0x0 KECCAK256 SWAP1 JUMPDEST DUP2 SLOAD DUP2 MSTORE SWAP1 PUSH1 0x1 ADD SWAP1 PUSH1 0x20 ADD DUP1 DUP4 GT PUSH2 0xBFD JUMPI DUP3 SWAP1 SUB PUSH1 0x1F AND DUP3 ADD SWAP2 JUMPDEST POP POP POP POP POP DUP2 MSTORE PUSH1 0x20 ADD PUSH1 0x6 DUP3 ADD DUP1 SLOAD PUSH2 0xC33 SWAP1 PUSH2 0x5274 JUMP JUMPDEST DUP1 PUSH1 0x1F ADD PUSH1 0x20 DUP1 SWAP2 DIV MUL PUSH1 0x20 ADD PUSH1 0x40 MLOAD SWAP1 DUP2 ADD PUSH1 0x40 MSTORE DUP1 SWAP3 SWAP2 SWAP1 DUP2 DUP2 MSTORE PUSH1 0x20 ADD DUP3 DUP1 SLOAD PUSH2 0xC5F SWAP1 PUSH2 0x5274 JUMP JUMPDEST DUP1 ISZERO PUSH2 0xCAC JUMPI DUP1 PUSH1 0x1F LT PUSH2 0xC81 JUMPI PUSH2 0x100 DUP1 DUP4 SLOAD DIV MUL DUP4 MSTORE SWAP2 PUSH1 0x20 ADD SWAP2 PUSH2 0xCAC JUMP JUMPDEST DUP3 ADD SWAP2 SWAP1 PUSH1 0x0 MSTORE PUSH1 0x20 PUSH1 0x0 KECCAK256 SWAP1 JUMPDEST DUP2 SLOAD DUP2 MSTORE SWAP1 PUSH1 0x1 ADD SWAP1 PUSH1 0x20 ADD DUP1 DUP4 GT PUSH2 0xC8F JUMPI DUP3 SWAP1 SUB PUSH1 0x1F AND DUP3 ADD SWAP2 JUMPDEST POP POP POP POP POP DUP2 MSTORE PUSH1 0x20 ADD PUSH1 0x7 DUP3 ADD PUSH1 0x40 MLOAD DUP1 PUSH1 0x20 ADD PUSH1 0x40 MSTORE SWAP1 DUP2 PUSH1 0x0 DUP3 ADD SLOAD DUP2 MSTORE POP POP DUP2 MSTORE POP POP SWAP1 POP SWAP2 SWAP1 POP JUMP JUMPDEST PUSH1 0x60 PUSH1 0x6 PUSH1 0x0 DUP4 DUP2 MSTORE PUSH1 0x20 ADD SWAP1 DUP2 MSTORE PUSH1 0x20 ADD PUSH1 0x0 KECCAK256 DUP1 SLOAD DUP1 PUSH1 0x20 MUL PUSH1 0x20 ADD PUSH1 0x40 MLOAD SWAP1 DUP2 ADD PUSH1 0x40 MSTORE DUP1 SWAP3 SWAP2 SWAP1 DUP2 DUP2 MSTORE PUSH1 0x20 ADD PUSH1 0x0 SWAP1 JUMPDEST DUP3 DUP3 LT ISZERO PUSH2 0xDFB JUMPI DUP4 DUP3 SWAP1 PUSH1 0x0 MSTORE PUSH1 0x20 PUSH1 0x0 KECCAK256 SWAP1 PUSH1 0x3 MUL ADD PUSH1 0x40 MLOAD DUP1 PUSH1 0x60 ADD PUSH1 0x40 MSTORE SWAP1 DUP2 PUSH1 0x0 DUP3 ADD SLOAD DUP2 MSTORE PUSH1 0x20 ADD PUSH1 0x1 DUP3 ADD DUP1 SLOAD PUSH2 0xD4C SWAP1 PUSH2 0x5274 JUMP JUMPDEST DUP1 PUSH1 0x1F ADD PUSH1 0x20 DUP1 SWAP2 DIV MUL PUSH1 0x20 ADD PUSH1 0x40 MLOAD SWAP1 DUP2 ADD PUSH1 0x40 MSTORE DUP1 SWAP3 SWAP2 SWAP1 DUP2 DUP2 MSTORE PUSH1 0x20 ADD DUP3 DUP1 SLOAD PUSH2 0xD78 SWAP1 PUSH2 0x5274 JUMP JUMPDEST DUP1 ISZERO PUSH2 0xDC5 JUMPI DUP1 PUSH1 0x1F LT PUSH2 0xD9A JUMPI PUSH2 0x100 DUP1 DUP4 SLOAD DIV MUL DUP4 MSTORE SWAP2 PUSH1 0x20 ADD SWAP2 PUSH2 0xDC5 JUMP JUMPDEST DUP3 ADD SWAP2 SWAP1 PUSH1 0x0 MSTORE PUSH1 0x20 PUSH1 0x0 KECCAK256 SWAP1 JUMPDEST DUP2 SLOAD DUP2 MSTORE SWAP1 PUSH1 0x1 ADD SWAP1 PUSH1 0x20 ADD DUP1 DUP4 GT PUSH2 0xDA8 JUMPI DUP3 SWAP1 SUB PUSH1 0x1F AND DUP3 ADD SWAP2 JUMPDEST POP POP POP POP POP DUP2 MSTORE PUSH1 0x20 ADD PUSH1 0x2 DUP3 ADD PUSH1 0x40 MLOAD DUP1 PUSH1 0x20 ADD PUSH1 0x40 MSTORE SWAP1 DUP2 PUSH1 0x0 DUP3 ADD SLOAD DUP2 MSTORE POP POP DUP2 MSTORE POP POP DUP2 MSTORE PUSH1 0x20 ADD SWAP1 PUSH1 0x1 ADD SWAP1 PUSH2 0xD0F JUMP JUMPDEST POP POP POP POP SWAP1 POP SWAP2 SWAP1 POP JUMP JUMPDEST PUSH1 0x0 DUP1 SLOAD SWAP1 PUSH2 0x100 EXP SWAP1 DIV PUSH20 0xFFFFFFFFFFFFFFFFFFFFFFFFFFFFFFFFFFFFFFFF AND PUSH20 0xFFFFFFFFFFFFFFFFFFFFFFFFFFFFFFFFFFFFFFFF AND CALLER PUSH20 0xFFFFFFFFFFFFFFFFFFFFFFFFFFFFFFFFFFFFFFFF AND EQ PUSH2 0xEE0 JUMPI CALLER PUSH20 0xFFFFFFFFFFFFFFFFFFFFFFFFFFFFFFFFFFFFFFFF AND PUSH32 0x1BDB0A42F6061B7B08AE342C42472613D878CF5EE160DA7733D223B4234490C2 PUSH1 0x40 MLOAD PUSH2 0xE9D SWAP1 PUSH2 0x5095 JUMP JUMPDEST PUSH1 0x40 MLOAD DUP1 SWAP2 SUB SWAP1 LOG2 PUSH1 0x40 MLOAD PUSH32 0x8C379A000000000000000000000000000000000000000000000000000000000 DUP2 MSTORE PUSH1 0x4 ADD PUSH2 0xED7 SWAP1 PUSH2 0x5127 JUMP JUMPDEST PUSH1 0x40 MLOAD DUP1 SWAP2 SUB SWAP1 REVERT JUMPDEST PUSH1 0x0 DUP2 GT DUP1 ISZERO PUSH2 0xEF2 JUMPI POP PUSH1 0x2 SLOAD DUP2 GT ISZERO JUMPDEST PUSH2 0xF31 JUMPI PUSH1 0x40 MLOAD PUSH32 0x8C379A000000000000000000000000000000000000000000000000000000000 DUP2 MSTORE PUSH1 0x4 ADD PUSH2 0xF28 SWAP1 PUSH2 0x5225 JUMP JUMPDEST PUSH1 0x40 MLOAD DUP1 SWAP2 SUB SWAP1 REVERT JUMPDEST PUSH1 0x5 PUSH1 0x0 DUP3 DUP2 MSTORE PUSH1 0x20 ADD SWAP1 DUP2 MSTORE PUSH1 0x20 ADD PUSH1 0x0 KECCAK256 PUSH1 0x0 DUP1 DUP3 ADD PUSH1 0x0 SWAP1 SSTORE PUSH1 0x1 DUP3 ADD PUSH1 0x0 SWAP1 SSTORE PUSH1 0x2 DUP3 ADD PUSH1 0x0 PUSH2 0xF65 SWAP2 SWAP1 PUSH2 0x3B2C JUMP JUMPDEST PUSH1 0x3 DUP3 ADD PUSH1 0x0 DUP1 DUP3 ADD PUSH1 0x0 SWAP1 SSTORE PUSH1 0x1 DUP3 ADD PUSH1 0x0 SWAP1 SSTORE POP POP PUSH1 0x5 DUP3 ADD PUSH1 0x0 PUSH2 0xF8C SWAP2 SWAP1 PUSH2 0x3B2C JUMP JUMPDEST PUSH1 0x6 DUP3 ADD PUSH1 0x0 PUSH2 0xF9C SWAP2 SWAP1 PUSH2 0x3B2C JUMP JUMPDEST PUSH1 0x7 DUP3 ADD PUSH1 0x0 DUP1 DUP3 ADD PUSH1 0x0 SWAP1 SSTORE POP POP POP POP PUSH1 0x2 PUSH1 0x0 DUP2 SLOAD DUP1 SWAP3 SWAP2 SWAP1 PUSH2 0xFC0 SWAP1 PUSH2 0x52D4 JUMP JUMPDEST SWAP2 SWAP1 POP SSTORE POP POP JUMP JUMPDEST PUSH1 0x3 PUSH1 0x0 SWAP1 SLOAD SWAP1 PUSH2 0x100 EXP SWAP1 DIV PUSH1 0xFF AND ISZERO PUSH2 0x1018 JUMPI PUSH1 0x40 MLOAD PUSH32 0x8C379A000000000000000000000000000000000000000000000000000000000 DUP2 MSTORE PUSH1 0x4 ADD PUSH2 0x100F SWAP1 PUSH2 0x5349 JUMP JUMPDEST PUSH1 0x40 MLOAD DUP1 SWAP2 SUB SWAP1 REVERT JUMPDEST PUSH1 0x0 DUP3 GT DUP1 ISZERO PUSH2 0x102A JUMPI POP PUSH1 0x1 SLOAD DUP3 GT ISZERO JUMPDEST PUSH2 0x1069 JUMPI PUSH1 0x40 MLOAD PUSH32 0x8C379A000000000000000000000000000000000000000000000000000000000 DUP2 MSTORE PUSH1 0x4 ADD PUSH2 0x1060 SWAP1 PUSH2 0x53B5 JUMP JUMPDEST PUSH1 0x40 MLOAD DUP1 SWAP2 SUB SWAP1 REVERT JUMPDEST DUP1 PUSH1 0x4 PUSH1 0x0 DUP5 DUP2 MSTORE PUSH1 0x20 ADD SWAP1 DUP2 MSTORE PUSH1 0x20 ADD PUSH1 0x0 KECCAK256 PUSH1 0xB ADD SWAP1 DUP2 PUSH2 0x108C SWAP2 SWAP1 PUSH2 0x5581 JUMP JUMPDEST POP POP POP JUMP JUMPDEST PUSH1 0x5 PUSH1 0x20 MSTORE DUP1 PUSH1 0x0 MSTORE PUSH1 0x40 PUSH1 0x0 KECCAK256 PUSH1 0x0 SWAP2 POP SWAP1 POP DUP1 PUSH1 0x0 ADD SLOAD SWAP1 DUP1 PUSH1 0x1 ADD SLOAD SWAP1 DUP1 PUSH1 0x2 ADD DUP1 SLOAD PUSH2 0x10C0 SWAP1 PUSH2 0x5274 JUMP JUMPDEST DUP1 PUSH1 0x1F ADD PUSH1 0x20 DUP1 SWAP2 DIV MUL PUSH1 0x20 ADD PUSH1 0x40 MLOAD SWAP1 DUP2 ADD PUSH1 0x40 MSTORE DUP1 SWAP3 SWAP2 SWAP1 DUP2 DUP2 MSTORE PUSH1 0x20 ADD DUP3 DUP1 SLOAD PUSH2 0x10EC SWAP1 PUSH2 0x5274 JUMP JUMPDEST DUP1 ISZERO PUSH2 0x1139 JUMPI DUP1 PUSH1 0x1F LT PUSH2 0x110E JUMPI PUSH2 0x100 DUP1 DUP4 SLOAD DIV MUL DUP4 MSTORE SWAP2 PUSH1 0x20 ADD SWAP2 PUSH2 0x1139 JUMP JUMPDEST DUP3 ADD SWAP2 SWAP1 PUSH1 0x0 MSTORE PUSH1 0x20 PUSH1 0x0 KECCAK256 SWAP1 JUMPDEST DUP2 SLOAD DUP2 MSTORE SWAP1 PUSH1 0x1 ADD SWAP1 PUSH1 0x20 ADD DUP1 DUP4 GT PUSH2 0x111C JUMPI DUP3 SWAP1 SUB PUSH1 0x1F AND DUP3 ADD SWAP2 JUMPDEST POP POP POP POP POP SWAP1 DUP1 PUSH1 0x3 ADD PUSH1 0x40 MLOAD DUP1 PUSH1 0x40 ADD PUSH1 0x40 MSTORE SWAP1 DUP2 PUSH1 0x0 DUP3 ADD SLOAD DUP2 MSTORE PUSH1 0x20 ADD PUSH1 0x1 DUP3 ADD SLOAD DUP2 MSTORE POP POP SWAP1 DUP1 PUSH1 0x5 ADD DUP1 SLOAD PUSH2 0x1172 SWAP1 PUSH2 0x5274 JUMP JUMPDEST DUP1 PUSH1 0x1F ADD PUSH1 0x20 DUP1 SWAP2 DIV MUL PUSH1 0x20 ADD PUSH1 0x40 MLOAD SWAP1 DUP2 ADD PUSH1 0x40 MSTORE DUP1 SWAP3 SWAP2 SWAP1 DUP2 DUP2 MSTORE PUSH1 0x20 ADD DUP3 DUP1 SLOAD PUSH2 0x119E SWAP1 PUSH2 0x5274 JUMP JUMPDEST DUP1 ISZERO PUSH2 0x11EB JUMPI DUP1 PUSH1 0x1F LT PUSH2 0x11C0 JUMPI PUSH2 0x100 DUP1 DUP4 SLOAD DIV MUL DUP4 MSTORE SWAP2 PUSH1 0x20 ADD SWAP2 PUSH2 0x11EB JUMP JUMPDEST DUP3 ADD SWAP2 SWAP1 PUSH1 0x0 MSTORE PUSH1 0x20 PUSH1 0x0 KECCAK256 SWAP1 JUMPDEST DUP2 SLOAD DUP2 MSTORE SWAP1 PUSH1 0x1 ADD SWAP1 PUSH1 0x20 ADD DUP1 DUP4 GT PUSH2 0x11CE JUMPI DUP3 SWAP1 SUB PUSH1 0x1F AND DUP3 ADD SWAP2 JUMPDEST POP POP POP POP POP SWAP1 DUP1 PUSH1 0x6 ADD DUP1 SLOAD PUSH2 0x1200 SWAP1 PUSH2 0x5274 JUMP JUMPDEST DUP1 PUSH1 0x1F ADD PUSH1 0x20 DUP1 SWAP2 DIV MUL PUSH1 0x20 ADD PUSH1 0x40 MLOAD SWAP1 DUP2 ADD PUSH1 0x40 MSTORE DUP1 SWAP3 SWAP2 SWAP1 DUP2 DUP2 MSTORE PUSH1 0x20 ADD DUP3 DUP1 SLOAD PUSH2 0x122C SWAP1 PUSH2 0x5274 JUMP JUMPDEST DUP1 ISZERO PUSH2 0x1279 JUMPI DUP1 PUSH1 0x1F LT PUSH2 0x124E JUMPI PUSH2 0x100 DUP1 DUP4 SLOAD DIV MUL DUP4 MSTORE SWAP2 PUSH1 0x20 ADD SWAP2 PUSH2 0x1279 JUMP JUMPDEST DUP3 ADD SWAP2 SWAP1 PUSH1 0x0 MSTORE PUSH1 0x20 PUSH1 0x0 KECCAK256 SWAP1 JUMPDEST DUP2 SLOAD DUP2 MSTORE SWAP1 PUSH1 0x1 ADD SWAP1 PUSH1 0x20 ADD DUP1 DUP4 GT PUSH2 0x125C JUMPI DUP3 SWAP1 SUB PUSH1 0x1F AND DUP3 ADD SWAP2 JUMPDEST POP POP POP POP POP SWAP1 DUP1 PUSH1 0x7 ADD PUSH1 0x40 MLOAD DUP1 PUSH1 0x20 ADD PUSH1 0x40 MSTORE SWAP1 DUP2 PUSH1 0x0 DUP3 ADD SLOAD DUP2 MSTORE POP POP SWAP1 POP DUP8 JUMP JUMPDEST PUSH1 0x3 PUSH1 0x0 SWAP1 SLOAD SWAP1 PUSH2 0x100 EXP SWAP1 DIV PUSH1 0xFF AND ISZERO PUSH2 0x12ED JUMPI PUSH1 0x40 MLOAD PUSH32 0x8C379A000000000000000000000000000000000000000000000000000000000 DUP2 MSTORE PUSH1 0x4 ADD PUSH2 0x12E4 SWAP1 PUSH2 0x5349 JUMP JUMPDEST PUSH1 0x40 MLOAD DUP1 SWAP2 SUB SWAP1 REVERT JUMPDEST PUSH1 0x0 DUP3 GT DUP1 ISZERO PUSH2 0x12FF JUMPI POP PUSH1 0x1 SLOAD DUP3 GT ISZERO JUMPDEST PUSH2 0x133E JUMPI PUSH1 0x40 MLOAD PUSH32 0x8C379A000000000000000000000000000000000000000000000000000000000 DUP2 MSTORE PUSH1 0x4 ADD PUSH2 0x1335 SWAP1 PUSH2 0x53B5 JUMP JUMPDEST PUSH1 0x40 MLOAD DUP1 SWAP2 SUB SWAP1 REVERT JUMPDEST PUSH1 0x40 MLOAD DUP1 PUSH1 0x20 ADD PUSH1 0x40 MSTORE DUP1 TIMESTAMP DUP2 MSTORE POP DUP2 PUSH1 0xA0 ADD DUP2 SWAP1 MSTORE POP DUP1 PUSH1 0x4 PUSH1 0x0 DUP5 DUP2 MSTORE PUSH1 0x20 ADD SWAP1 DUP2 MSTORE PUSH1 0x20 ADD PUSH1 0x0 KECCAK256 PUSH1 0x5 ADD PUSH1 0x0 DUP3 ADD MLOAD DUP2 PUSH1 0x0 ADD SSTORE PUSH1 0x20 DUP3 ADD MLOAD DUP2 PUSH1 0x1 ADD SSTORE PUSH1 0x40 DUP3 ADD MLOAD DUP2 PUSH1 0x2 ADD SSTORE PUSH1 0x60 DUP3 ADD MLOAD DUP2 PUSH1 0x3 ADD SSTORE PUSH1 0x80 DUP3 ADD MLOAD DUP2 PUSH1 0x4 ADD SSTORE PUSH1 0xA0 DUP3 ADD MLOAD DUP2 PUSH1 0x5 ADD PUSH1 0x0 DUP3 ADD MLOAD DUP2 PUSH1 0x0 ADD SSTORE POP POP SWAP1 POP POP POP POP JUMP JUMPDEST PUSH1 0x3 PUSH1 0x0 SWAP1 SLOAD SWAP1 PUSH2 0x100 EXP SWAP1 DIV PUSH1 0xFF AND ISZERO PUSH2 0x140A JUMPI PUSH1 0x40 MLOAD PUSH32 0x8C379A000000000000000000000000000000000000000000000000000000000 DUP2 MSTORE PUSH1 0x4 ADD PUSH2 0x1401 SWAP1 PUSH2 0x5349 JUMP JUMPDEST PUSH1 0x40 MLOAD DUP1 SWAP2 SUB SWAP1 REVERT JUMPDEST PUSH1 0x0 DUP3 GT DUP1 ISZERO PUSH2 0x141C JUMPI POP PUSH1 0x2 SLOAD DUP3 GT ISZERO JUMPDEST PUSH2 0x145B JUMPI PUSH1 0x40 MLOAD PUSH32 0x8C379A000000000000000000000000000000000000000000000000000000000 DUP2 MSTORE PUSH1 0x4 ADD PUSH2 0x1452 SWAP1 PUSH2 0x5225 JUMP JUMPDEST PUSH1 0x40 MLOAD DUP1 SWAP2 SUB SWAP1 REVERT JUMPDEST PUSH1 0x0 DUP1 SLOAD SWAP1 PUSH2 0x100 EXP SWAP1 DIV PUSH20 0xFFFFFFFFFFFFFFFFFFFFFFFFFFFFFFFFFFFFFFFF AND PUSH20 0xFFFFFFFFFFFFFFFFFFFFFFFFFFFFFFFFFFFFFFFF AND CALLER PUSH20 0xFFFFFFFFFFFFFFFFFFFFFFFFFFFFFFFFFFFFFFFF AND EQ PUSH2 0x14FB JUMPI CALLER PUSH20 0xFFFFFFFFFFFFFFFFFFFFFFFFFFFFFFFFFFFFFFFF AND PUSH32 0x168164F3DA86521DBAF859C50A68CF332B8097ABD188C8991B1A225FE04D77A9 PUSH1 0x40 MLOAD PUSH2 0x14F2 SWAP1 PUSH2 0x569F JUMP JUMPDEST PUSH1 0x40 MLOAD DUP1 SWAP2 SUB SWAP1 LOG2 JUMPDEST DUP1 PUSH1 0x5 PUSH1 0x0 DUP5 DUP2 MSTORE PUSH1 0x20 ADD SWAP1 DUP2 MSTORE PUSH1 0x20 ADD PUSH1 0x0 KECCAK256 PUSH1 0x2 ADD SWAP1 DUP2 PUSH2 0x151E SWAP2 SWAP1 PUSH2 0x5581 JUMP JUMPDEST POP PUSH1 0x6 PUSH1 0x0 DUP4 DUP2 MSTORE PUSH1 0x20 ADD SWAP1 DUP2 MSTORE PUSH1 0x20 ADD PUSH1 0x0 KECCAK256 PUSH1 0x40 MLOAD DUP1 PUSH1 0x60 ADD PUSH1 0x40 MSTORE DUP1 DUP5 DUP2 MSTORE PUSH1 0x20 ADD DUP4 DUP2 MSTORE PUSH1 0x20 ADD PUSH1 0x40 MLOAD DUP1 PUSH1 0x20 ADD PUSH1 0x40 MSTORE DUP1 TIMESTAMP DUP2 MSTORE POP DUP2 MSTORE POP SWAP1 DUP1 PUSH1 0x1 DUP2 SLOAD ADD DUP1 DUP3 SSTORE DUP1 SWAP2 POP POP PUSH1 0x1 SWAP1 SUB SWAP1 PUSH1 0x0 MSTORE PUSH1 0x20 PUSH1 0x0 KECCAK256 SWAP1 PUSH1 0x3 MUL ADD PUSH1 0x0 SWAP1 SWAP2 SWAP1 SWAP2 SWAP1 SWAP2 POP PUSH1 0x0 DUP3 ADD MLOAD DUP2 PUSH1 0x0 ADD SSTORE PUSH1 0x20 DUP3 ADD MLOAD DUP2 PUSH1 0x1 ADD SWAP1 DUP2 PUSH2 0x15A3 SWAP2 SWAP1 PUSH2 0x5581 JUMP JUMPDEST POP PUSH1 0x40 DUP3 ADD MLOAD DUP2 PUSH1 0x2 ADD PUSH1 0x0 DUP3 ADD MLOAD DUP2 PUSH1 0x0 ADD SSTORE POP POP POP POP POP POP JUMP JUMPDEST PUSH2 0x15C7 PUSH2 0x3B6C JUMP JUMPDEST PUSH1 0x0 DUP3 GT DUP1 ISZERO PUSH2 0x15D9 JUMPI POP PUSH1 0x1 SLOAD DUP3 GT ISZERO JUMPDEST PUSH2 0x1618 JUMPI PUSH1 0x40 MLOAD PUSH32 0x8C379A000000000000000000000000000000000000000000000000000000000 DUP2 MSTORE PUSH1 0x4 ADD PUSH2 0x160F SWAP1 PUSH2 0x53B5 JUMP JUMPDEST PUSH1 0x40 MLOAD DUP1 SWAP2 SUB SWAP1 REVERT JUMPDEST PUSH1 0x4 PUSH1 0x0 DUP4 DUP2 MSTORE PUSH1 0x20 ADD SWAP1 DUP2 MSTORE PUSH1 0x20 ADD PUSH1 0x0 KECCAK256 PUSH1 0x40 MLOAD DUP1 PUSH1 0xE0 ADD PUSH1 0x40 MSTORE SWAP1 DUP2 PUSH1 0x0 DUP3 ADD SLOAD DUP2 MSTORE PUSH1 0x20 ADD PUSH1 0x1 DUP3 ADD DUP1 SLOAD PUSH2 0x1650 SWAP1 PUSH2 0x5274 JUMP JUMPDEST DUP1 PUSH1 0x1F ADD PUSH1 0x20 DUP1 SWAP2 DIV MUL PUSH1 0x20 ADD PUSH1 0x40 MLOAD SWAP1 DUP2 ADD PUSH1 0x40 MSTORE DUP1 SWAP3 SWAP2 SWAP1 DUP2 DUP2 MSTORE PUSH1 0x20 ADD DUP3 DUP1 SLOAD PUSH2 0x167C SWAP1 PUSH2 0x5274 JUMP JUMPDEST DUP1 ISZERO PUSH2 0x16C9 JUMPI DUP1 PUSH1 0x1F LT PUSH2 0x169E JUMPI PUSH2 0x100 DUP1 DUP4 SLOAD DIV MUL DUP4 MSTORE SWAP2 PUSH1 0x20 ADD SWAP2 PUSH2 0x16C9 JUMP JUMPDEST DUP3 ADD SWAP2 SWAP1 PUSH1 0x0 MSTORE PUSH1 0x20 PUSH1 0x0 KECCAK256 SWAP1 JUMPDEST DUP2 SLOAD DUP2 MSTORE SWAP1 PUSH1 0x1 ADD SWAP1 PUSH1 0x20 ADD DUP1 DUP4 GT PUSH2 0x16AC JUMPI DUP3 SWAP1 SUB PUSH1 0x1F AND DUP3 ADD SWAP2 JUMPDEST POP POP POP POP POP DUP2 MSTORE PUSH1 0x20 ADD PUSH1 0x2 DUP3 ADD PUSH1 0x40 MLOAD DUP1 PUSH1 0x40 ADD PUSH1 0x40 MSTORE SWAP1 DUP2 PUSH1 0x0 DUP3 ADD SLOAD DUP2 MSTORE PUSH1 0x20 ADD PUSH1 0x1 DUP3 ADD SLOAD DUP2 MSTORE POP POP DUP2 MSTORE PUSH1 0x20 ADD PUSH1 0x4 DUP3 ADD DUP1 SLOAD PUSH2 0x170A SWAP1 PUSH2 0x5274 JUMP JUMPDEST DUP1 PUSH1 0x1F ADD PUSH1 0x20 DUP1 SWAP2 DIV MUL PUSH1 0x20 ADD PUSH1 0x40 MLOAD SWAP1 DUP2 ADD PUSH1 0x40 MSTORE DUP1 SWAP3 SWAP2 SWAP1 DUP2 DUP2 MSTORE PUSH1 0x20 ADD DUP3 DUP1 SLOAD PUSH2 0x1736 SWAP1 PUSH2 0x5274 JUMP JUMPDEST DUP1 ISZERO PUSH2 0x1783 JUMPI DUP1 PUSH1 0x1F LT PUSH2 0x1758 JUMPI PUSH2 0x100 DUP1 DUP4 SLOAD DIV MUL DUP4 MSTORE SWAP2 PUSH1 0x20 ADD SWAP2 PUSH2 0x1783 JUMP JUMPDEST DUP3 ADD SWAP2 SWAP1 PUSH1 0x0 MSTORE PUSH1 0x20 PUSH1 0x0 KECCAK256 SWAP1 JUMPDEST DUP2 SLOAD DUP2 MSTORE SWAP1 PUSH1 0x1 ADD SWAP1 PUSH1 0x20 ADD DUP1 DUP4 GT PUSH2 0x1766 JUMPI DUP3 SWAP1 SUB PUSH1 0x1F AND DUP3 ADD SWAP2 JUMPDEST POP POP POP POP POP DUP2 MSTORE PUSH1 0x20 ADD PUSH1 0x5 DUP3 ADD PUSH1 0x40 MLOAD DUP1 PUSH1 0xC0 ADD PUSH1 0x40 MSTORE SWAP1 DUP2 PUSH1 0x0 DUP3 ADD SLOAD DUP2 MSTORE PUSH1 0x20 ADD PUSH1 0x1 DUP3 ADD SLOAD DUP2 MSTORE PUSH1 0x20 ADD PUSH1 0x2 DUP3 ADD SLOAD DUP2 MSTORE PUSH1 0x20 ADD PUSH1 0x3 DUP3 ADD SLOAD DUP2 MSTORE PUSH1 0x20 ADD PUSH1 0x4 DUP3 ADD SLOAD DUP2 MSTORE PUSH1 0x20 ADD PUSH1 0x5 DUP3 ADD PUSH1 0x40 MLOAD DUP1 PUSH1 0x20 ADD PUSH1 0x40 MSTORE SWAP1 DUP2 PUSH1 0x0 DUP3 ADD SLOAD DUP2 MSTORE POP POP DUP2 MSTORE POP POP DUP2 MSTORE PUSH1 0x20 ADD PUSH1 0xB DUP3 ADD DUP1 SLOAD PUSH2 0x1800 SWAP1 PUSH2 0x5274 JUMP JUMPDEST DUP1 PUSH1 0x1F ADD PUSH1 0x20 DUP1 SWAP2 DIV MUL PUSH1 0x20 ADD PUSH1 0x40 MLOAD SWAP1 DUP2 ADD PUSH1 0x40 MSTORE DUP1 SWAP3 SWAP2 SWAP1 DUP2 DUP2 MSTORE PUSH1 0x20 ADD DUP3 DUP1 SLOAD PUSH2 0x182C SWAP1 PUSH2 0x5274 JUMP JUMPDEST DUP1 ISZERO PUSH2 0x1879 JUMPI DUP1 PUSH1 0x1F LT PUSH2 0x184E JUMPI PUSH2 0x100 DUP1 DUP4 SLOAD DIV MUL DUP4 MSTORE SWAP2 PUSH1 0x20 ADD SWAP2 PUSH2 0x1879 JUMP JUMPDEST DUP3 ADD SWAP2 SWAP1 PUSH1 0x0 MSTORE PUSH1 0x20 PUSH1 0x0 KECCAK256 SWAP1 JUMPDEST DUP2 SLOAD DUP2 MSTORE SWAP1 PUSH1 0x1 ADD SWAP1 PUSH1 0x20 ADD DUP1 DUP4 GT PUSH2 0x185C JUMPI DUP3 SWAP1 SUB PUSH1 0x1F AND DUP3 ADD SWAP2 JUMPDEST POP POP POP POP POP DUP2 MSTORE PUSH1 0x20 ADD PUSH1 0xC DUP3 ADD PUSH1 0x40 MLOAD DUP1 PUSH1 0x20 ADD PUSH1 0x40 MSTORE SWAP1 DUP2 PUSH1 0x0 DUP3 ADD SLOAD DUP2 MSTORE POP POP DUP2 MSTORE POP POP SWAP1 POP SWAP2 SWAP1 POP JUMP JUMPDEST PUSH1 0x6 PUSH1 0x20 MSTORE DUP2 PUSH1 0x0 MSTORE PUSH1 0x40 PUSH1 0x0 KECCAK256 DUP2 DUP2 SLOAD DUP2 LT PUSH2 0x18C3 JUMPI PUSH1 0x0 DUP1 REVERT JUMPDEST SWAP1 PUSH1 0x0 MSTORE PUSH1 0x20 PUSH1 0x0 KECCAK256 SWAP1 PUSH1 0x3 MUL ADD PUSH1 0x0 SWAP2 POP SWAP2 POP POP DUP1 PUSH1 0x0 ADD SLOAD SWAP1 DUP1 PUSH1 0x1 ADD DUP1 SLOAD PUSH2 0x18ED SWAP1 PUSH2 0x5274 JUMP JUMPDEST DUP1 PUSH1 0x1F ADD PUSH1 0x20 DUP1 SWAP2 DIV MUL PUSH1 0x20 ADD PUSH1 0x40 MLOAD SWAP1 DUP2 ADD PUSH1 0x40 MSTORE DUP1 SWAP3 SWAP2 SWAP1 DUP2 DUP2 MSTORE PUSH1 0x20 ADD DUP3 DUP1 SLOAD PUSH2 0x1919 SWAP1 PUSH2 0x5274 JUMP JUMPDEST DUP1 ISZERO PUSH2 0x1966 JUMPI DUP1 PUSH1 0x1F LT PUSH2 0x193B JUMPI PUSH2 0x100 DUP1 DUP4 SLOAD DIV MUL DUP4 MSTORE SWAP2 PUSH1 0x20 ADD SWAP2 PUSH2 0x1966 JUMP JUMPDEST DUP3 ADD SWAP2 SWAP1 PUSH1 0x0 MSTORE PUSH1 0x20 PUSH1 0x0 KECCAK256 SWAP1 JUMPDEST DUP2 SLOAD DUP2 MSTORE SWAP1 PUSH1 0x1 ADD SWAP1 PUSH1 0x20 ADD DUP1 DUP4 GT PUSH2 0x1949 JUMPI DUP3 SWAP1 SUB PUSH1 0x1F AND DUP3 ADD SWAP2 JUMPDEST POP POP POP POP POP SWAP1 DUP1 PUSH1 0x2 ADD PUSH1 0x40 MLOAD DUP1 PUSH1 0x20 ADD PUSH1 0x40 MSTORE SWAP1 DUP2 PUSH1 0x0 DUP3 ADD SLOAD DUP2 MSTORE POP POP SWAP1 POP DUP4 JUMP JUMPDEST PUSH1 0xB PUSH1 0x0 DUP2 SLOAD DUP1 SWAP3 SWAP2 SWAP1 PUSH2 0x199D SWAP1 PUSH2 0x56BF JUMP JUMPDEST SWAP2 SWAP1 POP SSTORE POP PUSH1 0x0 PUSH1 0x40 MLOAD DUP1 PUSH1 0x20 ADD PUSH1 0x40 MSTORE DUP1 TIMESTAMP DUP2 MSTORE POP SWAP1 POP PUSH1 0x40 MLOAD DUP1 PUSH1 0xA0 ADD PUSH1 0x40 MSTORE DUP1 PUSH1 0xB SLOAD DUP2 MSTORE PUSH1 0x20 ADD DUP6 DUP2 MSTORE PUSH1 0x20 ADD DUP5 DUP2 MSTORE PUSH1 0x20 ADD DUP4 DUP2 MSTORE PUSH1 0x20 ADD DUP3 DUP2 MSTORE POP PUSH1 0x9 PUSH1 0x0 PUSH1 0xB SLOAD DUP2 MSTORE PUSH1 0x20 ADD SWAP1 DUP2 MSTORE PUSH1 0x20 ADD PUSH1 0x0 KECCAK256 PUSH1 0x0 DUP3 ADD MLOAD DUP2 PUSH1 0x0 ADD SSTORE PUSH1 0x20 DUP3 ADD MLOAD DUP2 PUSH1 0x1 ADD SWAP1 DUP2 PUSH2 0x1A12 SWAP2 SWAP1 PUSH2 0x5581 JUMP JUMPDEST POP PUSH1 0x40 DUP3 ADD MLOAD DUP2 PUSH1 0x2 ADD SSTORE PUSH1 0x60 DUP3 ADD MLOAD DUP2 PUSH1 0x3 ADD SSTORE PUSH1 0x80 DUP3 ADD MLOAD DUP2 PUSH1 0x4 ADD PUSH1 0x0 DUP3 ADD MLOAD DUP2 PUSH1 0x0 ADD SSTORE POP POP SWAP1 POP POP PUSH32 0x53D9E4A0097096AF7EFF3C7E78FDBF76884FCBFCA3CAEAEC979773DEA650399D PUSH1 0xB SLOAD DUP6 DUP4 PUSH1 0x40 MLOAD PUSH2 0x1A74 SWAP4 SWAP3 SWAP2 SWAP1 PUSH2 0x461A JUMP JUMPDEST PUSH1 0x40 MLOAD DUP1 SWAP2 SUB SWAP1 LOG1 POP POP POP POP JUMP JUMPDEST PUSH1 0x3 PUSH1 0x0 SWAP1 SLOAD SWAP1 PUSH2 0x100 EXP SWAP1 DIV PUSH1 0xFF AND DUP2 JUMP JUMPDEST PUSH1 0x0 PUSH1 0x4 PUSH1 0x0 DUP4 DUP2 MSTORE PUSH1 0x20 ADD SWAP1 DUP2 MSTORE PUSH1 0x20 ADD PUSH1 0x0 KECCAK256 SWAP1 POP PUSH32 0xFFFFFFFFFFFFFFFFFFFFFFFFFFFFFFFFFFFFFFFFFFFFFFFFFFFFFFFFFFFFFFFB DUP2 PUSH1 0x5 ADD PUSH1 0x0 ADD SLOAD SLT ISZERO PUSH2 0x1B12 JUMPI DUP2 PUSH32 0xC631F0E01F88F1DFAA87717772CF1C289EAD3F941FF55B9260F7639E442B857 PUSH1 0x40 MLOAD PUSH2 0x1B09 SWAP1 PUSH2 0x5753 JUMP JUMPDEST PUSH1 0x40 MLOAD DUP1 SWAP2 SUB SWAP1 LOG2 JUMPDEST POP POP JUMP JUMPDEST PUSH1 0x60 PUSH1 0x0 PUSH1 0x2 SLOAD PUSH1 0x1 SLOAD PUSH2 0x1B2A SWAP2 SWAP1 PUSH2 0x5773 JUMP JUMPDEST PUSH8 0xFFFFFFFFFFFFFFFF DUP2 GT ISZERO PUSH2 0x1B43 JUMPI PUSH2 0x1B42 PUSH2 0x40A2 JUMP JUMPDEST JUMPDEST PUSH1 0x40 MLOAD SWAP1 DUP1 DUP3 MSTORE DUP1 PUSH1 0x20 MUL PUSH1 0x20 ADD DUP3 ADD PUSH1 0x40 MSTORE DUP1 ISZERO PUSH2 0x1B76 JUMPI DUP2 PUSH1 0x20 ADD JUMPDEST PUSH1 0x60 DUP2 MSTORE PUSH1 0x20 ADD SWAP1 PUSH1 0x1 SWAP1 SUB SWAP1 DUP2 PUSH2 0x1B61 JUMPI SWAP1 POP JUMPDEST POP SWAP1 POP PUSH1 0x0 DUP1 PUSH1 0x1 SWAP1 POP JUMPDEST PUSH1 0x1 SLOAD DUP2 GT PUSH2 0x1BFF JUMPI PUSH1 0x40 MLOAD DUP1 PUSH1 0x40 ADD PUSH1 0x40 MSTORE DUP1 PUSH1 0x13 DUP2 MSTORE PUSH1 0x20 ADD PUSH32 0x526567697374726F2064652073656D696C6C6100000000000000000000000000 DUP2 MSTORE POP DUP4 DUP4 DUP2 MLOAD DUP2 LT PUSH2 0x1BD3 JUMPI PUSH2 0x1BD2 PUSH2 0x57A7 JUMP JUMPDEST JUMPDEST PUSH1 0x20 MUL PUSH1 0x20 ADD ADD DUP2 SWAP1 MSTORE POP DUP2 DUP1 PUSH2 0x1BE9 SWAP1 PUSH2 0x56BF JUMP JUMPDEST SWAP3 POP POP DUP1 DUP1 PUSH2 0x1BF7 SWAP1 PUSH2 0x56BF JUMP JUMPDEST SWAP2 POP POP PUSH2 0x1B81 JUMP JUMPDEST POP PUSH1 0x0 PUSH1 0x1 SWAP1 POP JUMPDEST PUSH1 0x2 SLOAD DUP2 GT PUSH2 0x1C85 JUMPI PUSH1 0x40 MLOAD DUP1 PUSH1 0x40 ADD PUSH1 0x40 MSTORE DUP1 PUSH1 0x12 DUP2 MSTORE PUSH1 0x20 ADD PUSH32 0x526567697374726F20646520706C616E74610000000000000000000000000000 DUP2 MSTORE POP DUP4 DUP4 DUP2 MLOAD DUP2 LT PUSH2 0x1C59 JUMPI PUSH2 0x1C58 PUSH2 0x57A7 JUMP JUMPDEST JUMPDEST PUSH1 0x20 MUL PUSH1 0x20 ADD ADD DUP2 SWAP1 MSTORE POP DUP2 DUP1 PUSH2 0x1C6F SWAP1 PUSH2 0x56BF JUMP JUMPDEST SWAP3 POP POP DUP1 DUP1 PUSH2 0x1C7D SWAP1 PUSH2 0x56BF JUMP JUMPDEST SWAP2 POP POP PUSH2 0x1C07 JUMP JUMPDEST POP DUP2 SWAP3 POP POP POP SWAP1 JUMP JUMPDEST PUSH1 0x0 DUP1 SLOAD SWAP1 PUSH2 0x100 EXP SWAP1 DIV PUSH20 0xFFFFFFFFFFFFFFFFFFFFFFFFFFFFFFFFFFFFFFFF AND PUSH20 0xFFFFFFFFFFFFFFFFFFFFFFFFFFFFFFFFFFFFFFFF AND CALLER PUSH20 0xFFFFFFFFFFFFFFFFFFFFFFFFFFFFFFFFFFFFFFFF AND EQ PUSH2 0x1D68 JUMPI CALLER PUSH20 0xFFFFFFFFFFFFFFFFFFFFFFFFFFFFFFFFFFFFFFFF AND PUSH32 0x1BDB0A42F6061B7B08AE342C42472613D878CF5EE160DA7733D223B4234490C2 PUSH1 0x40 MLOAD PUSH2 0x1D25 SWAP1 PUSH2 0x5095 JUMP JUMPDEST PUSH1 0x40 MLOAD DUP1 SWAP2 SUB SWAP1 LOG2 PUSH1 0x40 MLOAD PUSH32 0x8C379A000000000000000000000000000000000000000000000000000000000 DUP2 MSTORE PUSH1 0x4 ADD PUSH2 0x1D5F SWAP1 PUSH2 0x5127 JUMP JUMPDEST PUSH1 0x40 MLOAD DUP1 SWAP2 SUB SWAP1 REVERT JUMPDEST PUSH1 0x1 PUSH1 0x7 PUSH1 0x0 DUP4 PUSH20 0xFFFFFFFFFFFFFFFFFFFFFFFFFFFFFFFFFFFFFFFF AND PUSH20 0xFFFFFFFFFFFFFFFFFFFFFFFFFFFFFFFFFFFFFFFF AND DUP2 MSTORE PUSH1 0x20 ADD SWAP1 DUP2 MSTORE PUSH1 0x20 ADD PUSH1 0x0 KECCAK256 PUSH1 0x0 PUSH2 0x100 EXP DUP2 SLOAD DUP2 PUSH1 0xFF MUL NOT AND SWAP1 DUP4 ISZERO ISZERO MUL OR SWAP1 SSTORE POP POP JUMP JUMPDEST PUSH1 0xA SLOAD DUP2 JUMP JUMPDEST PUSH1 0x0 DUP1 SLOAD SWAP1 PUSH2 0x100 EXP SWAP1 DIV PUSH20 0xFFFFFFFFFFFFFFFFFFFFFFFFFFFFFFFFFFFFFFFF AND PUSH20 0xFFFFFFFFFFFFFFFFFFFFFFFFFFFFFFFFFFFFFFFF AND CALLER PUSH20 0xFFFFFFFFFFFFFFFFFFFFFFFFFFFFFFFFFFFFFFFF AND EQ PUSH2 0x1EA3 JUMPI CALLER PUSH20 0xFFFFFFFFFFFFFFFFFFFFFFFFFFFFFFFFFFFFFFFF AND PUSH32 0x1BDB0A42F6061B7B08AE342C42472613D878CF5EE160DA7733D223B4234490C2 PUSH1 0x40 MLOAD PUSH2 0x1E60 SWAP1 PUSH2 0x5095 JUMP JUMPDEST PUSH1 0x40 MLOAD DUP1 SWAP2 SUB SWAP1 LOG2 PUSH1 0x40 MLOAD PUSH32 0x8C379A000000000000000000000000000000000000000000000000000000000 DUP2 MSTORE PUSH1 0x4 ADD PUSH2 0x1E9A SWAP1 PUSH2 0x5127 JUMP JUMPDEST PUSH1 0x40 MLOAD DUP1 SWAP2 SUB SWAP1 REVERT JUMPDEST PUSH1 0x1 PUSH1 0x3 PUSH1 0x0 PUSH2 0x100 EXP DUP2 SLOAD DUP2 PUSH1 0xFF MUL NOT AND SWAP1 DUP4 ISZERO ISZERO MUL OR SWAP1 SSTORE POP JUMP JUMPDEST PUSH2 0x1EC8 PUSH2 0x3BBB JUMP JUMPDEST PUSH1 0x0 PUSH1 0x6 PUSH1 0x0 DUP5 DUP2 MSTORE PUSH1 0x20 ADD SWAP1 DUP2 MSTORE PUSH1 0x20 ADD PUSH1 0x0 KECCAK256 DUP1 SLOAD SWAP1 POP GT PUSH2 0x1F21 JUMPI PUSH1 0x40 MLOAD PUSH32 0x8C379A000000000000000000000000000000000000000000000000000000000 DUP2 MSTORE PUSH1 0x4 ADD PUSH2 0x1F18 SWAP1 PUSH2 0x5848 JUMP JUMPDEST PUSH1 0x40 MLOAD DUP1 SWAP2 SUB SWAP1 REVERT JUMPDEST PUSH1 0x6 PUSH1 0x0 DUP4 DUP2 MSTORE PUSH1 0x20 ADD SWAP1 DUP2 MSTORE PUSH1 0x20 ADD PUSH1 0x0 KECCAK256 PUSH1 0x1 PUSH1 0x6 PUSH1 0x0 DUP6 DUP2 MSTORE PUSH1 0x20 ADD SWAP1 DUP2 MSTORE PUSH1 0x20 ADD PUSH1 0x0 KECCAK256 DUP1 SLOAD SWAP1 POP PUSH2 0x1F57 SWAP2 SWAP1 PUSH2 0x5868 JUMP JUMPDEST DUP2 SLOAD DUP2 LT PUSH2 0x1F68 JUMPI PUSH2 0x1F67 PUSH2 0x57A7 JUMP JUMPDEST JUMPDEST SWAP1 PUSH1 0x0 MSTORE PUSH1 0x20 PUSH1 0x0 KECCAK256 SWAP1 PUSH1 0x3 MUL ADD PUSH1 0x40 MLOAD DUP1 PUSH1 0x60 ADD PUSH1 0x40 MSTORE SWAP1 DUP2 PUSH1 0x0 DUP3 ADD SLOAD DUP2 MSTORE PUSH1 0x20 ADD PUSH1 0x1 DUP3 ADD DUP1 SLOAD PUSH2 0x1F9B SWAP1 PUSH2 0x5274 JUMP JUMPDEST DUP1 PUSH1 0x1F ADD PUSH1 0x20 DUP1 SWAP2 DIV MUL PUSH1 0x20 ADD PUSH1 0x40 MLOAD SWAP1 DUP2 ADD PUSH1 0x40 MSTORE DUP1 SWAP3 SWAP2 SWAP1 DUP2 DUP2 MSTORE PUSH1 0x20 ADD DUP3 DUP1 SLOAD PUSH2 0x1FC7 SWAP1 PUSH2 0x5274 JUMP JUMPDEST DUP1 ISZERO PUSH2 0x2014 JUMPI DUP1 PUSH1 0x1F LT PUSH2 0x1FE9 JUMPI PUSH2 0x100 DUP1 DUP4 SLOAD DIV MUL DUP4 MSTORE SWAP2 PUSH1 0x20 ADD SWAP2 PUSH2 0x2014 JUMP JUMPDEST DUP3 ADD SWAP2 SWAP1 PUSH1 0x0 MSTORE PUSH1 0x20 PUSH1 0x0 KECCAK256 SWAP1 JUMPDEST DUP2 SLOAD DUP2 MSTORE SWAP1 PUSH1 0x1 ADD SWAP1 PUSH1 0x20 ADD DUP1 DUP4 GT PUSH2 0x1FF7 JUMPI DUP3 SWAP1 SUB PUSH1 0x1F AND DUP3 ADD SWAP2 JUMPDEST POP POP POP POP POP DUP2 MSTORE PUSH1 0x20 ADD PUSH1 0x2 DUP3 ADD PUSH1 0x40 MLOAD DUP1 PUSH1 0x20 ADD PUSH1 0x40 MSTORE SWAP1 DUP2 PUSH1 0x0 DUP3 ADD SLOAD DUP2 MSTORE POP POP DUP2 MSTORE POP POP SWAP1 POP SWAP2 SWAP1 POP JUMP JUMPDEST PUSH1 0x0 DUP1 SLOAD SWAP1 PUSH2 0x100 EXP SWAP1 DIV PUSH20 0xFFFFFFFFFFFFFFFFFFFFFFFFFFFFFFFFFFFFFFFF AND DUP2 JUMP JUMPDEST PUSH1 0x3 PUSH1 0x0 SWAP1 SLOAD SWAP1 PUSH2 0x100 EXP SWAP1 DIV PUSH1 0xFF AND ISZERO PUSH2 0x20B6 JUMPI PUSH1 0x40 MLOAD PUSH32 0x8C379A000000000000000000000000000000000000000000000000000000000 DUP2 MSTORE PUSH1 0x4 ADD PUSH2 0x20AD SWAP1 PUSH2 0x5349 JUMP JUMPDEST PUSH1 0x40 MLOAD DUP1 SWAP2 SUB SWAP1 REVERT JUMPDEST PUSH1 0x0 DUP5 GT DUP1 ISZERO PUSH2 0x20C8 JUMPI POP PUSH1 0x1 SLOAD DUP5 GT ISZERO JUMPDEST PUSH2 0x2107 JUMPI PUSH1 0x40 MLOAD PUSH32 0x8C379A000000000000000000000000000000000000000000000000000000000 DUP2 MSTORE PUSH1 0x4 ADD PUSH2 0x20FE SWAP1 PUSH2 0x53B5 JUMP JUMPDEST PUSH1 0x40 MLOAD DUP1 SWAP2 SUB SWAP1 REVERT JUMPDEST PUSH1 0x0 DUP1 SLOAD SWAP1 PUSH2 0x100 EXP SWAP1 DIV PUSH20 0xFFFFFFFFFFFFFFFFFFFFFFFFFFFFFFFFFFFFFFFF AND PUSH20 0xFFFFFFFFFFFFFFFFFFFFFFFFFFFFFFFFFFFFFFFF AND CALLER PUSH20 0xFFFFFFFFFFFFFFFFFFFFFFFFFFFFFFFFFFFFFFFF AND EQ PUSH2 0x21A7 JUMPI CALLER PUSH20 0xFFFFFFFFFFFFFFFFFFFFFFFFFFFFFFFFFFFFFFFF AND PUSH32 0x168164F3DA86521DBAF859C50A68CF332B8097ABD188C8991B1A225FE04D77A9 PUSH1 0x40 MLOAD PUSH2 0x219E SWAP1 PUSH2 0x58E8 JUMP JUMPDEST PUSH1 0x40 MLOAD DUP1 SWAP2 SUB SWAP1 LOG2 JUMPDEST PUSH1 0x2 PUSH1 0x0 DUP2 SLOAD DUP1 SWAP3 SWAP2 SWAP1 PUSH2 0x21BA SWAP1 PUSH2 0x56BF JUMP JUMPDEST SWAP2 SWAP1 POP SSTORE POP PUSH1 0x0 PUSH1 0x40 MLOAD DUP1 PUSH1 0x20 ADD PUSH1 0x40 MSTORE DUP1 TIMESTAMP DUP2 MSTORE POP SWAP1 POP PUSH1 0x40 MLOAD DUP1 PUSH1 0xE0 ADD PUSH1 0x40 MSTORE DUP1 PUSH1 0x2 SLOAD DUP2 MSTORE PUSH1 0x20 ADD DUP7 DUP2 MSTORE PUSH1 0x20 ADD PUSH1 0x40 MLOAD DUP1 PUSH1 0x40 ADD PUSH1 0x40 MSTORE DUP1 PUSH1 0x8 DUP2 MSTORE PUSH1 0x20 ADD PUSH32 0x547261736C61646F000000000000000000000000000000000000000000000000 DUP2 MSTORE POP DUP2 MSTORE PUSH1 0x20 ADD DUP6 DUP2 MSTORE PUSH1 0x20 ADD DUP5 DUP2 MSTORE PUSH1 0x20 ADD DUP4 DUP2 MSTORE PUSH1 0x20 ADD DUP3 DUP2 MSTORE POP PUSH1 0x5 PUSH1 0x0 PUSH1 0x2 SLOAD DUP2 MSTORE PUSH1 0x20 ADD SWAP1 DUP2 MSTORE PUSH1 0x20 ADD PUSH1 0x0 KECCAK256 PUSH1 0x0 DUP3 ADD MLOAD DUP2 PUSH1 0x0 ADD SSTORE PUSH1 0x20 DUP3 ADD MLOAD DUP2 PUSH1 0x1 ADD SSTORE PUSH1 0x40 DUP3 ADD MLOAD DUP2 PUSH1 0x2 ADD SWAP1 DUP2 PUSH2 0x227A SWAP2 SWAP1 PUSH2 0x5581 JUMP JUMPDEST POP PUSH1 0x60 DUP3 ADD MLOAD DUP2 PUSH1 0x3 ADD PUSH1 0x0 DUP3 ADD MLOAD DUP2 PUSH1 0x0 ADD SSTORE PUSH1 0x20 DUP3 ADD MLOAD DUP2 PUSH1 0x1 ADD SSTORE POP POP PUSH1 0x80 DUP3 ADD MLOAD DUP2 PUSH1 0x5 ADD SWAP1 DUP2 PUSH2 0x22AF SWAP2 SWAP1 PUSH2 0x5581 JUMP JUMPDEST POP PUSH1 0xA0 DUP3 ADD MLOAD DUP2 PUSH1 0x6 ADD SWAP1 DUP2 PUSH2 0x22C5 SWAP2 SWAP1 PUSH2 0x5581 JUMP JUMPDEST POP PUSH1 0xC0 DUP3 ADD MLOAD DUP2 PUSH1 0x7 ADD PUSH1 0x0 DUP3 ADD MLOAD DUP2 PUSH1 0x0 ADD SSTORE POP POP SWAP1 POP POP POP POP POP POP POP JUMP JUMPDEST PUSH1 0x8 PUSH1 0x20 MSTORE DUP1 PUSH1 0x0 MSTORE PUSH1 0x40 PUSH1 0x0 KECCAK256 PUSH1 0x0 SWAP2 POP SWAP1 POP DUP1 PUSH1 0x0 ADD SLOAD SWAP1 DUP1 PUSH1 0x1 ADD DUP1 SLOAD PUSH2 0x230E SWAP1 PUSH2 0x5274 JUMP JUMPDEST DUP1 PUSH1 0x1F ADD PUSH1 0x20 DUP1 SWAP2 DIV MUL PUSH1 0x20 ADD PUSH1 0x40 MLOAD SWAP1 DUP2 ADD PUSH1 0x40 MSTORE DUP1 SWAP3 SWAP2 SWAP1 DUP2 DUP2 MSTORE PUSH1 0x20 ADD DUP3 DUP1 SLOAD PUSH2 0x233A SWAP1 PUSH2 0x5274 JUMP JUMPDEST DUP1 ISZERO PUSH2 0x2387 JUMPI DUP1 PUSH1 0x1F LT PUSH2 0x235C JUMPI PUSH2 0x100 DUP1 DUP4 SLOAD DIV MUL DUP4 MSTORE SWAP2 PUSH1 0x20 ADD SWAP2 PUSH2 0x2387 JUMP JUMPDEST DUP3 ADD SWAP2 SWAP1 PUSH1 0x0 MSTORE PUSH1 0x20 PUSH1 0x0 KECCAK256 SWAP1 JUMPDEST DUP2 SLOAD DUP2 MSTORE SWAP1 PUSH1 0x1 ADD SWAP1 PUSH1 0x20 ADD DUP1 DUP4 GT PUSH2 0x236A JUMPI DUP3 SWAP1 SUB PUSH1 0x1F AND DUP3 ADD SWAP2 JUMPDEST POP POP POP POP POP SWAP1 DUP1 PUSH1 0x2 ADD DUP1 SLOAD PUSH2 0x239C SWAP1 PUSH2 0x5274 JUMP JUMPDEST DUP1 PUSH1 0x1F ADD PUSH1 0x20 DUP1 SWAP2 DIV MUL PUSH1 0x20 ADD PUSH1 0x40 MLOAD SWAP1 DUP2 ADD PUSH1 0x40 MSTORE DUP1 SWAP3 SWAP2 SWAP1 DUP2 DUP2 MSTORE PUSH1 0x20 ADD DUP3 DUP1 SLOAD PUSH2 0x23C8 SWAP1 PUSH2 0x5274 JUMP JUMPDEST DUP1 ISZERO PUSH2 0x2415 JUMPI DUP1 PUSH1 0x1F LT PUSH2 0x23EA JUMPI PUSH2 0x100 DUP1 DUP4 SLOAD DIV MUL DUP4 MSTORE SWAP2 PUSH1 0x20 ADD SWAP2 PUSH2 0x2415 JUMP JUMPDEST DUP3 ADD SWAP2 SWAP1 PUSH1 0x0 MSTORE PUSH1 0x20 PUSH1 0x0 KECCAK256 SWAP1 JUMPDEST DUP2 SLOAD DUP2 MSTORE SWAP1 PUSH1 0x1 ADD SWAP1 PUSH1 0x20 ADD DUP1 DUP4 GT PUSH2 0x23F8 JUMPI DUP3 SWAP1 SUB PUSH1 0x1F AND DUP3 ADD SWAP2 JUMPDEST POP POP POP POP POP SWAP1 DUP1 PUSH1 0x3 ADD SLOAD SWAP1 DUP1 PUSH1 0x4 ADD PUSH1 0x40 MLOAD DUP1 PUSH1 0x20 ADD PUSH1 0x40 MSTORE SWAP1 DUP2 PUSH1 0x0 DUP3 ADD SLOAD DUP2 MSTORE POP POP SWAP1 POP DUP6 JUMP JUMPDEST PUSH1 0x0 DUP1 PUSH1 0x0 DUP1 PUSH1 0x0 SWAP1 POP PUSH1 0x0 PUSH1 0x1 SWAP1 POP JUMPDEST PUSH1 0x1 SLOAD DUP2 GT PUSH2 0x24E8 JUMPI PUSH1 0x40 MLOAD DUP1 PUSH1 0x40 ADD PUSH1 0x40 MSTORE DUP1 PUSH1 0x9 DUP2 MSTORE PUSH1 0x20 ADD PUSH32 0x467261696C656A6F6E0000000000000000000000000000000000000000000000 DUP2 MSTORE POP DUP1 MLOAD SWAP1 PUSH1 0x20 ADD KECCAK256 PUSH1 0x4 PUSH1 0x0 DUP4 DUP2 MSTORE PUSH1 0x20 ADD SWAP1 DUP2 MSTORE PUSH1 0x20 ADD PUSH1 0x0 KECCAK256 PUSH1 0x1 ADD PUSH1 0x40 MLOAD PUSH2 0x24B9 SWAP2 SWAP1 PUSH2 0x59AB JUMP JUMPDEST PUSH1 0x40 MLOAD DUP1 SWAP2 SUB SWAP1 KECCAK256 SUB PUSH2 0x24D5 JUMPI DUP2 DUP1 PUSH2 0x24D1 SWAP1 PUSH2 0x56BF JUMP JUMPDEST SWAP3 POP POP JUMPDEST DUP1 DUP1 PUSH2 0x24E0 SWAP1 PUSH2 0x56BF JUMP JUMPDEST SWAP2 POP POP PUSH2 0x2450 JUMP JUMPDEST POP PUSH1 0x1 SLOAD PUSH1 0x2 SLOAD DUP3 SWAP4 POP SWAP4 POP SWAP4 POP POP SWAP1 SWAP2 SWAP3 JUMP JUMPDEST PUSH1 0x60 PUSH1 0x0 DUP3 GT DUP1 ISZERO PUSH2 0x2510 JUMPI POP PUSH1 0x1 SLOAD DUP3 GT ISZERO JUMPDEST PUSH2 0x254F JUMPI PUSH1 0x40 MLOAD PUSH32 0x8C379A000000000000000000000000000000000000000000000000000000000 DUP2 MSTORE PUSH1 0x4 ADD PUSH2 0x2546 SWAP1 PUSH2 0x53B5 JUMP JUMPDEST PUSH1 0x40 MLOAD DUP1 SWAP2 SUB SWAP1 REVERT JUMPDEST PUSH1 0x6 PUSH1 0x0 DUP4 DUP2 MSTORE PUSH1 0x20 ADD SWAP1 DUP2 MSTORE PUSH1 0x20 ADD PUSH1 0x0 KECCAK256 DUP1 SLOAD DUP1 PUSH1 0x20 MUL PUSH1 0x20 ADD PUSH1 0x40 MLOAD SWAP1 DUP2 ADD PUSH1 0x40 MSTORE DUP1 SWAP3 SWAP2 SWAP1 DUP2 DUP2 MSTORE PUSH1 0x20 ADD PUSH1 0x0 SWAP1 JUMPDEST DUP3 DUP3 LT ISZERO PUSH2 0x266E JUMPI DUP4 DUP3 SWAP1 PUSH1 0x0 MSTORE PUSH1 0x20 PUSH1 0x0 KECCAK256 SWAP1 PUSH1 0x3 MUL ADD PUSH1 0x40 MLOAD DUP1 PUSH1 0x60 ADD PUSH1 0x40 MSTORE SWAP1 DUP2 PUSH1 0x0 DUP3 ADD SLOAD DUP2 MSTORE PUSH1 0x20 ADD PUSH1 0x1 DUP3 ADD DUP1 SLOAD PUSH2 0x25BF SWAP1 PUSH2 0x5274 JUMP JUMPDEST DUP1 PUSH1 0x1F ADD PUSH1 0x20 DUP1 SWAP2 DIV MUL PUSH1 0x20 ADD PUSH1 0x40 MLOAD SWAP1 DUP2 ADD PUSH1 0x40 MSTORE DUP1 SWAP3 SWAP2 SWAP1 DUP2 DUP2 MSTORE PUSH1 0x20 ADD DUP3 DUP1 SLOAD PUSH2 0x25EB SWAP1 PUSH2 0x5274 JUMP JUMPDEST DUP1 ISZERO PUSH2 0x2638 JUMPI DUP1 PUSH1 0x1F LT PUSH2 0x260D JUMPI PUSH2 0x100 DUP1 DUP4 SLOAD DIV MUL DUP4 MSTORE SWAP2 PUSH1 0x20 ADD SWAP2 PUSH2 0x2638 JUMP JUMPDEST DUP3 ADD SWAP2 SWAP1 PUSH1 0x0 MSTORE PUSH1 0x20 PUSH1 0x0 KECCAK256 SWAP1 JUMPDEST DUP2 SLOAD DUP2 MSTORE SWAP1 PUSH1 0x1 ADD SWAP1 PUSH1 0x20 ADD DUP1 DUP4 GT PUSH2 0x261B JUMPI DUP3 SWAP1 SUB PUSH1 0x1F AND DUP3 ADD SWAP2 JUMPDEST POP POP POP POP POP DUP2 MSTORE PUSH1 0x20 ADD PUSH1 0x2 DUP3 ADD PUSH1 0x40 MLOAD DUP1 PUSH1 0x20 ADD PUSH1 0x40 MSTORE SWAP1 DUP2 PUSH1 0x0 DUP3 ADD SLOAD DUP2 MSTORE POP POP DUP2 MSTORE POP POP DUP2 MSTORE PUSH1 0x20 ADD SWAP1 PUSH1 0x1 ADD SWAP1 PUSH2 0x2582 JUMP JUMPDEST POP POP POP POP SWAP1 POP SWAP2 SWAP1 POP JUMP JUMPDEST PUSH1 0x0 DUP1 SLOAD SWAP1 PUSH2 0x100 EXP SWAP1 DIV PUSH20 0xFFFFFFFFFFFFFFFFFFFFFFFFFFFFFFFFFFFFFFFF AND PUSH20 0xFFFFFFFFFFFFFFFFFFFFFFFFFFFFFFFFFFFFFFFF AND CALLER PUSH20 0xFFFFFFFFFFFFFFFFFFFFFFFFFFFFFFFFFFFFFFFF AND EQ PUSH2 0x2753 JUMPI CALLER PUSH20 0xFFFFFFFFFFFFFFFFFFFFFFFFFFFFFFFFFFFFFFFF AND PUSH32 0x1BDB0A42F6061B7B08AE342C42472613D878CF5EE160DA7733D223B4234490C2 PUSH1 0x40 MLOAD PUSH2 0x2710 SWAP1 PUSH2 0x5095 JUMP JUMPDEST PUSH1 0x40 MLOAD DUP1 SWAP2 SUB SWAP1 LOG2 PUSH1 0x40 MLOAD PUSH32 0x8C379A000000000000000000000000000000000000000000000000000000000 DUP2 MSTORE PUSH1 0x4 ADD PUSH2 0x274A SWAP1 PUSH2 0x5127 JUMP JUMPDEST PUSH1 0x40 MLOAD DUP1 SWAP2 SUB SWAP1 REVERT JUMPDEST PUSH1 0x0 DUP2 GT DUP1 ISZERO PUSH2 0x2765 JUMPI POP PUSH1 0x1 SLOAD DUP2 GT ISZERO JUMPDEST PUSH2 0x27A4 JUMPI PUSH1 0x40 MLOAD PUSH32 0x8C379A000000000000000000000000000000000000000000000000000000000 DUP2 MSTORE PUSH1 0x4 ADD PUSH2 0x279B SWAP1 PUSH2 0x53B5 JUMP JUMPDEST PUSH1 0x40 MLOAD DUP1 SWAP2 SUB SWAP1 REVERT JUMPDEST PUSH1 0x4 PUSH1 0x0 DUP3 DUP2 MSTORE PUSH1 0x20 ADD SWAP1 DUP2 MSTORE PUSH1 0x20 ADD PUSH1 0x0 KECCAK256 PUSH1 0x0 DUP1 DUP3 ADD PUSH1 0x0 SWAP1 SSTORE PUSH1 0x1 DUP3 ADD PUSH1 0x0 PUSH2 0x27D0 SWAP2 SWAP1 PUSH2 0x3B2C JUMP JUMPDEST PUSH1 0x2 DUP3 ADD PUSH1 0x0 DUP1 DUP3 ADD PUSH1 0x0 SWAP1 SSTORE PUSH1 0x1 DUP3 ADD PUSH1 0x0 SWAP1 SSTORE POP POP PUSH1 0x4 DUP3 ADD PUSH1 0x0 PUSH2 0x27F7 SWAP2 SWAP1 PUSH2 0x3B2C JUMP JUMPDEST PUSH1 0x5 DUP3 ADD PUSH1 0x0 DUP1 DUP3 ADD PUSH1 0x0 SWAP1 SSTORE PUSH1 0x1 DUP3 ADD PUSH1 0x0 SWAP1 SSTORE PUSH1 0x2 DUP3 ADD PUSH1 0x0 SWAP1 SSTORE PUSH1 0x3 DUP3 ADD PUSH1 0x0 SWAP1 SSTORE PUSH1 0x4 DUP3 ADD PUSH1 0x0 SWAP1 SSTORE PUSH1 0x5 DUP3 ADD PUSH1 0x0 DUP1 DUP3 ADD PUSH1 0x0 SWAP1 SSTORE POP POP POP POP PUSH1 0xB DUP3 ADD PUSH1 0x0 PUSH2 0x2845 SWAP2 SWAP1 PUSH2 0x3B2C JUMP JUMPDEST PUSH1 0xC DUP3 ADD PUSH1 0x0 DUP1 DUP3 ADD PUSH1 0x0 SWAP1 SSTORE POP POP POP POP PUSH1 0x1 PUSH1 0x0 DUP2 SLOAD DUP1 SWAP3 SWAP2 SWAP1 PUSH2 0x2869 SWAP1 PUSH2 0x52D4 JUMP JUMPDEST SWAP2 SWAP1 POP SSTORE POP POP JUMP JUMPDEST PUSH1 0x60 PUSH1 0x0 PUSH1 0x1 SLOAD PUSH8 0xFFFFFFFFFFFFFFFF DUP2 GT ISZERO PUSH2 0x2891 JUMPI PUSH2 0x2890 PUSH2 0x40A2 JUMP JUMPDEST JUMPDEST PUSH1 0x40 MLOAD SWAP1 DUP1 DUP3 MSTORE DUP1 PUSH1 0x20 MUL PUSH1 0x20 ADD DUP3 ADD PUSH1 0x40 MSTORE DUP1 ISZERO PUSH2 0x28BF JUMPI DUP2 PUSH1 0x20 ADD PUSH1 0x20 DUP3 MUL DUP1 CALLDATASIZE DUP4 CALLDATACOPY DUP1 DUP3 ADD SWAP2 POP POP SWAP1 POP JUMPDEST POP SWAP1 POP PUSH1 0x0 DUP1 PUSH1 0x1 SWAP1 POP JUMPDEST PUSH1 0x1 SLOAD DUP2 GT PUSH2 0x294D JUMPI DUP5 DUP1 MLOAD SWAP1 PUSH1 0x20 ADD KECCAK256 PUSH1 0x4 PUSH1 0x0 DUP4 DUP2 MSTORE PUSH1 0x20 ADD SWAP1 DUP2 MSTORE PUSH1 0x20 ADD PUSH1 0x0 KECCAK256 PUSH1 0x4 ADD PUSH1 0x40 MLOAD PUSH2 0x28FE SWAP2 SWAP1 PUSH2 0x59AB JUMP JUMPDEST PUSH1 0x40 MLOAD DUP1 SWAP2 SUB SWAP1 KECCAK256 SUB PUSH2 0x293A JUMPI DUP1 DUP4 DUP4 DUP2 MLOAD DUP2 LT PUSH2 0x291F JUMPI PUSH2 0x291E PUSH2 0x57A7 JUMP JUMPDEST JUMPDEST PUSH1 0x20 MUL PUSH1 0x20 ADD ADD DUP2 DUP2 MSTORE POP POP DUP2 DUP1 PUSH2 0x2936 SWAP1 PUSH2 0x56BF JUMP JUMPDEST SWAP3 POP POP JUMPDEST DUP1 DUP1 PUSH2 0x2945 SWAP1 PUSH2 0x56BF JUMP JUMPDEST SWAP2 POP POP PUSH2 0x28CA JUMP JUMPDEST POP DUP2 SWAP3 POP POP POP SWAP2 SWAP1 POP JUMP JUMPDEST PUSH1 0x4 PUSH1 0x20 MSTORE DUP1 PUSH1 0x0 MSTORE PUSH1 0x40 PUSH1 0x0 KECCAK256 PUSH1 0x0 SWAP2 POP SWAP1 POP DUP1 PUSH1 0x0 ADD SLOAD SWAP1 DUP1 PUSH1 0x1 ADD DUP1 SLOAD PUSH2 0x2981 SWAP1 PUSH2 0x5274 JUMP JUMPDEST DUP1 PUSH1 0x1F ADD PUSH1 0x20 DUP1 SWAP2 DIV MUL PUSH1 0x20 ADD PUSH1 0x40 MLOAD SWAP1 DUP2 ADD PUSH1 0x40 MSTORE DUP1 SWAP3 SWAP2 SWAP1 DUP2 DUP2 MSTORE PUSH1 0x20 ADD DUP3 DUP1 SLOAD PUSH2 0x29AD SWAP1 PUSH2 0x5274 JUMP JUMPDEST DUP1 ISZERO PUSH2 0x29FA JUMPI DUP1 PUSH1 0x1F LT PUSH2 0x29CF JUMPI PUSH2 0x100 DUP1 DUP4 SLOAD DIV MUL DUP4 MSTORE SWAP2 PUSH1 0x20 ADD SWAP2 PUSH2 0x29FA JUMP JUMPDEST DUP3 ADD SWAP2 SWAP1 PUSH1 0x0 MSTORE PUSH1 0x20 PUSH1 0x0 KECCAK256 SWAP1 JUMPDEST DUP2 SLOAD DUP2 MSTORE SWAP1 PUSH1 0x1 ADD SWAP1 PUSH1 0x20 ADD DUP1 DUP4 GT PUSH2 0x29DD JUMPI DUP3 SWAP1 SUB PUSH1 0x1F AND DUP3 ADD SWAP2 JUMPDEST POP POP POP POP POP SWAP1 DUP1 PUSH1 0x2 ADD PUSH1 0x40 MLOAD DUP1 PUSH1 0x40 ADD PUSH1 0x40 MSTORE SWAP1 DUP2 PUSH1 0x0 DUP3 ADD SLOAD DUP2 MSTORE PUSH1 0x20 ADD PUSH1 0x1 DUP3 ADD SLOAD DUP2 MSTORE POP POP SWAP1 DUP1 PUSH1 0x4 ADD DUP1 SLOAD PUSH2 0x2A33 SWAP1 PUSH2 0x5274 JUMP JUMPDEST DUP1 PUSH1 0x1F ADD PUSH1 0x20 DUP1 SWAP2 DIV MUL PUSH1 0x20 ADD PUSH1 0x40 MLOAD SWAP1 DUP2 ADD PUSH1 0x40 MSTORE DUP1 SWAP3 SWAP2 SWAP1 DUP2 DUP2 MSTORE PUSH1 0x20 ADD DUP3 DUP1 SLOAD PUSH2 0x2A5F SWAP1 PUSH2 0x5274 JUMP JUMPDEST DUP1 ISZERO PUSH2 0x2AAC JUMPI DUP1 PUSH1 0x1F LT PUSH2 0x2A81 JUMPI PUSH2 0x100 DUP1 DUP4 SLOAD DIV MUL DUP4 MSTORE SWAP2 PUSH1 0x20 ADD SWAP2 PUSH2 0x2AAC JUMP JUMPDEST DUP3 ADD SWAP2 SWAP1 PUSH1 0x0 MSTORE PUSH1 0x20 PUSH1 0x0 KECCAK256 SWAP1 JUMPDEST DUP2 SLOAD DUP2 MSTORE SWAP1 PUSH1 0x1 ADD SWAP1 PUSH1 0x20 ADD DUP1 DUP4 GT PUSH2 0x2A8F JUMPI DUP3 SWAP1 SUB PUSH1 0x1F AND DUP3 ADD SWAP2 JUMPDEST POP POP POP POP POP SWAP1 DUP1 PUSH1 0x5 ADD PUSH1 0x40 MLOAD DUP1 PUSH1 0xC0 ADD PUSH1 0x40 MSTORE SWAP1 DUP2 PUSH1 0x0 DUP3 ADD SLOAD DUP2 MSTORE PUSH1 0x20 ADD PUSH1 0x1 DUP3 ADD SLOAD DUP2 MSTORE PUSH1 0x20 ADD PUSH1 0x2 DUP3 ADD SLOAD DUP2 MSTORE PUSH1 0x20 ADD PUSH1 0x3 DUP3 ADD SLOAD DUP2 MSTORE PUSH1 0x20 ADD PUSH1 0x4 DUP3 ADD SLOAD DUP2 MSTORE PUSH1 0x20 ADD PUSH1 0x5 DUP3 ADD PUSH1 0x40 MLOAD DUP1 PUSH1 0x20 ADD PUSH1 0x40 MSTORE SWAP1 DUP2 PUSH1 0x0 DUP3 ADD SLOAD DUP2 MSTORE POP POP DUP2 MSTORE POP POP SWAP1 DUP1 PUSH1 0xB ADD DUP1 SLOAD PUSH2 0x2B21 SWAP1 PUSH2 0x5274 JUMP JUMPDEST DUP1 PUSH1 0x1F ADD PUSH1 0x20 DUP1 SWAP2 DIV MUL PUSH1 0x20 ADD PUSH1 0x40 MLOAD SWAP1 DUP2 ADD PUSH1 0x40 MSTORE DUP1 SWAP3 SWAP2 SWAP1 DUP2 DUP2 MSTORE PUSH1 0x20 ADD DUP3 DUP1 SLOAD PUSH2 0x2B4D SWAP1 PUSH2 0x5274 JUMP JUMPDEST DUP1 ISZERO PUSH2 0x2B9A JUMPI DUP1 PUSH1 0x1F LT PUSH2 0x2B6F JUMPI PUSH2 0x100 DUP1 DUP4 SLOAD DIV MUL DUP4 MSTORE SWAP2 PUSH1 0x20 ADD SWAP2 PUSH2 0x2B9A JUMP JUMPDEST DUP3 ADD SWAP2 SWAP1 PUSH1 0x0 MSTORE PUSH1 0x20 PUSH1 0x0 KECCAK256 SWAP1 JUMPDEST DUP2 SLOAD DUP2 MSTORE SWAP1 PUSH1 0x1 ADD SWAP1 PUSH1 0x20 ADD DUP1 DUP4 GT PUSH2 0x2B7D JUMPI DUP3 SWAP1 SUB PUSH1 0x1F AND DUP3 ADD SWAP2 JUMPDEST POP POP POP POP POP SWAP1 DUP1 PUSH1 0xC ADD PUSH1 0x40 MLOAD DUP1 PUSH1 0x20 ADD PUSH1 0x40 MSTORE SWAP1 DUP2 PUSH1 0x0 DUP3 ADD SLOAD DUP2 MSTORE POP POP SWAP1 POP DUP8 JUMP JUMPDEST DUP9 PUSH1 0x40 MLOAD DUP1 PUSH1 0x40 ADD PUSH1 0x40 MSTORE DUP1 PUSH1 0x9 DUP2 MSTORE PUSH1 0x20 ADD PUSH32 0x467261696C656A6F6E0000000000000000000000000000000000000000000000 DUP2 MSTORE POP DUP1 MLOAD SWAP1 PUSH1 0x20 ADD KECCAK256 DUP2 DUP1 MLOAD SWAP1 PUSH1 0x20 ADD KECCAK256 EQ DUP1 PUSH2 0x2C52 JUMPI POP PUSH1 0x40 MLOAD DUP1 PUSH1 0x40 ADD PUSH1 0x40 MSTORE DUP1 PUSH1 0x8 DUP2 MSTORE PUSH1 0x20 ADD PUSH32 0x436172646F6E6573000000000000000000000000000000000000000000000000 DUP2 MSTORE POP DUP1 MLOAD SWAP1 PUSH1 0x20 ADD KECCAK256 DUP2 DUP1 MLOAD SWAP1 PUSH1 0x20 ADD KECCAK256 EQ JUMPDEST DUP1 PUSH2 0x2C9F JUMPI POP PUSH1 0x40 MLOAD DUP1 PUSH1 0x40 ADD PUSH1 0x40 MSTORE DUP1 PUSH1 0x7 DUP2 MSTORE PUSH1 0x20 ADD PUSH32 0x4D61636F6C6C6100000000000000000000000000000000000000000000000000 DUP2 MSTORE POP DUP1 MLOAD SWAP1 PUSH1 0x20 ADD KECCAK256 DUP2 DUP1 MLOAD SWAP1 PUSH1 0x20 ADD KECCAK256 EQ JUMPDEST DUP1 PUSH2 0x2CEC JUMPI POP PUSH1 0x40 MLOAD DUP1 PUSH1 0x40 ADD PUSH1 0x40 MSTORE DUP1 PUSH1 0x7 DUP2 MSTORE PUSH1 0x20 ADD PUSH32 0x42616D6275657300000000000000000000000000000000000000000000000000 DUP2 MSTORE POP DUP1 MLOAD SWAP1 PUSH1 0x20 ADD KECCAK256 DUP2 DUP1 MLOAD SWAP1 PUSH1 0x20 ADD KECCAK256 EQ JUMPDEST PUSH2 0x2D2B JUMPI PUSH1 0x40 MLOAD PUSH32 0x8C379A000000000000000000000000000000000000000000000000000000000 DUP2 MSTORE PUSH1 0x4 ADD PUSH2 0x2D22 SWAP1 PUSH2 0x5A0E JUMP JUMPDEST PUSH1 0x40 MLOAD DUP1 SWAP2 SUB SWAP1 REVERT JUMPDEST PUSH1 0x1 DUP1 DUP2 EQ PUSH2 0x2D6F JUMPI PUSH1 0x40 MLOAD PUSH32 0x8C379A000000000000000000000000000000000000000000000000000000000 DUP2 MSTORE PUSH1 0x4 ADD PUSH2 0x2D66 SWAP1 PUSH2 0x5AA0 JUMP JUMPDEST PUSH1 0x40 MLOAD DUP1 SWAP2 SUB SWAP1 REVERT JUMPDEST PUSH1 0x3 PUSH1 0x0 SWAP1 SLOAD SWAP1 PUSH2 0x100 EXP SWAP1 DIV PUSH1 0xFF AND ISZERO PUSH2 0x2DBF JUMPI PUSH1 0x40 MLOAD PUSH32 0x8C379A000000000000000000000000000000000000000000000000000000000 DUP2 MSTORE PUSH1 0x4 ADD PUSH2 0x2DB6 SWAP1 PUSH2 0x5349 JUMP JUMPDEST PUSH1 0x40 MLOAD DUP1 SWAP2 SUB SWAP1 REVERT JUMPDEST PUSH32 0xFFFFFFFFFFFFFFFFFFFFFFFFFFFFFFFFFFFFFFFFFFFFFFFFFFFFFFFFFAA2B580 DUP11 PUSH1 0x0 ADD MLOAD SLT ISZERO DUP1 ISZERO PUSH2 0x2DFB JUMPI POP PUSH4 0x55D4A80 DUP11 PUSH1 0x0 ADD MLOAD SGT ISZERO JUMPDEST PUSH2 0x2E3A JUMPI PUSH1 0x40 MLOAD PUSH32 0x8C379A000000000000000000000000000000000000000000000000000000000 DUP2 MSTORE PUSH1 0x4 ADD PUSH2 0x2E31 SWAP1 PUSH2 0x5B0C JUMP JUMPDEST PUSH1 0x40 MLOAD DUP1 SWAP2 SUB SWAP1 REVERT JUMPDEST PUSH32 0xFFFFFFFFFFFFFFFFFFFFFFFFFFFFFFFFFFFFFFFFFFFFFFFFFFFFFFFFF5456B00 DUP11 PUSH1 0x20 ADD MLOAD SLT ISZERO DUP1 ISZERO PUSH2 0x2E76 JUMPI POP PUSH4 0xABA9500 DUP11 PUSH1 0x20 ADD MLOAD SGT ISZERO JUMPDEST PUSH2 0x2EB5 JUMPI PUSH1 0x40 MLOAD PUSH32 0x8C379A000000000000000000000000000000000000000000000000000000000 DUP2 MSTORE PUSH1 0x4 ADD PUSH2 0x2EAC SWAP1 PUSH2 0x5B78 JUMP JUMPDEST PUSH1 0x40 MLOAD DUP1 SWAP2 SUB SWAP1 REVERT JUMPDEST PUSH32 0xFFFFFFFFFFFFFFFFFFFFFFFFFFFFFFFFFFFFFFFFFFFFFFFFFFFFFFFFFFFFFFF6 DUP9 SLT ISZERO DUP1 ISZERO PUSH2 0x2EE6 JUMPI POP PUSH1 0xF DUP9 SGT ISZERO JUMPDEST PUSH2 0x2F25 JUMPI PUSH1 0x40 MLOAD PUSH32 0x8C379A000000000000000000000000000000000000000000000000000000000 DUP2 MSTORE PUSH1 0x4 ADD PUSH2 0x2F1C SWAP1 PUSH2 0x5C0A JUMP JUMPDEST PUSH1 0x40 MLOAD DUP1 SWAP2 SUB SWAP1 REVERT JUMPDEST PUSH1 0x32 DUP8 LT ISZERO DUP1 ISZERO PUSH2 0x2F37 JUMPI POP PUSH1 0x64 DUP8 GT ISZERO JUMPDEST PUSH2 0x2F76 JUMPI PUSH1 0x40 MLOAD PUSH32 0x8C379A000000000000000000000000000000000000000000000000000000000 DUP2 MSTORE PUSH1 0x4 ADD PUSH2 0x2F6D SWAP1 PUSH2 0x5C9C JUMP JUMPDEST PUSH1 0x40 MLOAD DUP1 SWAP2 SUB SWAP1 REVERT JUMPDEST PUSH2 0xAF0 DUP5 LT ISZERO DUP1 ISZERO PUSH2 0x2F8A JUMPI POP PUSH2 0x1068 DUP5 GT ISZERO JUMPDEST PUSH2 0x2FC9 JUMPI PUSH1 0x40 MLOAD PUSH32 0x8C379A000000000000000000000000000000000000000000000000000000000 DUP2 MSTORE PUSH1 0x4 ADD PUSH2 0x2FC0 SWAP1 PUSH2 0x5D2E JUMP JUMPDEST PUSH1 0x40 MLOAD DUP1 SWAP2 SUB SWAP1 REVERT JUMPDEST PUSH1 0x32 PUSH1 0x1 SLOAD LT PUSH2 0x300E JUMPI PUSH1 0x40 MLOAD PUSH32 0x8C379A000000000000000000000000000000000000000000000000000000000 DUP2 MSTORE PUSH1 0x4 ADD PUSH2 0x3005 SWAP1 PUSH2 0x5DC0 JUMP JUMPDEST PUSH1 0x40 MLOAD DUP1 SWAP2 SUB SWAP1 REVERT JUMPDEST PUSH1 0x0 DUP1 SLOAD SWAP1 PUSH2 0x100 EXP SWAP1 DIV PUSH20 0xFFFFFFFFFFFFFFFFFFFFFFFFFFFFFFFFFFFFFFFF AND PUSH20 0xFFFFFFFFFFFFFFFFFFFFFFFFFFFFFFFFFFFFFFFF AND CALLER PUSH20 0xFFFFFFFFFFFFFFFFFFFFFFFFFFFFFFFFFFFFFFFF AND EQ PUSH2 0x30AE JUMPI CALLER PUSH20 0xFFFFFFFFFFFFFFFFFFFFFFFFFFFFFFFFFFFFFFFF AND PUSH32 0x168164F3DA86521DBAF859C50A68CF332B8097ABD188C8991B1A225FE04D77A9 PUSH1 0x40 MLOAD PUSH2 0x30A5 SWAP1 PUSH2 0x5E2C JUMP JUMPDEST PUSH1 0x40 MLOAD DUP1 SWAP2 SUB SWAP1 LOG2 JUMPDEST PUSH1 0x1 PUSH1 0x0 DUP2 SLOAD DUP1 SWAP3 SWAP2 SWAP1 PUSH2 0x30C1 SWAP1 PUSH2 0x56BF JUMP JUMPDEST SWAP2 SWAP1 POP SSTORE POP PUSH1 0x0 PUSH1 0x40 MLOAD DUP1 PUSH1 0x20 ADD PUSH1 0x40 MSTORE DUP1 TIMESTAMP DUP2 MSTORE POP SWAP1 POP PUSH1 0x40 MLOAD DUP1 PUSH1 0xE0 ADD PUSH1 0x40 MSTORE DUP1 PUSH1 0x1 SLOAD DUP2 MSTORE PUSH1 0x20 ADD DUP14 DUP2 MSTORE PUSH1 0x20 ADD DUP13 DUP2 MSTORE PUSH1 0x20 ADD DUP12 DUP2 MSTORE PUSH1 0x20 ADD PUSH1 0x40 MLOAD DUP1 PUSH1 0xC0 ADD PUSH1 0x40 MSTORE DUP1 DUP13 DUP2 MSTORE PUSH1 0x20 ADD DUP12 DUP2 MSTORE PUSH1 0x20 ADD DUP11 DUP2 MSTORE PUSH1 0x20 ADD DUP10 DUP2 MSTORE PUSH1 0x20 ADD DUP9 DUP2 MSTORE PUSH1 0x20 ADD DUP5 DUP2 MSTORE POP DUP2 MSTORE PUSH1 0x20 ADD DUP6 DUP2 MSTORE PUSH1 0x20 ADD DUP3 DUP2 MSTORE POP PUSH1 0x4 PUSH1 0x0 PUSH1 0x1 SLOAD DUP2 MSTORE PUSH1 0x20 ADD SWAP1 DUP2 MSTORE PUSH1 0x20 ADD PUSH1 0x0 KECCAK256 PUSH1 0x0 DUP3 ADD MLOAD DUP2 PUSH1 0x0 ADD SSTORE PUSH1 0x20 DUP3 ADD MLOAD DUP2 PUSH1 0x1 ADD SWAP1 DUP2 PUSH2 0x316E SWAP2 SWAP1 PUSH2 0x5581 JUMP JUMPDEST POP PUSH1 0x40 DUP3 ADD MLOAD DUP2 PUSH1 0x2 ADD PUSH1 0x0 DUP3 ADD MLOAD DUP2 PUSH1 0x0 ADD SSTORE PUSH1 0x20 DUP3 ADD MLOAD DUP2 PUSH1 0x1 ADD SSTORE POP POP PUSH1 0x60 DUP3 ADD MLOAD DUP2 PUSH1 0x4 ADD SWAP1 DUP2 PUSH2 0x31A3 SWAP2 SWAP1 PUSH2 0x5581 JUMP JUMPDEST POP PUSH1 0x80 DUP3 ADD MLOAD DUP2 PUSH1 0x5 ADD PUSH1 0x0 DUP3 ADD MLOAD DUP2 PUSH1 0x0 ADD SSTORE PUSH1 0x20 DUP3 ADD MLOAD DUP2 PUSH1 0x1 ADD SSTORE PUSH1 0x40 DUP3 ADD MLOAD DUP2 PUSH1 0x2 ADD SSTORE PUSH1 0x60 DUP3 ADD MLOAD DUP2 PUSH1 0x3 ADD SSTORE PUSH1 0x80 DUP3 ADD MLOAD DUP2 PUSH1 0x4 ADD SSTORE PUSH1 0xA0 DUP3 ADD MLOAD DUP2 PUSH1 0x5 ADD PUSH1 0x0 DUP3 ADD MLOAD DUP2 PUSH1 0x0 ADD SSTORE POP POP POP POP PUSH1 0xA0 DUP3 ADD MLOAD DUP2 PUSH1 0xB ADD SWAP1 DUP2 PUSH2 0x320B SWAP2 SWAP1 PUSH2 0x5581 JUMP JUMPDEST POP PUSH1 0xC0 DUP3 ADD MLOAD DUP2 PUSH1 0xC ADD PUSH1 0x0 DUP3 ADD MLOAD DUP2 PUSH1 0x0 ADD SSTORE POP POP SWAP1 POP POP POP POP POP POP POP POP POP POP POP POP POP POP JUMP JUMPDEST PUSH1 0x3 PUSH1 0x0 SWAP1 SLOAD SWAP1 PUSH2 0x100 EXP SWAP1 DIV PUSH1 0xFF AND ISZERO PUSH2 0x3282 JUMPI PUSH1 0x40 MLOAD PUSH32 0x8C379A000000000000000000000000000000000000000000000000000000000 DUP2 MSTORE PUSH1 0x4 ADD PUSH2 0x3279 SWAP1 PUSH2 0x5349 JUMP JUMPDEST PUSH1 0x40 MLOAD DUP1 SWAP2 SUB SWAP1 REVERT JUMPDEST PUSH1 0x0 DUP3 GT DUP1 ISZERO PUSH2 0x3294 JUMPI POP PUSH1 0x2 SLOAD DUP3 GT ISZERO JUMPDEST PUSH2 0x32D3 JUMPI PUSH1 0x40 MLOAD PUSH32 0x8C379A000000000000000000000000000000000000000000000000000000000 DUP2 MSTORE PUSH1 0x4 ADD PUSH2 0x32CA SWAP1 PUSH2 0x5225 JUMP JUMPDEST PUSH1 0x40 MLOAD DUP1 SWAP2 SUB SWAP1 REVERT JUMPDEST PUSH1 0x0 DUP1 SLOAD SWAP1 PUSH2 0x100 EXP SWAP1 DIV PUSH20 0xFFFFFFFFFFFFFFFFFFFFFFFFFFFFFFFFFFFFFFFF AND PUSH20 0xFFFFFFFFFFFFFFFFFFFFFFFFFFFFFFFFFFFFFFFF AND CALLER PUSH20 0xFFFFFFFFFFFFFFFFFFFFFFFFFFFFFFFFFFFFFFFF AND EQ PUSH2 0x3373 JUMPI CALLER PUSH20 0xFFFFFFFFFFFFFFFFFFFFFFFFFFFFFFFFFFFFFFFF AND PUSH32 0x168164F3DA86521DBAF859C50A68CF332B8097ABD188C8991B1A225FE04D77A9 PUSH1 0x40 MLOAD PUSH2 0x336A SWAP1 PUSH2 0x5EBE JUMP JUMPDEST PUSH1 0x40 MLOAD DUP1 SWAP2 SUB SWAP1 LOG2 JUMPDEST DUP1 PUSH1 0x5 PUSH1 0x0 DUP5 DUP2 MSTORE PUSH1 0x20 ADD SWAP1 DUP2 MSTORE PUSH1 0x20 ADD PUSH1 0x0 KECCAK256 PUSH1 0x3 ADD PUSH1 0x0 DUP3 ADD MLOAD DUP2 PUSH1 0x0 ADD SSTORE PUSH1 0x20 DUP3 ADD MLOAD DUP2 PUSH1 0x1 ADD SSTORE SWAP1 POP POP POP POP JUMP JUMPDEST PUSH1 0x7 PUSH1 0x20 MSTORE DUP1 PUSH1 0x0 MSTORE PUSH1 0x40 PUSH1 0x0 KECCAK256 PUSH1 0x0 SWAP2 POP SLOAD SWAP1 PUSH2 0x100 EXP SWAP1 DIV PUSH1 0xFF AND DUP2 JUMP JUMPDEST PUSH1 0x0 DUP1 PUSH1 0x0 DUP1 PUSH1 0x1 SLOAD PUSH1 0x2 SLOAD PUSH1 0xA SLOAD PUSH1 0xB SLOAD SWAP4 POP SWAP4 POP SWAP4 POP SWAP4 POP SWAP1 SWAP2 SWAP3 SWAP4 JUMP JUMPDEST PUSH1 0x2 SLOAD DUP2 JUMP JUMPDEST PUSH1 0xA PUSH1 0x0 DUP2 SLOAD DUP1 SWAP3 SWAP2 SWAP1 PUSH2 0x33FE SWAP1 PUSH2 0x56BF JUMP JUMPDEST SWAP2 SWAP1 POP SSTORE POP PUSH1 0x0 PUSH1 0x40 MLOAD DUP1 PUSH1 0x20 ADD PUSH1 0x40 MSTORE DUP1 TIMESTAMP DUP2 MSTORE POP SWAP1 POP PUSH1 0x40 MLOAD DUP1 PUSH1 0xA0 ADD PUSH1 0x40 MSTORE DUP1 PUSH1 0xA SLOAD DUP2 MSTORE PUSH1 0x20 ADD DUP6 DUP2 MSTORE PUSH1 0x20 ADD DUP5 DUP2 MSTORE PUSH1 0x20 ADD DUP4 DUP2 MSTORE PUSH1 0x20 ADD DUP3 DUP2 MSTORE POP PUSH1 0x8 PUSH1 0x0 PUSH1 0xA SLOAD DUP2 MSTORE PUSH1 0x20 ADD SWAP1 DUP2 MSTORE PUSH1 0x20 ADD PUSH1 0x0 KECCAK256 PUSH1 0x0 DUP3 ADD MLOAD DUP2 PUSH1 0x0 ADD SSTORE PUSH1 0x20 DUP3 ADD MLOAD DUP2 PUSH1 0x1 ADD SWAP1 DUP2 PUSH2 0x3473 SWAP2 SWAP1 PUSH2 0x5581 JUMP JUMPDEST POP PUSH1 0x40 DUP3 ADD MLOAD DUP2 PUSH1 0x2 ADD SWAP1 DUP2 PUSH2 0x3489 SWAP2 SWAP1 PUSH2 0x5581 JUMP JUMPDEST POP PUSH1 0x60 DUP3 ADD MLOAD DUP2 PUSH1 0x3 ADD SSTORE PUSH1 0x80 DUP3 ADD MLOAD DUP2 PUSH1 0x4 ADD PUSH1 0x0 DUP3 ADD MLOAD DUP2 PUSH1 0x0 ADD SSTORE POP POP SWAP1 POP POP PUSH32 0x67996453674AAB2721531E89B351ACF35C086E98213B93B7A4C07BE4A373AEDB PUSH1 0xA SLOAD DUP6 DUP4 PUSH1 0x40 MLOAD PUSH2 0x34E1 SWAP4 SWAP3 SWAP2 SWAP1 PUSH2 0x461A JUMP JUMPDEST PUSH1 0x40 MLOAD DUP1 SWAP2 SUB SWAP1 LOG1 POP POP POP POP JUMP JUMPDEST PUSH1 0x0 DUP1 PUSH1 0x0 DUP1 PUSH1 0x0 PUSH3 0x278D00 TIMESTAMP PUSH2 0x3506 SWAP2 SWAP1 PUSH2 0x5F0D JUMP JUMPDEST SWAP1 POP PUSH1 0x0 PUSH1 0x1 SWAP1 POP JUMPDEST PUSH1 0x1 SLOAD DUP2 GT PUSH2 0x3568 JUMPI DUP2 PUSH3 0x278D00 PUSH1 0x4 PUSH1 0x0 DUP5 DUP2 MSTORE PUSH1 0x20 ADD SWAP1 DUP2 MSTORE PUSH1 0x20 ADD PUSH1 0x0 KECCAK256 PUSH1 0xC ADD PUSH1 0x0 ADD SLOAD PUSH2 0x3541 SWAP2 SWAP1 PUSH2 0x5F0D JUMP JUMPDEST SUB PUSH2 0x3555 JUMPI DUP4 DUP1 PUSH2 0x3551 SWAP1 PUSH2 0x56BF JUMP JUMPDEST SWAP5 POP POP JUMPDEST DUP1 DUP1 PUSH2 0x3560 SWAP1 PUSH2 0x56BF JUMP JUMPDEST SWAP2 POP POP PUSH2 0x350F JUMP JUMPDEST POP PUSH1 0x0 PUSH1 0x1 SWAP1 POP JUMPDEST PUSH1 0x2 SLOAD DUP2 GT PUSH2 0x35C9 JUMPI DUP2 PUSH3 0x278D00 PUSH1 0x5 PUSH1 0x0 DUP5 DUP2 MSTORE PUSH1 0x20 ADD SWAP1 DUP2 MSTORE PUSH1 0x20 ADD PUSH1 0x0 KECCAK256 PUSH1 0x7 ADD PUSH1 0x0 ADD SLOAD PUSH2 0x35A2 SWAP2 SWAP1 PUSH2 0x5F0D JUMP JUMPDEST SUB PUSH2 0x35B6 JUMPI DUP3 DUP1 PUSH2 0x35B2 SWAP1 PUSH2 0x56BF JUMP JUMPDEST SWAP4 POP POP JUMPDEST DUP1 DUP1 PUSH2 0x35C1 SWAP1 PUSH2 0x56BF JUMP JUMPDEST SWAP2 POP POP PUSH2 0x3570 JUMP JUMPDEST POP PUSH1 0x1 SLOAD PUSH1 0x2 SLOAD SWAP5 POP SWAP5 POP POP SWAP1 SWAP2 SWAP3 SWAP4 JUMP JUMPDEST PUSH1 0xB SLOAD DUP2 JUMP JUMPDEST PUSH1 0x60 PUSH1 0x0 PUSH1 0x1 SLOAD PUSH8 0xFFFFFFFFFFFFFFFF DUP2 GT ISZERO PUSH2 0x3601 JUMPI PUSH2 0x3600 PUSH2 0x40A2 JUMP JUMPDEST JUMPDEST PUSH1 0x40 MLOAD SWAP1 DUP1 DUP3 MSTORE DUP1 PUSH1 0x20 MUL PUSH1 0x20 ADD DUP3 ADD PUSH1 0x40 MSTORE DUP1 ISZERO PUSH2 0x363A JUMPI DUP2 PUSH1 0x20 ADD JUMPDEST PUSH2 0x3627 PUSH2 0x3B6C JUMP JUMPDEST DUP2 MSTORE PUSH1 0x20 ADD SWAP1 PUSH1 0x1 SWAP1 SUB SWAP1 DUP2 PUSH2 0x361F JUMPI SWAP1 POP JUMPDEST POP SWAP1 POP PUSH1 0x0 PUSH1 0x1 SWAP1 POP JUMPDEST PUSH1 0x1 SLOAD DUP2 GT PUSH2 0x3912 JUMPI PUSH1 0x4 PUSH1 0x0 DUP3 DUP2 MSTORE PUSH1 0x20 ADD SWAP1 DUP2 MSTORE PUSH1 0x20 ADD PUSH1 0x0 KECCAK256 PUSH1 0x40 MLOAD DUP1 PUSH1 0xE0 ADD PUSH1 0x40 MSTORE SWAP1 DUP2 PUSH1 0x0 DUP3 ADD SLOAD DUP2 MSTORE PUSH1 0x20 ADD PUSH1 0x1 DUP3 ADD DUP1 SLOAD PUSH2 0x3685 SWAP1 PUSH2 0x5274 JUMP JUMPDEST DUP1 PUSH1 0x1F ADD PUSH1 0x20 DUP1 SWAP2 DIV MUL PUSH1 0x20 ADD PUSH1 0x40 MLOAD SWAP1 DUP2 ADD PUSH1 0x40 MSTORE DUP1 SWAP3 SWAP2 SWAP1 DUP2 DUP2 MSTORE PUSH1 0x20 ADD DUP3 DUP1 SLOAD PUSH2 0x36B1 SWAP1 PUSH2 0x5274 JUMP JUMPDEST DUP1 ISZERO PUSH2 0x36FE JUMPI DUP1 PUSH1 0x1F LT PUSH2 0x36D3 JUMPI PUSH2 0x100 DUP1 DUP4 SLOAD DIV MUL DUP4 MSTORE SWAP2 PUSH1 0x20 ADD SWAP2 PUSH2 0x36FE JUMP JUMPDEST DUP3 ADD SWAP2 SWAP1 PUSH1 0x0 MSTORE PUSH1 0x20 PUSH1 0x0 KECCAK256 SWAP1 JUMPDEST DUP2 SLOAD DUP2 MSTORE SWAP1 PUSH1 0x1 ADD SWAP1 PUSH1 0x20 ADD DUP1 DUP4 GT PUSH2 0x36E1 JUMPI DUP3 SWAP1 SUB PUSH1 0x1F AND DUP3 ADD SWAP2 JUMPDEST POP POP POP POP POP DUP2 MSTORE PUSH1 0x20 ADD PUSH1 0x2 DUP3 ADD PUSH1 0x40 MLOAD DUP1 PUSH1 0x40 ADD PUSH1 0x40 MSTORE SWAP1 DUP2 PUSH1 0x0 DUP3 ADD SLOAD DUP2 MSTORE PUSH1 0x20 ADD PUSH1 0x1 DUP3 ADD SLOAD DUP2 MSTORE POP POP DUP2 MSTORE PUSH1 0x20 ADD PUSH1 0x4 DUP3 ADD DUP1 SLOAD PUSH2 0x373F SWAP1 PUSH2 0x5274 JUMP JUMPDEST DUP1 PUSH1 0x1F ADD PUSH1 0x20 DUP1 SWAP2 DIV MUL PUSH1 0x20 ADD PUSH1 0x40 MLOAD SWAP1 DUP2 ADD PUSH1 0x40 MSTORE DUP1 SWAP3 SWAP2 SWAP1 DUP2 DUP2 MSTORE PUSH1 0x20 ADD DUP3 DUP1 SLOAD PUSH2 0x376B SWAP1 PUSH2 0x5274 JUMP JUMPDEST DUP1 ISZERO PUSH2 0x37B8 JUMPI DUP1 PUSH1 0x1F LT PUSH2 0x378D JUMPI PUSH2 0x100 DUP1 DUP4 SLOAD DIV MUL DUP4 MSTORE SWAP2 PUSH1 0x20 ADD SWAP2 PUSH2 0x37B8 JUMP JUMPDEST DUP3 ADD SWAP2 SWAP1 PUSH1 0x0 MSTORE PUSH1 0x20 PUSH1 0x0 KECCAK256 SWAP1 JUMPDEST DUP2 SLOAD DUP2 MSTORE SWAP1 PUSH1 0x1 ADD SWAP1 PUSH1 0x20 ADD DUP1 DUP4 GT PUSH2 0x379B JUMPI DUP3 SWAP1 SUB PUSH1 0x1F AND DUP3 ADD SWAP2 JUMPDEST POP POP POP POP POP DUP2 MSTORE PUSH1 0x20 ADD PUSH1 0x5 DUP3 ADD PUSH1 0x40 MLOAD DUP1 PUSH1 0xC0 ADD PUSH1 0x40 MSTORE SWAP1 DUP2 PUSH1 0x0 DUP3 ADD SLOAD DUP2 MSTORE PUSH1 0x20 ADD PUSH1 0x1 DUP3 ADD SLOAD DUP2 MSTORE PUSH1 0x20 ADD PUSH1 0x2 DUP3 ADD SLOAD DUP2 MSTORE PUSH1 0x20 ADD PUSH1 0x3 DUP3 ADD SLOAD DUP2 MSTORE PUSH1 0x20 ADD PUSH1 0x4 DUP3 ADD SLOAD DUP2 MSTORE PUSH1 0x20 ADD PUSH1 0x5 DUP3 ADD PUSH1 0x40 MLOAD DUP1 PUSH1 0x20 ADD PUSH1 0x40 MSTORE SWAP1 DUP2 PUSH1 0x0 DUP3 ADD SLOAD DUP2 MSTORE POP POP DUP2 MSTORE POP POP DUP2 MSTORE PUSH1 0x20 ADD PUSH1 0xB DUP3 ADD DUP1 SLOAD PUSH2 0x3835 SWAP1 PUSH2 0x5274 JUMP JUMPDEST DUP1 PUSH1 0x1F ADD PUSH1 0x20 DUP1 SWAP2 DIV MUL PUSH1 0x20 ADD PUSH1 0x40 MLOAD SWAP1 DUP2 ADD PUSH1 0x40 MSTORE DUP1 SWAP3 SWAP2 SWAP1 DUP2 DUP2 MSTORE PUSH1 0x20 ADD DUP3 DUP1 SLOAD PUSH2 0x3861 SWAP1 PUSH2 0x5274 JUMP JUMPDEST DUP1 ISZERO PUSH2 0x38AE JUMPI DUP1 PUSH1 0x1F LT PUSH2 0x3883 JUMPI PUSH2 0x100 DUP1 DUP4 SLOAD DIV MUL DUP4 MSTORE SWAP2 PUSH1 0x20 ADD SWAP2 PUSH2 0x38AE JUMP JUMPDEST DUP3 ADD SWAP2 SWAP1 PUSH1 0x0 MSTORE PUSH1 0x20 PUSH1 0x0 KECCAK256 SWAP1 JUMPDEST DUP2 SLOAD DUP2 MSTORE SWAP1 PUSH1 0x1 ADD SWAP1 PUSH1 0x20 ADD DUP1 DUP4 GT PUSH2 0x3891 JUMPI DUP3 SWAP1 SUB PUSH1 0x1F AND DUP3 ADD SWAP2 JUMPDEST POP POP POP POP POP DUP2 MSTORE PUSH1 0x20 ADD PUSH1 0xC DUP3 ADD PUSH1 0x40 MLOAD DUP1 PUSH1 0x20 ADD PUSH1 0x40 MSTORE SWAP1 DUP2 PUSH1 0x0 DUP3 ADD SLOAD DUP2 MSTORE POP POP DUP2 MSTORE POP POP DUP3 PUSH1 0x1 DUP4 PUSH2 0x38E3 SWAP2 SWAP1 PUSH2 0x5868 JUMP JUMPDEST DUP2 MLOAD DUP2 LT PUSH2 0x38F4 JUMPI PUSH2 0x38F3 PUSH2 0x57A7 JUMP JUMPDEST JUMPDEST PUSH1 0x20 MUL PUSH1 0x20 ADD ADD DUP2 SWAP1 MSTORE POP DUP1 DUP1 PUSH2 0x390A SWAP1 PUSH2 0x56BF JUMP JUMPDEST SWAP2 POP POP PUSH2 0x3644 JUMP JUMPDEST POP DUP1 SWAP2 POP POP SWAP1 JUMP JUMPDEST PUSH1 0x0 DUP1 SLOAD SWAP1 PUSH2 0x100 EXP SWAP1 DIV PUSH20 0xFFFFFFFFFFFFFFFFFFFFFFFFFFFFFFFFFFFFFFFF AND PUSH20 0xFFFFFFFFFFFFFFFFFFFFFFFFFFFFFFFFFFFFFFFF AND CALLER PUSH20 0xFFFFFFFFFFFFFFFFFFFFFFFFFFFFFFFFFFFFFFFF AND EQ PUSH2 0x39F4 JUMPI CALLER PUSH20 0xFFFFFFFFFFFFFFFFFFFFFFFFFFFFFFFFFFFFFFFF AND PUSH32 0x1BDB0A42F6061B7B08AE342C42472613D878CF5EE160DA7733D223B4234490C2 PUSH1 0x40 MLOAD PUSH2 0x39B1 SWAP1 PUSH2 0x5095 JUMP JUMPDEST PUSH1 0x40 MLOAD DUP1 SWAP2 SUB SWAP1 LOG2 PUSH1 0x40 MLOAD PUSH32 0x8C379A000000000000000000000000000000000000000000000000000000000 DUP2 MSTORE PUSH1 0x4 ADD PUSH2 0x39EB SWAP1 PUSH2 0x5127 JUMP JUMPDEST PUSH1 0x40 MLOAD DUP1 SWAP2 SUB SWAP1 REVERT JUMPDEST PUSH1 0x0 PUSH1 0x3 PUSH1 0x0 PUSH2 0x100 EXP DUP2 SLOAD DUP2 PUSH1 0xFF MUL NOT AND SWAP1 DUP4 ISZERO ISZERO MUL OR SWAP1 SSTORE POP JUMP JUMPDEST PUSH1 0x9 PUSH1 0x20 MSTORE DUP1 PUSH1 0x0 MSTORE PUSH1 0x40 PUSH1 0x0 KECCAK256 PUSH1 0x0 SWAP2 POP SWAP1 POP DUP1 PUSH1 0x0 ADD SLOAD SWAP1 DUP1 PUSH1 0x1 ADD DUP1 SLOAD PUSH2 0x3A3A SWAP1 PUSH2 0x5274 JUMP JUMPDEST DUP1 PUSH1 0x1F ADD PUSH1 0x20 DUP1 SWAP2 DIV MUL PUSH1 0x20 ADD PUSH1 0x40 MLOAD SWAP1 DUP2 ADD PUSH1 0x40 MSTORE DUP1 SWAP3 SWAP2 SWAP1 DUP2 DUP2 MSTORE PUSH1 0x20 ADD DUP3 DUP1 SLOAD PUSH2 0x3A66 SWAP1 PUSH2 0x5274 JUMP JUMPDEST DUP1 ISZERO PUSH2 0x3AB3 JUMPI DUP1 PUSH1 0x1F LT PUSH2 0x3A88 JUMPI PUSH2 0x100 DUP1 DUP4 SLOAD DIV MUL DUP4 MSTORE SWAP2 PUSH1 0x20 ADD SWAP2 PUSH2 0x3AB3 JUMP JUMPDEST DUP3 ADD SWAP2 SWAP1 PUSH1 0x0 MSTORE PUSH1 0x20 PUSH1 0x0 KECCAK256 SWAP1 JUMPDEST DUP2 SLOAD DUP2 MSTORE SWAP1 PUSH1 0x1 ADD SWAP1 PUSH1 0x20 ADD DUP1 DUP4 GT PUSH2 0x3A96 JUMPI DUP3 SWAP1 SUB PUSH1 0x1F AND DUP3 ADD SWAP2 JUMPDEST POP POP POP POP POP SWAP1 DUP1 PUSH1 0x2 ADD SLOAD SWAP1 DUP1 PUSH1 0x3 ADD SLOAD SWAP1 DUP1 PUSH1 0x4 ADD PUSH1 0x40 MLOAD DUP1 PUSH1 0x20 ADD PUSH1 0x40 MSTORE SWAP1 DUP2 PUSH1 0x0 DUP3 ADD SLOAD DUP2 MSTORE POP POP SWAP1 POP DUP6 JUMP JUMPDEST PUSH1 0x40 MLOAD DUP1 PUSH1 0xE0 ADD PUSH1 0x40 MSTORE DUP1 PUSH1 0x0 DUP2 MSTORE PUSH1 0x20 ADD PUSH1 0x0 DUP2 MSTORE PUSH1 0x20 ADD PUSH1 0x60 DUP2 MSTORE PUSH1 0x20 ADD PUSH2 0x3B0B PUSH2 0x3BE2 JUMP JUMPDEST DUP2 MSTORE PUSH1 0x20 ADD PUSH1 0x60 DUP2 MSTORE PUSH1 0x20 ADD PUSH1 0x60 DUP2 MSTORE PUSH1 0x20 ADD PUSH2 0x3B26 PUSH2 0x3BFC JUMP JUMPDEST DUP2 MSTORE POP SWAP1 JUMP JUMPDEST POP DUP1 SLOAD PUSH2 0x3B38 SWAP1 PUSH2 0x5274 JUMP JUMPDEST PUSH1 0x0 DUP3 SSTORE DUP1 PUSH1 0x1F LT PUSH2 0x3B4A JUMPI POP PUSH2 0x3B69 JUMP JUMPDEST PUSH1 0x1F ADD PUSH1 0x20 SWAP1 DIV SWAP1 PUSH1 0x0 MSTORE PUSH1 0x20 PUSH1 0x0 KECCAK256 SWAP1 DUP2 ADD SWAP1 PUSH2 0x3B68 SWAP2 SWAP1 PUSH2 0x3C0F JUMP JUMPDEST JUMPDEST POP JUMP JUMPDEST PUSH1 0x40 MLOAD DUP1 PUSH1 0xE0 ADD PUSH1 0x40 MSTORE DUP1 PUSH1 0x0 DUP2 MSTORE PUSH1 0x20 ADD PUSH1 0x60 DUP2 MSTORE PUSH1 0x20 ADD PUSH2 0x3B8D PUSH2 0x3BE2 JUMP JUMPDEST DUP2 MSTORE PUSH1 0x20 ADD PUSH1 0x60 DUP2 MSTORE PUSH1 0x20 ADD PUSH2 0x3BA1 PUSH2 0x3C2C JUMP JUMPDEST DUP2 MSTORE PUSH1 0x20 ADD PUSH1 0x60 DUP2 MSTORE PUSH1 0x20 ADD PUSH2 0x3BB5 PUSH2 0x3BFC JUMP JUMPDEST DUP2 MSTORE POP SWAP1 JUMP JUMPDEST PUSH1 0x40 MLOAD DUP1 PUSH1 0x60 ADD PUSH1 0x40 MSTORE DUP1 PUSH1 0x0 DUP2 MSTORE PUSH1 0x20 ADD PUSH1 0x60 DUP2 MSTORE PUSH1 0x20 ADD PUSH2 0x3BDC PUSH2 0x3BFC JUMP JUMPDEST DUP2 MSTORE POP SWAP1 JUMP JUMPDEST PUSH1 0x40 MLOAD DUP1 PUSH1 0x40 ADD PUSH1 0x40 MSTORE DUP1 PUSH1 0x0 DUP2 MSTORE PUSH1 0x20 ADD PUSH1 0x0 DUP2 MSTORE POP SWAP1 JUMP JUMPDEST PUSH1 0x40 MLOAD DUP1 PUSH1 0x20 ADD PUSH1 0x40 MSTORE DUP1 PUSH1 0x0 DUP2 MSTORE POP SWAP1 JUMP JUMPDEST JUMPDEST DUP1 DUP3 GT ISZERO PUSH2 0x3C28 JUMPI PUSH1 0x0 DUP2 PUSH1 0x0 SWAP1 SSTORE POP PUSH1 0x1 ADD PUSH2 0x3C10 JUMP JUMPDEST POP SWAP1 JUMP JUMPDEST PUSH1 0x40 MLOAD DUP1 PUSH1 0xC0 ADD PUSH1 0x40 MSTORE DUP1 PUSH1 0x0 DUP2 MSTORE PUSH1 0x20 ADD PUSH1 0x0 DUP2 MSTORE PUSH1 0x20 ADD PUSH1 0x0 DUP2 MSTORE PUSH1 0x20 ADD PUSH1 0x0 DUP2 MSTORE PUSH1 0x20 ADD PUSH1 0x0 DUP2 MSTORE PUSH1 0x20 ADD PUSH2 0x3C62 PUSH2 0x3BFC JUMP JUMPDEST DUP2 MSTORE POP SWAP1 JUMP JUMPDEST PUSH1 0x0 PUSH1 0x40 MLOAD SWAP1 POP SWAP1 JUMP JUMPDEST PUSH1 0x0 DUP1 REVERT JUMPDEST PUSH1 0x0 DUP1 REVERT JUMPDEST PUSH1 0x0 PUSH20 0xFFFFFFFFFFFFFFFFFFFFFFFFFFFFFFFFFFFFFFFF DUP3 AND SWAP1 POP SWAP2 SWAP1 POP JUMP JUMPDEST PUSH1 0x0 PUSH2 0x3CA7 DUP3 PUSH2 0x3C7C JUMP JUMPDEST SWAP1 POP SWAP2 SWAP1 POP JUMP JUMPDEST PUSH2 0x3CB7 DUP2 PUSH2 0x3C9C JUMP JUMPDEST DUP2 EQ PUSH2 0x3CC2 JUMPI PUSH1 0x0 DUP1 REVERT JUMPDEST POP JUMP JUMPDEST PUSH1 0x0 DUP2 CALLDATALOAD SWAP1 POP PUSH2 0x3CD4 DUP2 PUSH2 0x3CAE JUMP JUMPDEST SWAP3 SWAP2 POP POP JUMP JUMPDEST PUSH1 0x0 PUSH1 0x20 DUP3 DUP5 SUB SLT ISZERO PUSH2 0x3CF0 JUMPI PUSH2 0x3CEF PUSH2 0x3C72 JUMP JUMPDEST JUMPDEST PUSH1 0x0 PUSH2 0x3CFE DUP5 DUP3 DUP6 ADD PUSH2 0x3CC5 JUMP JUMPDEST SWAP2 POP POP SWAP3 SWAP2 POP POP JUMP JUMPDEST PUSH1 0x0 DUP2 SWAP1 POP SWAP2 SWAP1 POP JUMP JUMPDEST PUSH2 0x3D1A DUP2 PUSH2 0x3D07 JUMP JUMPDEST DUP3 MSTORE POP POP JUMP JUMPDEST PUSH1 0x0 PUSH1 0x20 DUP3 ADD SWAP1 POP PUSH2 0x3D35 PUSH1 0x0 DUP4 ADD DUP5 PUSH2 0x3D11 JUMP JUMPDEST SWAP3 SWAP2 POP POP JUMP JUMPDEST PUSH2 0x3D44 DUP2 PUSH2 0x3D07 JUMP JUMPDEST DUP2 EQ PUSH2 0x3D4F JUMPI PUSH1 0x0 DUP1 REVERT JUMPDEST POP JUMP JUMPDEST PUSH1 0x0 DUP2 CALLDATALOAD SWAP1 POP PUSH2 0x3D61 DUP2 PUSH2 0x3D3B JUMP JUMPDEST SWAP3 SWAP2 POP POP JUMP JUMPDEST PUSH1 0x0 PUSH1 0x20 DUP3 DUP5 SUB SLT ISZERO PUSH2 0x3D7D JUMPI PUSH2 0x3D7C PUSH2 0x3C72 JUMP JUMPDEST JUMPDEST PUSH1 0x0 PUSH2 0x3D8B DUP5 DUP3 DUP6 ADD PUSH2 0x3D52 JUMP JUMPDEST SWAP2 POP POP SWAP3 SWAP2 POP POP JUMP JUMPDEST PUSH2 0x3D9D DUP2 PUSH2 0x3D07 JUMP JUMPDEST DUP3 MSTORE POP POP JUMP JUMPDEST PUSH1 0x0 DUP2 MLOAD SWAP1 POP SWAP2 SWAP1 POP JUMP JUMPDEST PUSH1 0x0 DUP3 DUP3 MSTORE PUSH1 0x20 DUP3 ADD SWAP1 POP SWAP3 SWAP2 POP POP JUMP JUMPDEST PUSH1 0x0 JUMPDEST DUP4 DUP2 LT ISZERO PUSH2 0x3DDD JUMPI DUP1 DUP3 ADD MLOAD DUP2 DUP5 ADD MSTORE PUSH1 0x20 DUP2 ADD SWAP1 POP PUSH2 0x3DC2 JUMP JUMPDEST PUSH1 0x0 DUP5 DUP5 ADD MSTORE POP POP POP POP JUMP JUMPDEST PUSH1 0x0 PUSH1 0x1F NOT PUSH1 0x1F DUP4 ADD AND SWAP1 POP SWAP2 SWAP1 POP JUMP JUMPDEST PUSH1 0x0 PUSH2 0x3E05 DUP3 PUSH2 0x3DA3 JUMP JUMPDEST PUSH2 0x3E0F DUP2 DUP6 PUSH2 0x3DAE JUMP JUMPDEST SWAP4 POP PUSH2 0x3E1F DUP2 DUP6 PUSH1 0x20 DUP7 ADD PUSH2 0x3DBF JUMP JUMPDEST PUSH2 0x3E28 DUP2 PUSH2 0x3DE9 JUMP JUMPDEST DUP5 ADD SWAP2 POP POP SWAP3 SWAP2 POP POP JUMP JUMPDEST PUSH1 0x0 DUP2 SWAP1 POP SWAP2 SWAP1 POP JUMP JUMPDEST PUSH2 0x3E46 DUP2 PUSH2 0x3E33 JUMP JUMPDEST DUP3 MSTORE POP POP JUMP JUMPDEST PUSH1 0x40 DUP3 ADD PUSH1 0x0 DUP3 ADD MLOAD PUSH2 0x3E62 PUSH1 0x0 DUP6 ADD DUP3 PUSH2 0x3E3D JUMP JUMPDEST POP PUSH1 0x20 DUP3 ADD MLOAD PUSH2 0x3E75 PUSH1 0x20 DUP6 ADD DUP3 PUSH2 0x3E3D JUMP JUMPDEST POP POP POP POP JUMP JUMPDEST PUSH1 0x20 DUP3 ADD PUSH1 0x0 DUP3 ADD MLOAD PUSH2 0x3E91 PUSH1 0x0 DUP6 ADD DUP3 PUSH2 0x3D94 JUMP JUMPDEST POP POP POP POP JUMP JUMPDEST PUSH1 0x0 PUSH2 0x100 DUP4 ADD PUSH1 0x0 DUP4 ADD MLOAD PUSH2 0x3EB0 PUSH1 0x0 DUP7 ADD DUP3 PUSH2 0x3D94 JUMP JUMPDEST POP PUSH1 0x20 DUP4 ADD MLOAD PUSH2 0x3EC3 PUSH1 0x20 DUP7 ADD DUP3 PUSH2 0x3D94 JUMP JUMPDEST POP PUSH1 0x40 DUP4 ADD MLOAD DUP5 DUP3 SUB PUSH1 0x40 DUP7 ADD MSTORE PUSH2 0x3EDB DUP3 DUP3 PUSH2 0x3DFA JUMP JUMPDEST SWAP2 POP POP PUSH1 0x60 DUP4 ADD MLOAD PUSH2 0x3EF0 PUSH1 0x60 DUP7 ADD DUP3 PUSH2 0x3E4C JUMP JUMPDEST POP PUSH1 0x80 DUP4 ADD MLOAD DUP5 DUP3 SUB PUSH1 0xA0 DUP7 ADD MSTORE PUSH2 0x3F08 DUP3 DUP3 PUSH2 0x3DFA JUMP JUMPDEST SWAP2 POP POP PUSH1 0xA0 DUP4 ADD MLOAD DUP5 DUP3 SUB PUSH1 0xC0 DUP7 ADD MSTORE PUSH2 0x3F22 DUP3 DUP3 PUSH2 0x3DFA JUMP JUMPDEST SWAP2 POP POP PUSH1 0xC0 DUP4 ADD MLOAD PUSH2 0x3F37 PUSH1 0xE0 DUP7 ADD DUP3 PUSH2 0x3E7B JUMP JUMPDEST POP DUP1 SWAP2 POP POP SWAP3 SWAP2 POP POP JUMP JUMPDEST PUSH1 0x0 PUSH1 0x20 DUP3 ADD SWAP1 POP DUP2 DUP2 SUB PUSH1 0x0 DUP4 ADD MSTORE PUSH2 0x3F5C DUP2 DUP5 PUSH2 0x3E97 JUMP JUMPDEST SWAP1 POP SWAP3 SWAP2 POP POP JUMP JUMPDEST PUSH1 0x0 DUP2 MLOAD SWAP1 POP SWAP2 SWAP1 POP JUMP JUMPDEST PUSH1 0x0 DUP3 DUP3 MSTORE PUSH1 0x20 DUP3 ADD SWAP1 POP SWAP3 SWAP2 POP POP JUMP JUMPDEST PUSH1 0x0 DUP2 SWAP1 POP PUSH1 0x20 DUP3 ADD SWAP1 POP SWAP2 SWAP1 POP JUMP JUMPDEST PUSH1 0x0 PUSH1 0x60 DUP4 ADD PUSH1 0x0 DUP4 ADD MLOAD PUSH2 0x3FA8 PUSH1 0x0 DUP7 ADD DUP3 PUSH2 0x3D94 JUMP JUMPDEST POP PUSH1 0x20 DUP4 ADD MLOAD DUP5 DUP3 SUB PUSH1 0x20 DUP7 ADD MSTORE PUSH2 0x3FC0 DUP3 DUP3 PUSH2 0x3DFA JUMP JUMPDEST SWAP2 POP POP PUSH1 0x40 DUP4 ADD MLOAD PUSH2 0x3FD5 PUSH1 0x40 DUP7 ADD DUP3 PUSH2 0x3E7B JUMP JUMPDEST POP DUP1 SWAP2 POP POP SWAP3 SWAP2 POP POP JUMP JUMPDEST PUSH1 0x0 PUSH2 0x3FEC DUP4 DUP4 PUSH2 0x3F90 JUMP JUMPDEST SWAP1 POP SWAP3 SWAP2 POP POP JUMP JUMPDEST PUSH1 0x0 PUSH1 0x20 DUP3 ADD SWAP1 POP SWAP2 SWAP1 POP JUMP JUMPDEST PUSH1 0x0 PUSH2 0x400C DUP3 PUSH2 0x3F64 JUMP JUMPDEST PUSH2 0x4016 DUP2 DUP6 PUSH2 0x3F6F JUMP JUMPDEST SWAP4 POP DUP4 PUSH1 0x20 DUP3 MUL DUP6 ADD PUSH2 0x4028 DUP6 PUSH2 0x3F80 JUMP JUMPDEST DUP1 PUSH1 0x0 JUMPDEST DUP6 DUP2 LT ISZERO PUSH2 0x4064 JUMPI DUP5 DUP5 SUB DUP10 MSTORE DUP2 MLOAD PUSH2 0x4045 DUP6 DUP3 PUSH2 0x3FE0 JUMP JUMPDEST SWAP5 POP PUSH2 0x4050 DUP4 PUSH2 0x3FF4 JUMP JUMPDEST SWAP3 POP PUSH1 0x20 DUP11 ADD SWAP10 POP POP PUSH1 0x1 DUP2 ADD SWAP1 POP PUSH2 0x402C JUMP JUMPDEST POP DUP3 SWAP8 POP DUP8 SWAP6 POP POP POP POP POP POP SWAP3 SWAP2 POP POP JUMP JUMPDEST PUSH1 0x0 PUSH1 0x20 DUP3 ADD SWAP1 POP DUP2 DUP2 SUB PUSH1 0x0 DUP4 ADD MSTORE PUSH2 0x4090 DUP2 DUP5 PUSH2 0x4001 JUMP JUMPDEST SWAP1 POP SWAP3 SWAP2 POP POP JUMP JUMPDEST PUSH1 0x0 DUP1 REVERT JUMPDEST PUSH1 0x0 DUP1 REVERT JUMPDEST PUSH32 0x4E487B7100000000000000000000000000000000000000000000000000000000 PUSH1 0x0 MSTORE PUSH1 0x41 PUSH1 0x4 MSTORE PUSH1 0x24 PUSH1 0x0 REVERT JUMPDEST PUSH2 0x40DA DUP3 PUSH2 0x3DE9 JUMP JUMPDEST DUP2 ADD DUP2 DUP2 LT PUSH8 0xFFFFFFFFFFFFFFFF DUP3 GT OR ISZERO PUSH2 0x40F9 JUMPI PUSH2 0x40F8 PUSH2 0x40A2 JUMP JUMPDEST JUMPDEST DUP1 PUSH1 0x40 MSTORE POP POP POP JUMP JUMPDEST PUSH1 0x0 PUSH2 0x410C PUSH2 0x3C68 JUMP JUMPDEST SWAP1 POP PUSH2 0x4118 DUP3 DUP3 PUSH2 0x40D1 JUMP JUMPDEST SWAP2 SWAP1 POP JUMP JUMPDEST PUSH1 0x0 PUSH8 0xFFFFFFFFFFFFFFFF DUP3 GT ISZERO PUSH2 0x4138 JUMPI PUSH2 0x4137 PUSH2 0x40A2 JUMP JUMPDEST JUMPDEST PUSH2 0x4141 DUP3 PUSH2 0x3DE9 JUMP JUMPDEST SWAP1 POP PUSH1 0x20 DUP2 ADD SWAP1 POP SWAP2 SWAP1 POP JUMP JUMPDEST DUP3 DUP2 DUP4 CALLDATACOPY PUSH1 0x0 DUP4 DUP4 ADD MSTORE POP POP POP JUMP JUMPDEST PUSH1 0x0 PUSH2 0x4170 PUSH2 0x416B DUP5 PUSH2 0x411D JUMP JUMPDEST PUSH2 0x4102 JUMP JUMPDEST SWAP1 POP DUP3 DUP2 MSTORE PUSH1 0x20 DUP2 ADD DUP5 DUP5 DUP5 ADD GT ISZERO PUSH2 0x418C JUMPI PUSH2 0x418B PUSH2 0x409D JUMP JUMPDEST JUMPDEST PUSH2 0x4197 DUP5 DUP3 DUP6 PUSH2 0x414E JUMP JUMPDEST POP SWAP4 SWAP3 POP POP POP JUMP JUMPDEST PUSH1 0x0 DUP3 PUSH1 0x1F DUP4 ADD SLT PUSH2 0x41B4 JUMPI PUSH2 0x41B3 PUSH2 0x4098 JUMP JUMPDEST JUMPDEST DUP2 CALLDATALOAD PUSH2 0x41C4 DUP5 DUP3 PUSH1 0x20 DUP7 ADD PUSH2 0x415D JUMP JUMPDEST SWAP2 POP POP SWAP3 SWAP2 POP POP JUMP JUMPDEST PUSH1 0x0 DUP1 PUSH1 0x40 DUP4 DUP6 SUB SLT ISZERO PUSH2 0x41E4 JUMPI PUSH2 0x41E3 PUSH2 0x3C72 JUMP JUMPDEST JUMPDEST PUSH1 0x0 PUSH2 0x41F2 DUP6 DUP3 DUP7 ADD PUSH2 0x3D52 JUMP JUMPDEST SWAP3 POP POP PUSH1 0x20 DUP4 ADD CALLDATALOAD PUSH8 0xFFFFFFFFFFFFFFFF DUP2 GT ISZERO PUSH2 0x4213 JUMPI PUSH2 0x4212 PUSH2 0x3C77 JUMP JUMPDEST JUMPDEST PUSH2 0x421F DUP6 DUP3 DUP7 ADD PUSH2 0x419F JUMP JUMPDEST SWAP2 POP POP SWAP3 POP SWAP3 SWAP1 POP JUMP JUMPDEST PUSH1 0x0 DUP3 DUP3 MSTORE PUSH1 0x20 DUP3 ADD SWAP1 POP SWAP3 SWAP2 POP POP JUMP JUMPDEST PUSH1 0x0 PUSH2 0x4245 DUP3 PUSH2 0x3DA3 JUMP JUMPDEST PUSH2 0x424F DUP2 DUP6 PUSH2 0x4229 JUMP JUMPDEST SWAP4 POP PUSH2 0x425F DUP2 DUP6 PUSH1 0x20 DUP7 ADD PUSH2 0x3DBF JUMP JUMPDEST PUSH2 0x4268 DUP2 PUSH2 0x3DE9 JUMP JUMPDEST DUP5 ADD SWAP2 POP POP SWAP3 SWAP2 POP POP JUMP JUMPDEST PUSH1 0x40 DUP3 ADD PUSH1 0x0 DUP3 ADD MLOAD PUSH2 0x4289 PUSH1 0x0 DUP6 ADD DUP3 PUSH2 0x3E3D JUMP JUMPDEST POP PUSH1 0x20 DUP3 ADD MLOAD PUSH2 0x429C PUSH1 0x20 DUP6 ADD DUP3 PUSH2 0x3E3D JUMP JUMPDEST POP POP POP POP JUMP JUMPDEST PUSH1 0x20 DUP3 ADD PUSH1 0x0 DUP3 ADD MLOAD PUSH2 0x42B8 PUSH1 0x0 DUP6 ADD DUP3 PUSH2 0x3D94 JUMP JUMPDEST POP POP POP POP JUMP JUMPDEST PUSH1 0x0 PUSH2 0x100 DUP3 ADD SWAP1 POP PUSH2 0x42D4 PUSH1 0x0 DUP4 ADD DUP11 PUSH2 0x3D11 JUMP JUMPDEST PUSH2 0x42E1 PUSH1 0x20 DUP4 ADD DUP10 PUSH2 0x3D11 JUMP JUMPDEST DUP2 DUP2 SUB PUSH1 0x40 DUP4 ADD MSTORE PUSH2 0x42F3 DUP2 DUP9 PUSH2 0x423A JUMP JUMPDEST SWAP1 POP PUSH2 0x4302 PUSH1 0x60 DUP4 ADD DUP8 PUSH2 0x4273 JUMP JUMPDEST DUP2 DUP2 SUB PUSH1 0xA0 DUP4 ADD MSTORE PUSH2 0x4314 DUP2 DUP7 PUSH2 0x423A JUMP JUMPDEST SWAP1 POP DUP2 DUP2 SUB PUSH1 0xC0 DUP4 ADD MSTORE PUSH2 0x4328 DUP2 DUP6 PUSH2 0x423A JUMP JUMPDEST SWAP1 POP PUSH2 0x4337 PUSH1 0xE0 DUP4 ADD DUP5 PUSH2 0x42A2 JUMP JUMPDEST SWAP9 SWAP8 POP POP POP POP POP POP POP POP JUMP JUMPDEST PUSH1 0x0 DUP1 REVERT JUMPDEST PUSH2 0x4351 DUP2 PUSH2 0x3E33 JUMP JUMPDEST DUP2 EQ PUSH2 0x435C JUMPI PUSH1 0x0 DUP1 REVERT JUMPDEST POP JUMP JUMPDEST PUSH1 0x0 DUP2 CALLDATALOAD SWAP1 POP PUSH2 0x436E DUP2 PUSH2 0x4348 JUMP JUMPDEST SWAP3 SWAP2 POP POP JUMP JUMPDEST PUSH1 0x0 PUSH1 0x20 DUP3 DUP5 SUB SLT ISZERO PUSH2 0x438A JUMPI PUSH2 0x4389 PUSH2 0x4343 JUMP JUMPDEST JUMPDEST PUSH2 0x4394 PUSH1 0x20 PUSH2 0x4102 JUMP JUMPDEST SWAP1 POP PUSH1 0x0 PUSH2 0x43A4 DUP5 DUP3 DUP6 ADD PUSH2 0x3D52 JUMP JUMPDEST PUSH1 0x0 DUP4 ADD MSTORE POP SWAP3 SWAP2 POP POP JUMP JUMPDEST PUSH1 0x0 PUSH1 0xC0 DUP3 DUP5 SUB SLT ISZERO PUSH2 0x43C6 JUMPI PUSH2 0x43C5 PUSH2 0x4343 JUMP JUMPDEST JUMPDEST PUSH2 0x43D0 PUSH1 0xC0 PUSH2 0x4102 JUMP JUMPDEST SWAP1 POP PUSH1 0x0 PUSH2 0x43E0 DUP5 DUP3 DUP6 ADD PUSH2 0x435F JUMP JUMPDEST PUSH1 0x0 DUP4 ADD MSTORE POP PUSH1 0x20 PUSH2 0x43F4 DUP5 DUP3 DUP6 ADD PUSH2 0x3D52 JUMP JUMPDEST PUSH1 0x20 DUP4 ADD MSTORE POP PUSH1 0x40 PUSH2 0x4408 DUP5 DUP3 DUP6 ADD PUSH2 0x3D52 JUMP JUMPDEST PUSH1 0x40 DUP4 ADD MSTORE POP PUSH1 0x60 PUSH2 0x441C DUP5 DUP3 DUP6 ADD PUSH2 0x3D52 JUMP JUMPDEST PUSH1 0x60 DUP4 ADD MSTORE POP PUSH1 0x80 PUSH2 0x4430 DUP5 DUP3 DUP6 ADD PUSH2 0x3D52 JUMP JUMPDEST PUSH1 0x80 DUP4 ADD MSTORE POP PUSH1 0xA0 PUSH2 0x4444 DUP5 DUP3 DUP6 ADD PUSH2 0x4374 JUMP JUMPDEST PUSH1 0xA0 DUP4 ADD MSTORE POP SWAP3 SWAP2 POP POP JUMP JUMPDEST PUSH1 0x0 DUP1 PUSH1 0xE0 DUP4 DUP6 SUB SLT ISZERO PUSH2 0x4467 JUMPI PUSH2 0x4466 PUSH2 0x3C72 JUMP JUMPDEST JUMPDEST PUSH1 0x0 PUSH2 0x4475 DUP6 DUP3 DUP7 ADD PUSH2 0x3D52 JUMP JUMPDEST SWAP3 POP POP PUSH1 0x20 PUSH2 0x4486 DUP6 DUP3 DUP7 ADD PUSH2 0x43B0 JUMP JUMPDEST SWAP2 POP POP SWAP3 POP SWAP3 SWAP1 POP JUMP JUMPDEST PUSH1 0xC0 DUP3 ADD PUSH1 0x0 DUP3 ADD MLOAD PUSH2 0x44A6 PUSH1 0x0 DUP6 ADD DUP3 PUSH2 0x3E3D JUMP JUMPDEST POP PUSH1 0x20 DUP3 ADD MLOAD PUSH2 0x44B9 PUSH1 0x20 DUP6 ADD DUP3 PUSH2 0x3D94 JUMP JUMPDEST POP PUSH1 0x40 DUP3 ADD MLOAD PUSH2 0x44CC PUSH1 0x40 DUP6 ADD DUP3 PUSH2 0x3D94 JUMP JUMPDEST POP PUSH1 0x60 DUP3 ADD MLOAD PUSH2 0x44DF PUSH1 0x60 DUP6 ADD DUP3 PUSH2 0x3D94 JUMP JUMPDEST POP PUSH1 0x80 DUP3 ADD MLOAD PUSH2 0x44F2 PUSH1 0x80 DUP6 ADD DUP3 PUSH2 0x3D94 JUMP JUMPDEST POP PUSH1 0xA0 DUP3 ADD MLOAD PUSH2 0x4505 PUSH1 0xA0 DUP6 ADD DUP3 PUSH2 0x3E7B JUMP JUMPDEST POP POP POP POP JUMP JUMPDEST PUSH1 0x0 PUSH2 0x1A0 DUP4 ADD PUSH1 0x0 DUP4 ADD MLOAD PUSH2 0x4524 PUSH1 0x0 DUP7 ADD DUP3 PUSH2 0x3D94 JUMP JUMPDEST POP PUSH1 0x20 DUP4 ADD MLOAD DUP5 DUP3 SUB PUSH1 0x20 DUP7 ADD MSTORE PUSH2 0x453C DUP3 DUP3 PUSH2 0x3DFA JUMP JUMPDEST SWAP2 POP POP PUSH1 0x40 DUP4 ADD MLOAD PUSH2 0x4551 PUSH1 0x40 DUP7 ADD DUP3 PUSH2 0x3E4C JUMP JUMPDEST POP PUSH1 0x60 DUP4 ADD MLOAD DUP5 DUP3 SUB PUSH1 0x80 DUP7 ADD MSTORE PUSH2 0x4569 DUP3 DUP3 PUSH2 0x3DFA JUMP JUMPDEST SWAP2 POP POP PUSH1 0x80 DUP4 ADD MLOAD PUSH2 0x457E PUSH1 0xA0 DUP7 ADD DUP3 PUSH2 0x4490 JUMP JUMPDEST POP PUSH1 0xA0 DUP4 ADD MLOAD DUP5 DUP3 SUB PUSH2 0x160 DUP7 ADD MSTORE PUSH2 0x4597 DUP3 DUP3 PUSH2 0x3DFA JUMP JUMPDEST SWAP2 POP POP PUSH1 0xC0 DUP4 ADD MLOAD PUSH2 0x45AD PUSH2 0x180 DUP7 ADD DUP3 PUSH2 0x3E7B JUMP JUMPDEST POP DUP1 SWAP2 POP POP SWAP3 SWAP2 POP POP JUMP JUMPDEST PUSH1 0x0 PUSH1 0x20 DUP3 ADD SWAP1 POP DUP2 DUP2 SUB PUSH1 0x0 DUP4 ADD MSTORE PUSH2 0x45D2 DUP2 DUP5 PUSH2 0x450B JUMP JUMPDEST SWAP1 POP SWAP3 SWAP2 POP POP JUMP JUMPDEST PUSH1 0x0 DUP1 PUSH1 0x40 DUP4 DUP6 SUB SLT ISZERO PUSH2 0x45F1 JUMPI PUSH2 0x45F0 PUSH2 0x3C72 JUMP JUMPDEST JUMPDEST PUSH1 0x0 PUSH2 0x45FF DUP6 DUP3 DUP7 ADD PUSH2 0x3D52 JUMP JUMPDEST SWAP3 POP POP PUSH1 0x20 PUSH2 0x4610 DUP6 DUP3 DUP7 ADD PUSH2 0x3D52 JUMP JUMPDEST SWAP2 POP POP SWAP3 POP SWAP3 SWAP1 POP JUMP JUMPDEST PUSH1 0x0 PUSH1 0x60 DUP3 ADD SWAP1 POP PUSH2 0x462F PUSH1 0x0 DUP4 ADD DUP7 PUSH2 0x3D11 JUMP JUMPDEST DUP2 DUP2 SUB PUSH1 0x20 DUP4 ADD MSTORE PUSH2 0x4641 DUP2 DUP6 PUSH2 0x423A JUMP JUMPDEST SWAP1 POP PUSH2 0x4650 PUSH1 0x40 DUP4 ADD DUP5 PUSH2 0x42A2 JUMP JUMPDEST SWAP5 SWAP4 POP POP POP POP JUMP JUMPDEST PUSH1 0x0 DUP1 PUSH1 0x0 PUSH1 0x60 DUP5 DUP7 SUB SLT ISZERO PUSH2 0x4671 JUMPI PUSH2 0x4670 PUSH2 0x3C72 JUMP JUMPDEST JUMPDEST PUSH1 0x0 DUP5 ADD CALLDATALOAD PUSH8 0xFFFFFFFFFFFFFFFF DUP2 GT ISZERO PUSH2 0x468F JUMPI PUSH2 0x468E PUSH2 0x3C77 JUMP JUMPDEST JUMPDEST PUSH2 0x469B DUP7 DUP3 DUP8 ADD PUSH2 0x419F JUMP JUMPDEST SWAP4 POP POP PUSH1 0x20 PUSH2 0x46AC DUP7 DUP3 DUP8 ADD PUSH2 0x435F JUMP JUMPDEST SWAP3 POP POP PUSH1 0x40 PUSH2 0x46BD DUP7 DUP3 DUP8 ADD PUSH2 0x3D52 JUMP JUMPDEST SWAP2 POP POP SWAP3 POP SWAP3 POP SWAP3 JUMP JUMPDEST PUSH1 0x0 DUP2 ISZERO ISZERO SWAP1 POP SWAP2 SWAP1 POP JUMP JUMPDEST PUSH2 0x46DC DUP2 PUSH2 0x46C7 JUMP JUMPDEST DUP3 MSTORE POP POP JUMP JUMPDEST PUSH1 0x0 PUSH1 0x20 DUP3 ADD SWAP1 POP PUSH2 0x46F7 PUSH1 0x0 DUP4 ADD DUP5 PUSH2 0x46D3 JUMP JUMPDEST SWAP3 SWAP2 POP POP JUMP JUMPDEST PUSH1 0x0 DUP2 MLOAD SWAP1 POP SWAP2 SWAP1 POP JUMP JUMPDEST PUSH1 0x0 DUP3 DUP3 MSTORE PUSH1 0x20 DUP3 ADD SWAP1 POP SWAP3 SWAP2 POP POP JUMP JUMPDEST PUSH1 0x0 DUP2 SWAP1 POP PUSH1 0x20 DUP3 ADD SWAP1 POP SWAP2 SWAP1 POP JUMP JUMPDEST PUSH1 0x0 PUSH2 0x4735 DUP4 DUP4 PUSH2 0x3DFA JUMP JUMPDEST SWAP1 POP SWAP3 SWAP2 POP POP JUMP JUMPDEST PUSH1 0x0 PUSH1 0x20 DUP3 ADD SWAP1 POP SWAP2 SWAP1 POP JUMP JUMPDEST PUSH1 0x0 PUSH2 0x4755 DUP3 PUSH2 0x46FD JUMP JUMPDEST PUSH2 0x475F DUP2 DUP6 PUSH2 0x4708 JUMP JUMPDEST SWAP4 POP DUP4 PUSH1 0x20 DUP3 MUL DUP6 ADD PUSH2 0x4771 DUP6 PUSH2 0x4719 JUMP JUMPDEST DUP1 PUSH1 0x0 JUMPDEST DUP6 DUP2 LT ISZERO PUSH2 0x47AD JUMPI DUP5 DUP5 SUB DUP10 MSTORE DUP2 MLOAD PUSH2 0x478E DUP6 DUP3 PUSH2 0x4729 JUMP JUMPDEST SWAP5 POP PUSH2 0x4799 DUP4 PUSH2 0x473D JUMP JUMPDEST SWAP3 POP PUSH1 0x20 DUP11 ADD SWAP10 POP POP PUSH1 0x1 DUP2 ADD SWAP1 POP PUSH2 0x4775 JUMP JUMPDEST POP DUP3 SWAP8 POP DUP8 SWAP6 POP POP POP POP POP POP SWAP3 SWAP2 POP POP JUMP JUMPDEST PUSH1 0x0 PUSH1 0x20 DUP3 ADD SWAP1 POP DUP2 DUP2 SUB PUSH1 0x0 DUP4 ADD MSTORE PUSH2 0x47D9 DUP2 DUP5 PUSH2 0x474A JUMP JUMPDEST SWAP1 POP SWAP3 SWAP2 POP POP JUMP JUMPDEST PUSH1 0x0 PUSH1 0x60 DUP4 ADD PUSH1 0x0 DUP4 ADD MLOAD PUSH2 0x47F9 PUSH1 0x0 DUP7 ADD DUP3 PUSH2 0x3D94 JUMP JUMPDEST POP PUSH1 0x20 DUP4 ADD MLOAD DUP5 DUP3 SUB PUSH1 0x20 DUP7 ADD MSTORE PUSH2 0x4811 DUP3 DUP3 PUSH2 0x3DFA JUMP JUMPDEST SWAP2 POP POP PUSH1 0x40 DUP4 ADD MLOAD PUSH2 0x4826 PUSH1 0x40 DUP7 ADD DUP3 PUSH2 0x3E7B JUMP JUMPDEST POP DUP1 SWAP2 POP POP SWAP3 SWAP2 POP POP JUMP JUMPDEST PUSH1 0x0 PUSH1 0x20 DUP3 ADD SWAP1 POP DUP2 DUP2 SUB PUSH1 0x0 DUP4 ADD MSTORE PUSH2 0x484B DUP2 DUP5 PUSH2 0x47E1 JUMP JUMPDEST SWAP1 POP SWAP3 SWAP2 POP POP JUMP JUMPDEST PUSH2 0x485C DUP2 PUSH2 0x3C9C JUMP JUMPDEST DUP3 MSTORE POP POP JUMP JUMPDEST PUSH1 0x0 PUSH1 0x20 DUP3 ADD SWAP1 POP PUSH2 0x4877 PUSH1 0x0 DUP4 ADD DUP5 PUSH2 0x4853 JUMP JUMPDEST SWAP3 SWAP2 POP POP JUMP JUMPDEST PUSH1 0x0 PUSH1 0x40 DUP3 DUP5 SUB SLT ISZERO PUSH2 0x4893 JUMPI PUSH2 0x4892 PUSH2 0x4343 JUMP JUMPDEST JUMPDEST PUSH2 0x489D PUSH1 0x40 PUSH2 0x4102 JUMP JUMPDEST SWAP1 POP PUSH1 0x0 PUSH2 0x48AD DUP5 DUP3 DUP6 ADD PUSH2 0x435F JUMP JUMPDEST PUSH1 0x0 DUP4 ADD MSTORE POP PUSH1 0x20 PUSH2 0x48C1 DUP5 DUP3 DUP6 ADD PUSH2 0x435F JUMP JUMPDEST PUSH1 0x20 DUP4 ADD MSTORE POP SWAP3 SWAP2 POP POP JUMP JUMPDEST PUSH1 0x0 DUP1 PUSH1 0x0 DUP1 PUSH1 0xA0 DUP6 DUP8 SUB SLT ISZERO PUSH2 0x48E7 JUMPI PUSH2 0x48E6 PUSH2 0x3C72 JUMP JUMPDEST JUMPDEST PUSH1 0x0 PUSH2 0x48F5 DUP8 DUP3 DUP9 ADD PUSH2 0x3D52 JUMP JUMPDEST SWAP5 POP POP PUSH1 0x20 PUSH2 0x4906 DUP8 DUP3 DUP9 ADD PUSH2 0x487D JUMP JUMPDEST SWAP4 POP POP PUSH1 0x60 DUP6 ADD CALLDATALOAD PUSH8 0xFFFFFFFFFFFFFFFF DUP2 GT ISZERO PUSH2 0x4927 JUMPI PUSH2 0x4926 PUSH2 0x3C77 JUMP JUMPDEST JUMPDEST PUSH2 0x4933 DUP8 DUP3 DUP9 ADD PUSH2 0x419F JUMP JUMPDEST SWAP3 POP POP PUSH1 0x80 DUP6 ADD CALLDATALOAD PUSH8 0xFFFFFFFFFFFFFFFF DUP2 GT ISZERO PUSH2 0x4954 JUMPI PUSH2 0x4953 PUSH2 0x3C77 JUMP JUMPDEST JUMPDEST PUSH2 0x4960 DUP8 DUP3 DUP9 ADD PUSH2 0x419F JUMP JUMPDEST SWAP2 POP POP SWAP3 SWAP6 SWAP2 SWAP5 POP SWAP3 POP JUMP JUMPDEST PUSH1 0x0 PUSH1 0xA0 DUP3 ADD SWAP1 POP PUSH2 0x4981 PUSH1 0x0 DUP4 ADD DUP9 PUSH2 0x3D11 JUMP JUMPDEST DUP2 DUP2 SUB PUSH1 0x20 DUP4 ADD MSTORE PUSH2 0x4993 DUP2 DUP8 PUSH2 0x423A JUMP JUMPDEST SWAP1 POP DUP2 DUP2 SUB PUSH1 0x40 DUP4 ADD MSTORE PUSH2 0x49A7 DUP2 DUP7 PUSH2 0x423A JUMP JUMPDEST SWAP1 POP PUSH2 0x49B6 PUSH1 0x60 DUP4 ADD DUP6 PUSH2 0x3D11 JUMP JUMPDEST PUSH2 0x49C3 PUSH1 0x80 DUP4 ADD DUP5 PUSH2 0x42A2 JUMP JUMPDEST SWAP7 SWAP6 POP POP POP POP POP POP JUMP JUMPDEST PUSH1 0x0 PUSH1 0x60 DUP3 ADD SWAP1 POP PUSH2 0x49E2 PUSH1 0x0 DUP4 ADD DUP7 PUSH2 0x3D11 JUMP JUMPDEST PUSH2 0x49EF PUSH1 0x20 DUP4 ADD DUP6 PUSH2 0x3D11 JUMP JUMPDEST PUSH2 0x49FC PUSH1 0x40 DUP4 ADD DUP5 PUSH2 0x3D11 JUMP JUMPDEST SWAP5 SWAP4 POP POP POP POP JUMP JUMPDEST PUSH1 0x0 PUSH1 0x20 DUP3 DUP5 SUB SLT ISZERO PUSH2 0x4A1A JUMPI PUSH2 0x4A19 PUSH2 0x3C72 JUMP JUMPDEST JUMPDEST PUSH1 0x0 DUP3 ADD CALLDATALOAD PUSH8 0xFFFFFFFFFFFFFFFF DUP2 GT ISZERO PUSH2 0x4A38 JUMPI PUSH2 0x4A37 PUSH2 0x3C77 JUMP JUMPDEST JUMPDEST PUSH2 0x4A44 DUP5 DUP3 DUP6 ADD PUSH2 0x419F JUMP JUMPDEST SWAP2 POP POP SWAP3 SWAP2 POP POP JUMP JUMPDEST PUSH1 0x0 DUP2 MLOAD SWAP1 POP SWAP2 SWAP1 POP JUMP JUMPDEST PUSH1 0x0 DUP3 DUP3 MSTORE PUSH1 0x20 DUP3 ADD SWAP1 POP SWAP3 SWAP2 POP POP JUMP JUMPDEST PUSH1 0x0 DUP2 SWAP1 POP PUSH1 0x20 DUP3 ADD SWAP1 POP SWAP2 SWAP1 POP JUMP JUMPDEST PUSH1 0x0 PUSH2 0x4A85 DUP4 DUP4 PUSH2 0x3D94 JUMP JUMPDEST PUSH1 0x20 DUP4 ADD SWAP1 POP SWAP3 SWAP2 POP POP JUMP JUMPDEST PUSH1 0x0 PUSH1 0x20 DUP3 ADD SWAP1 POP SWAP2 SWAP1 POP JUMP JUMPDEST PUSH1 0x0 PUSH2 0x4AA9 DUP3 PUSH2 0x4A4D JUMP JUMPDEST PUSH2 0x4AB3 DUP2 DUP6 PUSH2 0x4A58 JUMP JUMPDEST SWAP4 POP PUSH2 0x4ABE DUP4 PUSH2 0x4A69 JUMP JUMPDEST DUP1 PUSH1 0x0 JUMPDEST DUP4 DUP2 LT ISZERO PUSH2 0x4AEF JUMPI DUP2 MLOAD PUSH2 0x4AD6 DUP9 DUP3 PUSH2 0x4A79 JUMP JUMPDEST SWAP8 POP PUSH2 0x4AE1 DUP4 PUSH2 0x4A91 JUMP JUMPDEST SWAP3 POP POP PUSH1 0x1 DUP2 ADD SWAP1 POP PUSH2 0x4AC2 JUMP JUMPDEST POP DUP6 SWAP4 POP POP POP POP SWAP3 SWAP2 POP POP JUMP JUMPDEST PUSH1 0x0 PUSH1 0x20 DUP3 ADD SWAP1 POP DUP2 DUP2 SUB PUSH1 0x0 DUP4 ADD MSTORE PUSH2 0x4B16 DUP2 DUP5 PUSH2 0x4A9E JUMP JUMPDEST SWAP1 POP SWAP3 SWAP2 POP POP JUMP JUMPDEST PUSH1 0xC0 DUP3 ADD PUSH1 0x0 DUP3 ADD MLOAD PUSH2 0x4B34 PUSH1 0x0 DUP6 ADD DUP3 PUSH2 0x3E3D JUMP JUMPDEST POP PUSH1 0x20 DUP3 ADD MLOAD PUSH2 0x4B47 PUSH1 0x20 DUP6 ADD DUP3 PUSH2 0x3D94 JUMP JUMPDEST POP PUSH1 0x40 DUP3 ADD MLOAD PUSH2 0x4B5A PUSH1 0x40 DUP6 ADD DUP3 PUSH2 0x3D94 JUMP JUMPDEST POP PUSH1 0x60 DUP3 ADD MLOAD PUSH2 0x4B6D PUSH1 0x60 DUP6 ADD DUP3 PUSH2 0x3D94 JUMP JUMPDEST POP PUSH1 0x80 DUP3 ADD MLOAD PUSH2 0x4B80 PUSH1 0x80 DUP6 ADD DUP3 PUSH2 0x3D94 JUMP JUMPDEST POP PUSH1 0xA0 DUP3 ADD MLOAD PUSH2 0x4B93 PUSH1 0xA0 DUP6 ADD DUP3 PUSH2 0x3E7B JUMP JUMPDEST POP POP POP POP JUMP JUMPDEST PUSH1 0x0 PUSH2 0x1A0 DUP3 ADD SWAP1 POP PUSH2 0x4BAF PUSH1 0x0 DUP4 ADD DUP11 PUSH2 0x3D11 JUMP JUMPDEST DUP2 DUP2 SUB PUSH1 0x20 DUP4 ADD MSTORE PUSH2 0x4BC1 DUP2 DUP10 PUSH2 0x423A JUMP JUMPDEST SWAP1 POP PUSH2 0x4BD0 PUSH1 0x40 DUP4 ADD DUP9 PUSH2 0x4273 JUMP JUMPDEST DUP2 DUP2 SUB PUSH1 0x80 DUP4 ADD MSTORE PUSH2 0x4BE2 DUP2 DUP8 PUSH2 0x423A JUMP JUMPDEST SWAP1 POP PUSH2 0x4BF1 PUSH1 0xA0 DUP4 ADD DUP7 PUSH2 0x4B1E JUMP JUMPDEST DUP2 DUP2 SUB PUSH2 0x160 DUP4 ADD MSTORE PUSH2 0x4C04 DUP2 DUP6 PUSH2 0x423A JUMP JUMPDEST SWAP1 POP PUSH2 0x4C14 PUSH2 0x180 DUP4 ADD DUP5 PUSH2 0x42A2 JUMP JUMPDEST SWAP9 SWAP8 POP POP POP POP POP POP POP POP JUMP JUMPDEST PUSH1 0x0 DUP1 PUSH1 0x0 DUP1 PUSH1 0x0 DUP1 PUSH1 0x0 DUP1 PUSH1 0x0 PUSH2 0x140 DUP11 DUP13 SUB SLT ISZERO PUSH2 0x4C43 JUMPI PUSH2 0x4C42 PUSH2 0x3C72 JUMP JUMPDEST JUMPDEST PUSH1 0x0 DUP11 ADD CALLDATALOAD PUSH8 0xFFFFFFFFFFFFFFFF DUP2 GT ISZERO PUSH2 0x4C61 JUMPI PUSH2 0x4C60 PUSH2 0x3C77 JUMP JUMPDEST JUMPDEST PUSH2 0x4C6D DUP13 DUP3 DUP14 ADD PUSH2 0x419F JUMP JUMPDEST SWAP10 POP POP PUSH1 0x20 PUSH2 0x4C7E DUP13 DUP3 DUP14 ADD PUSH2 0x487D JUMP JUMPDEST SWAP9 POP POP PUSH1 0x60 DUP11 ADD CALLDATALOAD PUSH8 0xFFFFFFFFFFFFFFFF DUP2 GT ISZERO PUSH2 0x4C9F JUMPI PUSH2 0x4C9E PUSH2 0x3C77 JUMP JUMPDEST JUMPDEST PUSH2 0x4CAB DUP13 DUP3 DUP14 ADD PUSH2 0x419F JUMP JUMPDEST SWAP8 POP POP PUSH1 0x80 PUSH2 0x4CBC DUP13 DUP3 DUP14 ADD PUSH2 0x435F JUMP JUMPDEST SWAP7 POP POP PUSH1 0xA0 PUSH2 0x4CCD DUP13 DUP3 DUP14 ADD PUSH2 0x3D52 JUMP JUMPDEST SWAP6 POP POP PUSH1 0xC0 PUSH2 0x4CDE DUP13 DUP3 DUP14 ADD PUSH2 0x3D52 JUMP JUMPDEST SWAP5 POP POP PUSH1 0xE0 PUSH2 0x4CEF DUP13 DUP3 DUP14 ADD PUSH2 0x3D52 JUMP JUMPDEST SWAP4 POP POP PUSH2 0x100 PUSH2 0x4D01 DUP13 DUP3 DUP14 ADD PUSH2 0x3D52 JUMP JUMPDEST SWAP3 POP POP PUSH2 0x120 DUP11 ADD CALLDATALOAD PUSH8 0xFFFFFFFFFFFFFFFF DUP2 GT ISZERO PUSH2 0x4D23 JUMPI PUSH2 0x4D22 PUSH2 0x3C77 JUMP JUMPDEST JUMPDEST PUSH2 0x4D2F DUP13 DUP3 DUP14 ADD PUSH2 0x419F JUMP JUMPDEST SWAP2 POP POP SWAP3 SWAP6 SWAP9 POP SWAP3 SWAP6 SWAP9 POP SWAP3 SWAP6 SWAP9 JUMP JUMPDEST PUSH1 0x0 DUP1 PUSH1 0x60 DUP4 DUP6 SUB SLT ISZERO PUSH2 0x4D56 JUMPI PUSH2 0x4D55 PUSH2 0x3C72 JUMP JUMPDEST JUMPDEST PUSH1 0x0 PUSH2 0x4D64 DUP6 DUP3 DUP7 ADD PUSH2 0x3D52 JUMP JUMPDEST SWAP3 POP POP PUSH1 0x20 PUSH2 0x4D75 DUP6 DUP3 DUP7 ADD PUSH2 0x487D JUMP JUMPDEST SWAP2 POP POP SWAP3 POP SWAP3 SWAP1 POP JUMP JUMPDEST PUSH1 0x0 PUSH1 0x80 DUP3 ADD SWAP1 POP PUSH2 0x4D94 PUSH1 0x0 DUP4 ADD DUP8 PUSH2 0x3D11 JUMP JUMPDEST PUSH2 0x4DA1 PUSH1 0x20 DUP4 ADD DUP7 PUSH2 0x3D11 JUMP JUMPDEST PUSH2 0x4DAE PUSH1 0x40 DUP4 ADD DUP6 PUSH2 0x3D11 JUMP JUMPDEST PUSH2 0x4DBB PUSH1 0x60 DUP4 ADD DUP5 PUSH2 0x3D11 JUMP JUMPDEST SWAP6 SWAP5 POP POP POP POP POP JUMP JUMPDEST PUSH1 0x0 DUP1 PUSH1 0x0 PUSH1 0x60 DUP5 DUP7 SUB SLT ISZERO PUSH2 0x4DDD JUMPI PUSH2 0x4DDC PUSH2 0x3C72 JUMP JUMPDEST JUMPDEST PUSH1 0x0 DUP5 ADD CALLDATALOAD PUSH8 0xFFFFFFFFFFFFFFFF DUP2 GT ISZERO PUSH2 0x4DFB JUMPI PUSH2 0x4DFA PUSH2 0x3C77 JUMP JUMPDEST JUMPDEST PUSH2 0x4E07 DUP7 DUP3 DUP8 ADD PUSH2 0x419F JUMP JUMPDEST SWAP4 POP POP PUSH1 0x20 DUP5 ADD CALLDATALOAD PUSH8 0xFFFFFFFFFFFFFFFF DUP2 GT ISZERO PUSH2 0x4E28 JUMPI PUSH2 0x4E27 PUSH2 0x3C77 JUMP JUMPDEST JUMPDEST PUSH2 0x4E34 DUP7 DUP3 DUP8 ADD PUSH2 0x419F JUMP JUMPDEST SWAP3 POP POP PUSH1 0x40 PUSH2 0x4E45 DUP7 DUP3 DUP8 ADD PUSH2 0x3D52 JUMP JUMPDEST SWAP2 POP POP SWAP3 POP SWAP3 POP SWAP3 JUMP JUMPDEST PUSH1 0x0 DUP2 MLOAD SWAP1 POP SWAP2 SWAP1 POP JUMP JUMPDEST PUSH1 0x0 DUP3 DUP3 MSTORE PUSH1 0x20 DUP3 ADD SWAP1 POP SWAP3 SWAP2 POP POP JUMP JUMPDEST PUSH1 0x0 DUP2 SWAP1 POP PUSH1 0x20 DUP3 ADD SWAP1 POP SWAP2 SWAP1 POP JUMP JUMPDEST PUSH1 0x0 PUSH2 0x1A0 DUP4 ADD PUSH1 0x0 DUP4 ADD MLOAD PUSH2 0x4E94 PUSH1 0x0 DUP7 ADD DUP3 PUSH2 0x3D94 JUMP JUMPDEST POP PUSH1 0x20 DUP4 ADD MLOAD DUP5 DUP3 SUB PUSH1 0x20 DUP7 ADD MSTORE PUSH2 0x4EAC DUP3 DUP3 PUSH2 0x3DFA JUMP JUMPDEST SWAP2 POP POP PUSH1 0x40 DUP4 ADD MLOAD PUSH2 0x4EC1 PUSH1 0x40 DUP7 ADD DUP3 PUSH2 0x3E4C JUMP JUMPDEST POP PUSH1 0x60 DUP4 ADD MLOAD DUP5 DUP3 SUB PUSH1 0x80 DUP7 ADD MSTORE PUSH2 0x4ED9 DUP3 DUP3 PUSH2 0x3DFA JUMP JUMPDEST SWAP2 POP POP PUSH1 0x80 DUP4 ADD MLOAD PUSH2 0x4EEE PUSH1 0xA0 DUP7 ADD DUP3 PUSH2 0x4490 JUMP JUMPDEST POP PUSH1 0xA0 DUP4 ADD MLOAD DUP5 DUP3 SUB PUSH2 0x160 DUP7 ADD MSTORE PUSH2 0x4F07 DUP3 DUP3 PUSH2 0x3DFA JUMP JUMPDEST SWAP2 POP POP PUSH1 0xC0 DUP4 ADD MLOAD PUSH2 0x4F1D PUSH2 0x180 DUP7 ADD DUP3 PUSH2 0x3E7B JUMP JUMPDEST POP DUP1 SWAP2 POP POP SWAP3 SWAP2 POP POP JUMP JUMPDEST PUSH1 0x0 PUSH2 0x4F34 DUP4 DUP4 PUSH2 0x4E7B JUMP JUMPDEST SWAP1 POP SWAP3 SWAP2 POP POP JUMP JUMPDEST PUSH1 0x0 PUSH1 0x20 DUP3 ADD SWAP1 POP SWAP2 SWAP1 POP JUMP JUMPDEST PUSH1 0x0 PUSH2 0x4F54 DUP3 PUSH2 0x4E4F JUMP JUMPDEST PUSH2 0x4F5E DUP2 DUP6 PUSH2 0x4E5A JUMP JUMPDEST SWAP4 POP DUP4 PUSH1 0x20 DUP3 MUL DUP6 ADD PUSH2 0x4F70 DUP6 PUSH2 0x4E6B JUMP JUMPDEST DUP1 PUSH1 0x0 JUMPDEST DUP6 DUP2 LT ISZERO PUSH2 0x4FAC JUMPI DUP5 DUP5 SUB DUP10 MSTORE DUP2 MLOAD PUSH2 0x4F8D DUP6 DUP3 PUSH2 0x4F28 JUMP JUMPDEST SWAP5 POP PUSH2 0x4F98 DUP4 PUSH2 0x4F3C JUMP JUMPDEST SWAP3 POP PUSH1 0x20 DUP11 ADD SWAP10 POP POP PUSH1 0x1 DUP2 ADD SWAP1 POP PUSH2 0x4F74 JUMP JUMPDEST POP DUP3 SWAP8 POP DUP8 SWAP6 POP POP POP POP POP POP SWAP3 SWAP2 POP POP JUMP JUMPDEST PUSH1 0x0 PUSH1 0x20 DUP3 ADD SWAP1 POP DUP2 DUP2 SUB PUSH1 0x0 DUP4 ADD MSTORE PUSH2 0x4FD8 DUP2 DUP5 PUSH2 0x4F49 JUMP JUMPDEST SWAP1 POP SWAP3 SWAP2 POP POP JUMP JUMPDEST PUSH2 0x4FE9 DUP2 PUSH2 0x3E33 JUMP JUMPDEST DUP3 MSTORE POP POP JUMP JUMPDEST PUSH1 0x0 PUSH1 0xA0 DUP3 ADD SWAP1 POP PUSH2 0x5004 PUSH1 0x0 DUP4 ADD DUP9 PUSH2 0x3D11 JUMP JUMPDEST DUP2 DUP2 SUB PUSH1 0x20 DUP4 ADD MSTORE PUSH2 0x5016 DUP2 DUP8 PUSH2 0x423A JUMP JUMPDEST SWAP1 POP PUSH2 0x5025 PUSH1 0x40 DUP4 ADD DUP7 PUSH2 0x4FE0 JUMP JUMPDEST PUSH2 0x5032 PUSH1 0x60 DUP4 ADD DUP6 PUSH2 0x3D11 JUMP JUMPDEST PUSH2 0x503F PUSH1 0x80 DUP4 ADD DUP5 PUSH2 0x42A2 JUMP JUMPDEST SWAP7 SWAP6 POP POP POP POP POP POP JUMP JUMPDEST PUSH32 0x496E74656E746F206465206D6F64696669636163696F6E000000000000000000 PUSH1 0x0 DUP3 ADD MSTORE POP JUMP JUMPDEST PUSH1 0x0 PUSH2 0x507F PUSH1 0x17 DUP4 PUSH2 0x4229 JUMP JUMPDEST SWAP2 POP PUSH2 0x508A DUP3 PUSH2 0x5049 JUMP JUMPDEST PUSH1 0x20 DUP3 ADD SWAP1 POP SWAP2 SWAP1 POP JUMP JUMPDEST PUSH1 0x0 PUSH1 0x20 DUP3 ADD SWAP1 POP DUP2 DUP2 SUB PUSH1 0x0 DUP4 ADD MSTORE PUSH2 0x50AE DUP2 PUSH2 0x5072 JUMP JUMPDEST SWAP1 POP SWAP2 SWAP1 POP JUMP JUMPDEST PUSH32 0x4E6F207469656E6573207065726D69736F732070617261207265616C697A6172 PUSH1 0x0 DUP3 ADD MSTORE PUSH32 0x206573746120616363696F6E0000000000000000000000000000000000000000 PUSH1 0x20 DUP3 ADD MSTORE POP JUMP JUMPDEST PUSH1 0x0 PUSH2 0x5111 PUSH1 0x2C DUP4 PUSH2 0x4229 JUMP JUMPDEST SWAP2 POP PUSH2 0x511C DUP3 PUSH2 0x50B5 JUMP JUMPDEST PUSH1 0x40 DUP3 ADD SWAP1 POP SWAP2 SWAP1 POP JUMP JUMPDEST PUSH1 0x0 PUSH1 0x20 DUP3 ADD SWAP1 POP DUP2 DUP2 SUB PUSH1 0x0 DUP4 ADD MSTORE PUSH2 0x5140 DUP2 PUSH2 0x5104 JUMP JUMPDEST SWAP1 POP SWAP2 SWAP1 POP JUMP JUMPDEST PUSH32 0x4E7565766120646972656363696F6E206E6F2070756564652073657220636572 PUSH1 0x0 DUP3 ADD MSTORE PUSH32 0x6F00000000000000000000000000000000000000000000000000000000000000 PUSH1 0x20 DUP3 ADD MSTORE POP JUMP JUMPDEST PUSH1 0x0 PUSH2 0x51A3 PUSH1 0x21 DUP4 PUSH2 0x4229 JUMP JUMPDEST SWAP2 POP PUSH2 0x51AE DUP3 PUSH2 0x5147 JUMP JUMPDEST PUSH1 0x40 DUP3 ADD SWAP1 POP SWAP2 SWAP1 POP JUMP JUMPDEST PUSH1 0x0 PUSH1 0x20 DUP3 ADD SWAP1 POP DUP2 DUP2 SUB PUSH1 0x0 DUP4 ADD MSTORE PUSH2 0x51D2 DUP2 PUSH2 0x5196 JUMP JUMPDEST SWAP1 POP SWAP2 SWAP1 POP JUMP JUMPDEST PUSH32 0x494420646520706C616E746120696E76616C69646F0000000000000000000000 PUSH1 0x0 DUP3 ADD MSTORE POP JUMP JUMPDEST PUSH1 0x0 PUSH2 0x520F PUSH1 0x15 DUP4 PUSH2 0x4229 JUMP JUMPDEST SWAP2 POP PUSH2 0x521A DUP3 PUSH2 0x51D9 JUMP JUMPDEST PUSH1 0x20 DUP3 ADD SWAP1 POP SWAP2 SWAP1 POP JUMP JUMPDEST PUSH1 0x0 PUSH1 0x20 DUP3 ADD SWAP1 POP DUP2 DUP2 SUB PUSH1 0x0 DUP4 ADD MSTORE PUSH2 0x523E DUP2 PUSH2 0x5202 JUMP JUMPDEST SWAP1 POP SWAP2 SWAP1 POP JUMP JUMPDEST PUSH32 0x4E487B7100000000000000000000000000000000000000000000000000000000 PUSH1 0x0 MSTORE PUSH1 0x22 PUSH1 0x4 MSTORE PUSH1 0x24 PUSH1 0x0 REVERT JUMPDEST PUSH1 0x0 PUSH1 0x2 DUP3 DIV SWAP1 POP PUSH1 0x1 DUP3 AND DUP1 PUSH2 0x528C JUMPI PUSH1 0x7F DUP3 AND SWAP2 POP JUMPDEST PUSH1 0x20 DUP3 LT DUP2 SUB PUSH2 0x529F JUMPI PUSH2 0x529E PUSH2 0x5245 JUMP JUMPDEST JUMPDEST POP SWAP2 SWAP1 POP JUMP JUMPDEST PUSH32 0x4E487B7100000000000000000000000000000000000000000000000000000000 PUSH1 0x0 MSTORE PUSH1 0x11 PUSH1 0x4 MSTORE PUSH1 0x24 PUSH1 0x0 REVERT JUMPDEST PUSH1 0x0 PUSH2 0x52DF DUP3 PUSH2 0x3D07 JUMP JUMPDEST SWAP2 POP PUSH1 0x0 DUP3 SUB PUSH2 0x52F2 JUMPI PUSH2 0x52F1 PUSH2 0x52A5 JUMP JUMPDEST JUMPDEST PUSH1 0x1 DUP3 SUB SWAP1 POP SWAP2 SWAP1 POP JUMP JUMPDEST PUSH32 0x456C20636F6E747261746F2065737461207061757361646F0000000000000000 PUSH1 0x0 DUP3 ADD MSTORE POP JUMP JUMPDEST PUSH1 0x0 PUSH2 0x5333 PUSH1 0x18 DUP4 PUSH2 0x4229 JUMP JUMPDEST SWAP2 POP PUSH2 0x533E DUP3 PUSH2 0x52FD JUMP JUMPDEST PUSH1 0x20 DUP3 ADD SWAP1 POP SWAP2 SWAP1 POP JUMP JUMPDEST PUSH1 0x0 PUSH1 0x20 DUP3 ADD SWAP1 POP DUP2 DUP2 SUB PUSH1 0x0 DUP4 ADD MSTORE PUSH2 0x5362 DUP2 PUSH2 0x5326 JUMP JUMPDEST SWAP1 POP SWAP2 SWAP1 POP JUMP JUMPDEST PUSH32 0x49442064652073656D696C6C6120696E76616C69646F00000000000000000000 PUSH1 0x0 DUP3 ADD MSTORE POP JUMP JUMPDEST PUSH1 0x0 PUSH2 0x539F PUSH1 0x16 DUP4 PUSH2 0x4229 JUMP JUMPDEST SWAP2 POP PUSH2 0x53AA DUP3 PUSH2 0x5369 JUMP JUMPDEST PUSH1 0x20 DUP3 ADD SWAP1 POP SWAP2 SWAP1 POP JUMP JUMPDEST PUSH1 0x0 PUSH1 0x20 DUP3 ADD SWAP1 POP DUP2 DUP2 SUB PUSH1 0x0 DUP4 ADD MSTORE PUSH2 0x53CE DUP2 PUSH2 0x5392 JUMP JUMPDEST SWAP1 POP SWAP2 SWAP1 POP JUMP JUMPDEST PUSH1 0x0 DUP2 SWAP1 POP DUP2 PUSH1 0x0 MSTORE PUSH1 0x20 PUSH1 0x0 KECCAK256 SWAP1 POP SWAP2 SWAP1 POP JUMP JUMPDEST PUSH1 0x0 PUSH1 0x20 PUSH1 0x1F DUP4 ADD DIV SWAP1 POP SWAP2 SWAP1 POP JUMP JUMPDEST PUSH1 0x0 DUP3 DUP3 SHL SWAP1 POP SWAP3 SWAP2 POP POP JUMP JUMPDEST PUSH1 0x0 PUSH1 0x8 DUP4 MUL PUSH2 0x5437 PUSH32 0xFFFFFFFFFFFFFFFFFFFFFFFFFFFFFFFFFFFFFFFFFFFFFFFFFFFFFFFFFFFFFFFF DUP3 PUSH2 0x53FA JUMP JUMPDEST PUSH2 0x5441 DUP7 DUP4 PUSH2 0x53FA JUMP JUMPDEST SWAP6 POP DUP1 NOT DUP5 AND SWAP4 POP DUP1 DUP7 AND DUP5 OR SWAP3 POP POP POP SWAP4 SWAP3 POP POP POP JUMP JUMPDEST PUSH1 0x0 DUP2 SWAP1 POP SWAP2 SWAP1 POP JUMP JUMPDEST PUSH1 0x0 PUSH2 0x547E PUSH2 0x5479 PUSH2 0x5474 DUP5 PUSH2 0x3D07 JUMP JUMPDEST PUSH2 0x5459 JUMP JUMPDEST PUSH2 0x3D07 JUMP JUMPDEST SWAP1 POP SWAP2 SWAP1 POP JUMP JUMPDEST PUSH1 0x0 DUP2 SWAP1 POP SWAP2 SWAP1 POP JUMP JUMPDEST PUSH2 0x5498 DUP4 PUSH2 0x5463 JUMP JUMPDEST PUSH2 0x54AC PUSH2 0x54A4 DUP3 PUSH2 0x5485 JUMP JUMPDEST DUP5 DUP5 SLOAD PUSH2 0x5407 JUMP JUMPDEST DUP3 SSTORE POP POP POP POP JUMP JUMPDEST PUSH1 0x0 SWAP1 JUMP JUMPDEST PUSH2 0x54C1 PUSH2 0x54B4 JUMP JUMPDEST PUSH2 0x54CC DUP2 DUP5 DUP5 PUSH2 0x548F JUMP JUMPDEST POP POP POP JUMP JUMPDEST JUMPDEST DUP2 DUP2 LT ISZERO PUSH2 0x54F0 JUMPI PUSH2 0x54E5 PUSH1 0x0 DUP3 PUSH2 0x54B9 JUMP JUMPDEST PUSH1 0x1 DUP2 ADD SWAP1 POP PUSH2 0x54D2 JUMP JUMPDEST POP POP JUMP JUMPDEST PUSH1 0x1F DUP3 GT ISZERO PUSH2 0x5535 JUMPI PUSH2 0x5506 DUP2 PUSH2 0x53D5 JUMP JUMPDEST PUSH2 0x550F DUP5 PUSH2 0x53EA JUMP JUMPDEST DUP2 ADD PUSH1 0x20 DUP6 LT ISZERO PUSH2 0x551E JUMPI DUP2 SWAP1 POP JUMPDEST PUSH2 0x5532 PUSH2 0x552A DUP6 PUSH2 0x53EA JUMP JUMPDEST DUP4 ADD DUP3 PUSH2 0x54D1 JUMP JUMPDEST POP POP JUMPDEST POP POP POP JUMP JUMPDEST PUSH1 0x0 DUP3 DUP3 SHR SWAP1 POP SWAP3 SWAP2 POP POP JUMP JUMPDEST PUSH1 0x0 PUSH2 0x5558 PUSH1 0x0 NOT DUP5 PUSH1 0x8 MUL PUSH2 0x553A JUMP JUMPDEST NOT DUP1 DUP4 AND SWAP2 POP POP SWAP3 SWAP2 POP POP JUMP JUMPDEST PUSH1 0x0 PUSH2 0x5571 DUP4 DUP4 PUSH2 0x5547 JUMP JUMPDEST SWAP2 POP DUP3 PUSH1 0x2 MUL DUP3 OR SWAP1 POP SWAP3 SWAP2 POP POP JUMP JUMPDEST PUSH2 0x558A DUP3 PUSH2 0x3DA3 JUMP JUMPDEST PUSH8 0xFFFFFFFFFFFFFFFF DUP2 GT ISZERO PUSH2 0x55A3 JUMPI PUSH2 0x55A2 PUSH2 0x40A2 JUMP JUMPDEST JUMPDEST PUSH2 0x55AD DUP3 SLOAD PUSH2 0x5274 JUMP JUMPDEST PUSH2 0x55B8 DUP3 DUP3 DUP6 PUSH2 0x54F4 JUMP JUMPDEST PUSH1 0x0 PUSH1 0x20 SWAP1 POP PUSH1 0x1F DUP4 GT PUSH1 0x1 DUP2 EQ PUSH2 0x55EB JUMPI PUSH1 0x0 DUP5 ISZERO PUSH2 0x55D9 JUMPI DUP3 DUP8 ADD MLOAD SWAP1 POP JUMPDEST PUSH2 0x55E3 DUP6 DUP3 PUSH2 0x5565 JUMP JUMPDEST DUP7 SSTORE POP PUSH2 0x564B JUMP JUMPDEST PUSH1 0x1F NOT DUP5 AND PUSH2 0x55F9 DUP7 PUSH2 0x53D5 JUMP JUMPDEST PUSH1 0x0 JUMPDEST DUP3 DUP2 LT ISZERO PUSH2 0x5621 JUMPI DUP5 DUP10 ADD MLOAD DUP3 SSTORE PUSH1 0x1 DUP3 ADD SWAP2 POP PUSH1 0x20 DUP6 ADD SWAP5 POP PUSH1 0x20 DUP2 ADD SWAP1 POP PUSH2 0x55FC JUMP JUMPDEST DUP7 DUP4 LT ISZERO PUSH2 0x563E JUMPI DUP5 DUP10 ADD MLOAD PUSH2 0x563A PUSH1 0x1F DUP10 AND DUP3 PUSH2 0x5547 JUMP JUMPDEST DUP4 SSTORE POP JUMPDEST PUSH1 0x1 PUSH1 0x2 DUP9 MUL ADD DUP9 SSTORE POP POP POP JUMPDEST POP POP POP POP POP POP JUMP JUMPDEST PUSH32 0x41637475616C697A6163696F6E20646520706C616E7461000000000000000000 PUSH1 0x0 DUP3 ADD MSTORE POP JUMP JUMPDEST PUSH1 0x0 PUSH2 0x5689 PUSH1 0x17 DUP4 PUSH2 0x4229 JUMP JUMPDEST SWAP2 POP PUSH2 0x5694 DUP3 PUSH2 0x5653 JUMP JUMPDEST PUSH1 0x20 DUP3 ADD SWAP1 POP SWAP2 SWAP1 POP JUMP JUMPDEST PUSH1 0x0 PUSH1 0x20 DUP3 ADD SWAP1 POP DUP2 DUP2 SUB PUSH1 0x0 DUP4 ADD MSTORE PUSH2 0x56B8 DUP2 PUSH2 0x567C JUMP JUMPDEST SWAP1 POP SWAP2 SWAP1 POP JUMP JUMPDEST PUSH1 0x0 PUSH2 0x56CA DUP3 PUSH2 0x3D07 JUMP JUMPDEST SWAP2 POP PUSH32 0xFFFFFFFFFFFFFFFFFFFFFFFFFFFFFFFFFFFFFFFFFFFFFFFFFFFFFFFFFFFFFFFF DUP3 SUB PUSH2 0x56FC JUMPI PUSH2 0x56FB PUSH2 0x52A5 JUMP JUMPDEST JUMPDEST PUSH1 0x1 DUP3 ADD SWAP1 POP SWAP2 SWAP1 POP JUMP JUMPDEST PUSH32 0x54656D70657261747572612064656D61736961646F2062616A61000000000000 PUSH1 0x0 DUP3 ADD MSTORE POP JUMP JUMPDEST PUSH1 0x0 PUSH2 0x573D PUSH1 0x1A DUP4 PUSH2 0x4229 JUMP JUMPDEST SWAP2 POP PUSH2 0x5748 DUP3 PUSH2 0x5707 JUMP JUMPDEST PUSH1 0x20 DUP3 ADD SWAP1 POP SWAP2 SWAP1 POP JUMP JUMPDEST PUSH1 0x0 PUSH1 0x20 DUP3 ADD SWAP1 POP DUP2 DUP2 SUB PUSH1 0x0 DUP4 ADD MSTORE PUSH2 0x576C DUP2 PUSH2 0x5730 JUMP JUMPDEST SWAP1 POP SWAP2 SWAP1 POP JUMP JUMPDEST PUSH1 0x0 PUSH2 0x577E DUP3 PUSH2 0x3D07 JUMP JUMPDEST SWAP2 POP PUSH2 0x5789 DUP4 PUSH2 0x3D07 JUMP JUMPDEST SWAP3 POP DUP3 DUP3 ADD SWAP1 POP DUP1 DUP3 GT ISZERO PUSH2 0x57A1 JUMPI PUSH2 0x57A0 PUSH2 0x52A5 JUMP JUMPDEST JUMPDEST SWAP3 SWAP2 POP POP JUMP JUMPDEST PUSH32 0x4E487B7100000000000000000000000000000000000000000000000000000000 PUSH1 0x0 MSTORE PUSH1 0x32 PUSH1 0x4 MSTORE PUSH1 0x24 PUSH1 0x0 REVERT JUMPDEST PUSH32 0x4E6F2068617920686973746F7269616C2070617261206573746120706C616E74 PUSH1 0x0 DUP3 ADD MSTORE PUSH32 0x6100000000000000000000000000000000000000000000000000000000000000 PUSH1 0x20 DUP3 ADD MSTORE POP JUMP JUMPDEST PUSH1 0x0 PUSH2 0x5832 PUSH1 0x21 DUP4 PUSH2 0x4229 JUMP JUMPDEST SWAP2 POP PUSH2 0x583D DUP3 PUSH2 0x57D6 JUMP JUMPDEST PUSH1 0x40 DUP3 ADD SWAP1 POP SWAP2 SWAP1 POP JUMP JUMPDEST PUSH1 0x0 PUSH1 0x20 DUP3 ADD SWAP1 POP DUP2 DUP2 SUB PUSH1 0x0 DUP4 ADD MSTORE PUSH2 0x5861 DUP2 PUSH2 0x5825 JUMP JUMPDEST SWAP1 POP SWAP2 SWAP1 POP JUMP JUMPDEST PUSH1 0x0 PUSH2 0x5873 DUP3 PUSH2 0x3D07 JUMP JUMPDEST SWAP2 POP PUSH2 0x587E DUP4 PUSH2 0x3D07 JUMP JUMPDEST SWAP3 POP DUP3 DUP3 SUB SWAP1 POP DUP2 DUP2 GT ISZERO PUSH2 0x5896 JUMPI PUSH2 0x5895 PUSH2 0x52A5 JUMP JUMPDEST JUMPDEST SWAP3 SWAP2 POP POP JUMP JUMPDEST PUSH32 0x526567697374726F20646520706C616E74610000000000000000000000000000 PUSH1 0x0 DUP3 ADD MSTORE POP JUMP JUMPDEST PUSH1 0x0 PUSH2 0x58D2 PUSH1 0x12 DUP4 PUSH2 0x4229 JUMP JUMPDEST SWAP2 POP PUSH2 0x58DD DUP3 PUSH2 0x589C JUMP JUMPDEST PUSH1 0x20 DUP3 ADD SWAP1 POP SWAP2 SWAP1 POP JUMP JUMPDEST PUSH1 0x0 PUSH1 0x20 DUP3 ADD SWAP1 POP DUP2 DUP2 SUB PUSH1 0x0 DUP4 ADD MSTORE PUSH2 0x5901 DUP2 PUSH2 0x58C5 JUMP JUMPDEST SWAP1 POP SWAP2 SWAP1 POP JUMP JUMPDEST PUSH1 0x0 DUP2 SWAP1 POP SWAP3 SWAP2 POP POP JUMP JUMPDEST PUSH1 0x0 DUP2 SWAP1 POP DUP2 PUSH1 0x0 MSTORE PUSH1 0x20 PUSH1 0x0 KECCAK256 SWAP1 POP SWAP2 SWAP1 POP JUMP JUMPDEST PUSH1 0x0 DUP2 SLOAD PUSH2 0x5935 DUP2 PUSH2 0x5274 JUMP JUMPDEST PUSH2 0x593F DUP2 DUP7 PUSH2 0x5908 JUMP JUMPDEST SWAP5 POP PUSH1 0x1 DUP3 AND PUSH1 0x0 DUP2 EQ PUSH2 0x595A JUMPI PUSH1 0x1 DUP2 EQ PUSH2 0x596F JUMPI PUSH2 0x59A2 JUMP JUMPDEST PUSH1 0xFF NOT DUP4 AND DUP7 MSTORE DUP2 ISZERO ISZERO DUP3 MUL DUP7 ADD SWAP4 POP PUSH2 0x59A2 JUMP JUMPDEST PUSH2 0x5978 DUP6 PUSH2 0x5913 JUMP JUMPDEST PUSH1 0x0 JUMPDEST DUP4 DUP2 LT ISZERO PUSH2 0x599A JUMPI DUP2 SLOAD DUP2 DUP10 ADD MSTORE PUSH1 0x1 DUP3 ADD SWAP2 POP PUSH1 0x20 DUP2 ADD SWAP1 POP PUSH2 0x597B JUMP JUMPDEST DUP4 DUP9 ADD SWAP6 POP POP POP JUMPDEST POP POP POP SWAP3 SWAP2 POP POP JUMP JUMPDEST PUSH1 0x0 PUSH2 0x59B7 DUP3 DUP5 PUSH2 0x5928 JUMP JUMPDEST SWAP2 POP DUP2 SWAP1 POP SWAP3 SWAP2 POP POP JUMP JUMPDEST PUSH32 0x456C207469706F2064652073656D696C6C61206E6F2065732076616C69646F00 PUSH1 0x0 DUP3 ADD MSTORE POP JUMP JUMPDEST PUSH1 0x0 PUSH2 0x59F8 PUSH1 0x1F DUP4 PUSH2 0x4229 JUMP JUMPDEST SWAP2 POP PUSH2 0x5A03 DUP3 PUSH2 0x59C2 JUMP JUMPDEST PUSH1 0x20 DUP3 ADD SWAP1 POP SWAP2 SWAP1 POP JUMP JUMPDEST PUSH1 0x0 PUSH1 0x20 DUP3 ADD SWAP1 POP DUP2 DUP2 SUB PUSH1 0x0 DUP4 ADD MSTORE PUSH2 0x5A27 DUP2 PUSH2 0x59EB JUMP JUMPDEST SWAP1 POP SWAP2 SWAP1 POP JUMP JUMPDEST PUSH32 0x4C612063616E74696461642064652073656D696C6C6173206465626520736572 PUSH1 0x0 DUP3 ADD MSTORE PUSH32 0x2031000000000000000000000000000000000000000000000000000000000000 PUSH1 0x20 DUP3 ADD MSTORE POP JUMP JUMPDEST PUSH1 0x0 PUSH2 0x5A8A PUSH1 0x22 DUP4 PUSH2 0x4229 JUMP JUMPDEST SWAP2 POP PUSH2 0x5A95 DUP3 PUSH2 0x5A2E JUMP JUMPDEST PUSH1 0x40 DUP3 ADD SWAP1 POP SWAP2 SWAP1 POP JUMP JUMPDEST PUSH1 0x0 PUSH1 0x20 DUP3 ADD SWAP1 POP DUP2 DUP2 SUB PUSH1 0x0 DUP4 ADD MSTORE PUSH2 0x5AB9 DUP2 PUSH2 0x5A7D JUMP JUMPDEST SWAP1 POP SWAP2 SWAP1 POP JUMP JUMPDEST PUSH32 0x4C6174697475642066756572612064652072616E676F00000000000000000000 PUSH1 0x0 DUP3 ADD MSTORE POP JUMP JUMPDEST PUSH1 0x0 PUSH2 0x5AF6 PUSH1 0x16 DUP4 PUSH2 0x4229 JUMP JUMPDEST SWAP2 POP PUSH2 0x5B01 DUP3 PUSH2 0x5AC0 JUMP JUMPDEST PUSH1 0x20 DUP3 ADD SWAP1 POP SWAP2 SWAP1 POP JUMP JUMPDEST PUSH1 0x0 PUSH1 0x20 DUP3 ADD SWAP1 POP DUP2 DUP2 SUB PUSH1 0x0 DUP4 ADD MSTORE PUSH2 0x5B25 DUP2 PUSH2 0x5AE9 JUMP JUMPDEST SWAP1 POP SWAP2 SWAP1 POP JUMP JUMPDEST PUSH32 0x4C6F6E67697475642066756572612064652072616E676F000000000000000000 PUSH1 0x0 DUP3 ADD MSTORE POP JUMP JUMPDEST PUSH1 0x0 PUSH2 0x5B62 PUSH1 0x17 DUP4 PUSH2 0x4229 JUMP JUMPDEST SWAP2 POP PUSH2 0x5B6D DUP3 PUSH2 0x5B2C JUMP JUMPDEST PUSH1 0x20 DUP3 ADD SWAP1 POP SWAP2 SWAP1 POP JUMP JUMPDEST PUSH1 0x0 PUSH1 0x20 DUP3 ADD SWAP1 POP DUP2 DUP2 SUB PUSH1 0x0 DUP4 ADD MSTORE PUSH2 0x5B91 DUP2 PUSH2 0x5B55 JUMP JUMPDEST SWAP1 POP SWAP2 SWAP1 POP JUMP JUMPDEST PUSH32 0x54656D70657261747572612066756572612064656C2072616E676F207065726D PUSH1 0x0 DUP3 ADD MSTORE PUSH32 0x697469646F20282D3130206120313520677261646F7329000000000000000000 PUSH1 0x20 DUP3 ADD MSTORE POP JUMP JUMPDEST PUSH1 0x0 PUSH2 0x5BF4 PUSH1 0x37 DUP4 PUSH2 0x4229 JUMP JUMPDEST SWAP2 POP PUSH2 0x5BFF DUP3 PUSH2 0x5B98 JUMP JUMPDEST PUSH1 0x40 DUP3 ADD SWAP1 POP SWAP2 SWAP1 POP JUMP JUMPDEST PUSH1 0x0 PUSH1 0x20 DUP3 ADD SWAP1 POP DUP2 DUP2 SUB PUSH1 0x0 DUP4 ADD MSTORE PUSH2 0x5C23 DUP2 PUSH2 0x5BE7 JUMP JUMPDEST SWAP1 POP SWAP2 SWAP1 POP JUMP JUMPDEST PUSH32 0x48756D656461642072656C61746976612066756572612064656C2072616E676F PUSH1 0x0 DUP3 ADD MSTORE PUSH32 0x207065726D697469646F20283530252061203130302529000000000000000000 PUSH1 0x20 DUP3 ADD MSTORE POP JUMP JUMPDEST PUSH1 0x0 PUSH2 0x5C86 PUSH1 0x37 DUP4 PUSH2 0x4229 JUMP JUMPDEST SWAP2 POP PUSH2 0x5C91 DUP3 PUSH2 0x5C2A JUMP JUMPDEST PUSH1 0x40 DUP3 ADD SWAP1 POP SWAP2 SWAP1 POP JUMP JUMPDEST PUSH1 0x0 PUSH1 0x20 DUP3 ADD SWAP1 POP DUP2 DUP2 SUB PUSH1 0x0 DUP4 ADD MSTORE PUSH2 0x5CB5 DUP2 PUSH2 0x5C79 JUMP JUMPDEST SWAP1 POP SWAP2 SWAP1 POP JUMP JUMPDEST PUSH32 0x416C74697475642066756572612064656C2072616E676F207065726D69746964 PUSH1 0x0 DUP3 ADD MSTORE PUSH32 0x6F2028323830306D206120343230306D29000000000000000000000000000000 PUSH1 0x20 DUP3 ADD MSTORE POP JUMP JUMPDEST PUSH1 0x0 PUSH2 0x5D18 PUSH1 0x31 DUP4 PUSH2 0x4229 JUMP JUMPDEST SWAP2 POP PUSH2 0x5D23 DUP3 PUSH2 0x5CBC JUMP JUMPDEST PUSH1 0x40 DUP3 ADD SWAP1 POP SWAP2 SWAP1 POP JUMP JUMPDEST PUSH1 0x0 PUSH1 0x20 DUP3 ADD SWAP1 POP DUP2 DUP2 SUB PUSH1 0x0 DUP4 ADD MSTORE PUSH2 0x5D47 DUP2 PUSH2 0x5D0B JUMP JUMPDEST SWAP1 POP SWAP2 SWAP1 POP JUMP JUMPDEST PUSH32 0x536520686120616C63616E7A61646F20656C206C696D69746520646520353020 PUSH1 0x0 DUP3 ADD MSTORE PUSH32 0x73656D696C6C6173207265676973747261646173000000000000000000000000 PUSH1 0x20 DUP3 ADD MSTORE POP JUMP JUMPDEST PUSH1 0x0 PUSH2 0x5DAA PUSH1 0x34 DUP4 PUSH2 0x4229 JUMP JUMPDEST SWAP2 POP PUSH2 0x5DB5 DUP3 PUSH2 0x5D4E JUMP JUMPDEST PUSH1 0x40 DUP3 ADD SWAP1 POP SWAP2 SWAP1 POP JUMP JUMPDEST PUSH1 0x0 PUSH1 0x20 DUP3 ADD SWAP1 POP DUP2 DUP2 SUB PUSH1 0x0 DUP4 ADD MSTORE PUSH2 0x5DD9 DUP2 PUSH2 0x5D9D JUMP JUMPDEST SWAP1 POP SWAP2 SWAP1 POP JUMP JUMPDEST PUSH32 0x526567697374726F2064652073656D696C6C6100000000000000000000000000 PUSH1 0x0 DUP3 ADD MSTORE POP JUMP JUMPDEST PUSH1 0x0 PUSH2 0x5E16 PUSH1 0x13 DUP4 PUSH2 0x4229 JUMP JUMPDEST SWAP2 POP PUSH2 0x5E21 DUP3 PUSH2 0x5DE0 JUMP JUMPDEST PUSH1 0x20 DUP3 ADD SWAP1 POP SWAP2 SWAP1 POP JUMP JUMPDEST PUSH1 0x0 PUSH1 0x20 DUP3 ADD SWAP1 POP DUP2 DUP2 SUB PUSH1 0x0 DUP4 ADD MSTORE PUSH2 0x5E45 DUP2 PUSH2 0x5E09 JUMP JUMPDEST SWAP1 POP SWAP2 SWAP1 POP JUMP JUMPDEST PUSH32 0x41637475616C697A6163696F6E20646520756269636163696F6E20646520706C PUSH1 0x0 DUP3 ADD MSTORE PUSH32 0x616E746100000000000000000000000000000000000000000000000000000000 PUSH1 0x20 DUP3 ADD MSTORE POP JUMP JUMPDEST PUSH1 0x0 PUSH2 0x5EA8 PUSH1 0x24 DUP4 PUSH2 0x4229 JUMP JUMPDEST SWAP2 POP PUSH2 0x5EB3 DUP3 PUSH2 0x5E4C JUMP JUMPDEST PUSH1 0x40 DUP3 ADD SWAP1 POP SWAP2 SWAP1 POP JUMP JUMPDEST PUSH1 0x0 PUSH1 0x20 DUP3 ADD SWAP1 POP DUP2 DUP2 SUB PUSH1 0x0 DUP4 ADD MSTORE PUSH2 0x5ED7 DUP2 PUSH2 0x5E9B JUMP JUMPDEST SWAP1 POP SWAP2 SWAP1 POP JUMP JUMPDEST PUSH32 0x4E487B7100000000000000000000000000000000000000000000000000000000 PUSH1 0x0 MSTORE PUSH1 0x12 PUSH1 0x4 MSTORE PUSH1 0x24 PUSH1 0x0 REVERT JUMPDEST PUSH1 0x0 PUSH2 0x5F18 DUP3 PUSH2 0x3D07 JUMP JUMPDEST SWAP2 POP PUSH2 0x5F23 DUP4 PUSH2 0x3D07 JUMP JUMPDEST SWAP3 POP DUP3 PUSH2 0x5F33 JUMPI PUSH2 0x5F32 PUSH2 0x5EDE JUMP JUMPDEST JUMPDEST DUP3 DUP3 DIV SWAP1 POP SWAP3 SWAP2 POP POP JUMP INVALID LOG2 PUSH5 0x6970667358 0x22 SLT KECCAK256 0xCB GAS 0xB6 0xC 0xCD PUSH30 0x1A418C6769FADA9F8B15EE6FA3250FCF72A6E585761010BF678E64736F6C PUSH4 0x4300081B STOP CALLER "
		},
		"gasEstimates": {
			"creation": {
				"codeDepositCost": "4887200",
				"executionCost": "54308",
				"totalCost": "4941508"
			},
			"external": {
				"actualizarCondicionesClimaticas(uint256,(int256,uint256,uint256,uint256,uint256,(uint256)))": "infinite",
				"actualizarEstadoPlantaYCrecimiento(uint256,string)": "infinite",
				"actualizarUbicacionPlantaEnParamo(uint256,(int256,int256))": "infinite",
				"administradores(address)": "2912",
				"agregarAdministrador(address)": "infinite",
				"agregarComentario(uint256,string)": "infinite",
				"buscarSemillasPorResponsable(string)": "infinite",
				"consultarHistorial(uint256)": "infinite",
				"despausar()": "infinite",
				"eliminarPlanta(uint256)": "infinite",
				"eliminarSemilla(uint256)": "infinite",
				"especiesNativas(uint256)": "infinite",
				"eventosClimaticos(uint256)": "infinite",
				"historialCrecimiento(uint256,uint256)": "infinite",
				"obtenerEstadisticas()": "infinite",
				"obtenerEstadisticasDetalladas()": "infinite",
				"obtenerEstadisticasParamo()": "infinite",
				"obtenerEventos()": "infinite",
				"obtenerHistorialDeCambios(uint256)": "infinite",
				"obtenerSemilla(uint256)": "infinite",
				"obtenerTodasLasSemillas()": "infinite",
				"obtenerUltimoHistorial(uint256)": "infinite",
				"owner()": "2579",
				"pausar()": "infinite",
				"paused()": "2605",
				"plantas(uint256)": "infinite",
				"registrarEspecieNativa(string,string,uint256)": "infinite",
				"registrarEventoClimatico(string,int256,uint256)": "infinite",
				"registrarSemilla(string,(int256,int256),string,int256,uint256,uint256,uint256,uint256,string)": "infinite",
				"registroTrasladoPlanta(uint256,(int256,int256),string,string)": "infinite",
				"removerAdministrador(address)": "infinite",
				"semillas(uint256)": "infinite",
				"totalEspeciesNativas()": "2540",
				"totalEventosClimaticos()": "2495",
				"totalPlantasRegistradas()": "2540",
				"totalSemillasRegistradas()": "2498",
				"transferirPropiedad(address)": "infinite",
				"trasladoPlanta(uint256)": "infinite",
				"verificarCondicionesClimaticas(uint256)": "4860"
			}
		},
		"methodIdentifiers": {
			"actualizarCondicionesClimaticas(uint256,(int256,uint256,uint256,uint256,uint256,(uint256)))": "48063326",
			"actualizarEstadoPlantaYCrecimiento(uint256,string)": "4baa226d",
			"actualizarUbicacionPlantaEnParamo(uint256,(int256,int256))": "d407fbda",
			"administradores(address)": "d449dc54",
			"agregarAdministrador(address)": "6f368243",
			"agregarComentario(uint256,string)": "25a944c9",
			"buscarSemillasPorResponsable(string)": "bc0b8187",
			"consultarHistorial(uint256)": "1bc7509e",
			"despausar()": "f27fa807",
			"eliminarPlanta(uint256)": "1ee5dacc",
			"eliminarSemilla(uint256)": "b83ff659",
			"especiesNativas(uint256)": "9b72ade0",
			"eventosClimaticos(uint256)": "f3952e06",
			"historialCrecimiento(uint256,uint256)": "5521dcce",
			"obtenerEstadisticas()": "b118d04e",
			"obtenerEstadisticasDetalladas()": "ddb2a5b6",
			"obtenerEstadisticasParamo()": "d679fa6d",
			"obtenerEventos()": "625945b1",
			"obtenerHistorialDeCambios(uint256)": "b490e968",
			"obtenerSemilla(uint256)": "4ee00eef",
			"obtenerTodasLasSemillas()": "ef887776",
			"obtenerUltimoHistorial(uint256)": "8c70e066",
			"owner()": "8da5cb5b",
			"pausar()": "83d6d087",
			"paused()": "5c975abb",
			"plantas(uint256)": "27b70f40",
			"registrarEspecieNativa(string,string,uint256)": "dab8b3e1",
			"registrarEventoClimatico(string,int256,uint256)": "5b9197f3",
			"registrarSemilla(string,(int256,int256),string,int256,uint256,uint256,uint256,uint256,string)": "cc53aa89",
			"registroTrasladoPlanta(uint256,(int256,int256),string,string)": "94c2026e",
			"removerAdministrador(address)": "071c2ba7",
			"semillas(uint256)": "bc1d00b2",
			"totalEspeciesNativas()": "7fa06914",
			"totalEventosClimaticos()": "e85cdae1",
			"totalPlantasRegistradas()": "d874af53",
			"totalSemillasRegistradas()": "06aafd04",
			"transferirPropiedad(address)": "009a458a",
			"trasladoPlanta(uint256)": "0fe6896d",
			"verificarCondicionesClimaticas(uint256)": "5d5e0bae"
		}
	},
	"abi": [
		{
			"inputs": [],
			"stateMutability": "nonpayable",
			"type": "constructor"
		},
		{
			"anonymous": false,
			"inputs": [
				{
					"indexed": true,
					"internalType": "address",
					"name": "_direccion",
					"type": "address"
				},
				{
					"indexed": false,
					"internalType": "string",
					"name": "_accion",
					"type": "string"
				}
			],
			"name": "AccesoNoAutorizado",
			"type": "event"
		},
		{
			"anonymous": false,
			"inputs": [
				{
					"indexed": true,
					"internalType": "uint256",
					"name": "semillaId",
					"type": "uint256"
				},
				{
					"indexed": false,
					"internalType": "string",
					"name": "mensaje",
					"type": "string"
				}
			],
			"name": "AlertaClimatica",
			"type": "event"
		},
		{
			"anonymous": false,
			"inputs": [
				{
					"indexed": false,
					"internalType": "uint256",
					"name": "id",
					"type": "uint256"
				},
				{
					"indexed": false,
					"internalType": "string",
					"name": "nombre",
					"type": "string"
				},
				{
					"components": [
						{
							"internalType": "uint256",
							"name": "timestamp",
							"type": "uint256"
						}
					],
					"indexed": false,
					"internalType": "struct ViveroBogota.Timestamp",
					"name": "fechaRegistro",
					"type": "tuple"
				}
			],
			"name": "EspecieNativaRegistrada",
			"type": "event"
		},
		{
			"anonymous": false,
			"inputs": [
				{
					"indexed": false,
					"internalType": "uint256",
					"name": "id",
					"type": "uint256"
				},
				{
					"indexed": false,
					"internalType": "string",
					"name": "tipo",
					"type": "string"
				},
				{
					"components": [
						{
							"internalType": "uint256",
							"name": "timestamp",
							"type": "uint256"
						}
					],
					"indexed": false,
					"internalType": "struct ViveroBogota.Timestamp",
					"name": "fechaRegistro",
					"type": "tuple"
				}
			],
			"name": "EventoClimaticoRegistrado",
			"type": "event"
		},
		{
			"anonymous": false,
			"inputs": [
				{
					"indexed": true,
					"internalType": "address",
					"name": "_direccion",
					"type": "address"
				},
				{
					"indexed": false,
					"internalType": "string",
					"name": "_accion",
					"type": "string"
				}
			],
			"name": "ModificacionPorOtroUsuario",
			"type": "event"
		},
		{
			"inputs": [
				{
					"internalType": "uint256",
					"name": "_idSemilla",
					"type": "uint256"
				},
				{
					"components": [
						{
							"internalType": "int256",
							"name": "temperatura",
							"type": "int256"
						},
						{
							"internalType": "uint256",
							"name": "humedadRelativa",
							"type": "uint256"
						},
						{
							"internalType": "uint256",
							"name": "precipitacion",
							"type": "uint256"
						},
						{
							"internalType": "uint256",
							"name": "horasLuzSolar",
							"type": "uint256"
						},
						{
							"internalType": "uint256",
							"name": "altitud",
							"type": "uint256"
						},
						{
							"components": [
								{
									"internalType": "uint256",
									"name": "timestamp",
									"type": "uint256"
								}
							],
							"internalType": "struct ViveroBogota.Timestamp",
							"name": "fechaRegistro",
							"type": "tuple"
						}
					],
					"internalType": "struct ViveroBogota.CondicionesClimaticas",
					"name": "_nuevasCondiciones",
					"type": "tuple"
				}
			],
			"name": "actualizarCondicionesClimaticas",
			"outputs": [],
			"stateMutability": "nonpayable",
			"type": "function"
		},
		{
			"inputs": [
				{
					"internalType": "uint256",
					"name": "_idPlanta",
					"type": "uint256"
				},
				{
					"internalType": "string",
					"name": "_nuevoEstado",
					"type": "string"
				}
			],
			"name": "actualizarEstadoPlantaYCrecimiento",
			"outputs": [],
			"stateMutability": "nonpayable",
			"type": "function"
		},
		{
			"inputs": [
				{
					"internalType": "uint256",
					"name": "_idPlanta",
					"type": "uint256"
				},
				{
					"components": [
						{
							"internalType": "int256",
							"name": "latitud",
							"type": "int256"
						},
						{
							"internalType": "int256",
							"name": "longitud",
							"type": "int256"
						}
					],
					"internalType": "struct ViveroBogota.UbicacionGPS",
					"name": "_nuevaUbicacion",
					"type": "tuple"
				}
			],
			"name": "actualizarUbicacionPlantaEnParamo",
			"outputs": [],
			"stateMutability": "nonpayable",
			"type": "function"
		},
		{
			"inputs": [
				{
					"internalType": "address",
					"name": "",
					"type": "address"
				}
			],
			"name": "administradores",
			"outputs": [
				{
					"internalType": "bool",
					"name": "",
					"type": "bool"
				}
			],
			"stateMutability": "view",
			"type": "function"
		},
		{
			"inputs": [
				{
					"internalType": "address",
					"name": "_nuevoAdmin",
					"type": "address"
				}
			],
			"name": "agregarAdministrador",
			"outputs": [],
			"stateMutability": "nonpayable",
			"type": "function"
		},
		{
			"inputs": [
				{
					"internalType": "uint256",
					"name": "_idSemilla",
					"type": "uint256"
				},
				{
					"internalType": "string",
					"name": "_comentario",
					"type": "string"
				}
			],
			"name": "agregarComentario",
			"outputs": [],
			"stateMutability": "nonpayable",
			"type": "function"
		},
		{
			"inputs": [
				{
					"internalType": "string",
					"name": "_responsable",
					"type": "string"
				}
			],
			"name": "buscarSemillasPorResponsable",
			"outputs": [
				{
					"internalType": "uint256[]",
					"name": "",
					"type": "uint256[]"
				}
			],
			"stateMutability": "view",
			"type": "function"
		},
		{
			"inputs": [
				{
					"internalType": "uint256",
					"name": "_idPlanta",
					"type": "uint256"
				}
			],
			"name": "consultarHistorial",
			"outputs": [
				{
					"components": [
						{
							"internalType": "uint256",
							"name": "plantaId",
							"type": "uint256"
						},
						{
							"internalType": "string",
							"name": "estado",
							"type": "string"
						},
						{
							"components": [
								{
									"internalType": "uint256",
									"name": "timestamp",
									"type": "uint256"
								}
							],
							"internalType": "struct ViveroBogota.Timestamp",
							"name": "fechaActualizacion",
							"type": "tuple"
						}
					],
					"internalType": "struct ViveroBogota.HistorialCrecimiento[]",
					"name": "",
					"type": "tuple[]"
				}
			],
			"stateMutability": "view",
			"type": "function"
		},
		{
			"inputs": [],
			"name": "despausar",
			"outputs": [],
			"stateMutability": "nonpayable",
			"type": "function"
		},
		{
			"inputs": [
				{
					"internalType": "uint256",
					"name": "_idPlanta",
					"type": "uint256"
				}
			],
			"name": "eliminarPlanta",
			"outputs": [],
			"stateMutability": "nonpayable",
			"type": "function"
		},
		{
			"inputs": [
				{
					"internalType": "uint256",
					"name": "_idSemilla",
					"type": "uint256"
				}
			],
			"name": "eliminarSemilla",
			"outputs": [],
			"stateMutability": "nonpayable",
			"type": "function"
		},
		{
			"inputs": [
				{
					"internalType": "uint256",
					"name": "",
					"type": "uint256"
				}
			],
			"name": "especiesNativas",
			"outputs": [
				{
					"internalType": "uint256",
					"name": "id",
					"type": "uint256"
				},
				{
					"internalType": "string",
					"name": "nombre",
					"type": "string"
				},
				{
					"internalType": "string",
					"name": "descripcion",
					"type": "string"
				},
				{
					"internalType": "uint256",
					"name": "poblacionEstimada",
					"type": "uint256"
				},
				{
					"components": [
						{
							"internalType": "uint256",
							"name": "timestamp",
							"type": "uint256"
						}
					],
					"internalType": "struct ViveroBogota.Timestamp",
					"name": "fechaRegistro",
					"type": "tuple"
				}
			],
			"stateMutability": "view",
			"type": "function"
		},
		{
			"inputs": [
				{
					"internalType": "uint256",
					"name": "",
					"type": "uint256"
				}
			],
			"name": "eventosClimaticos",
			"outputs": [
				{
					"internalType": "uint256",
					"name": "id",
					"type": "uint256"
				},
				{
					"internalType": "string",
					"name": "tipo",
					"type": "string"
				},
				{
					"internalType": "int256",
					"name": "temperatura",
					"type": "int256"
				},
				{
					"internalType": "uint256",
					"name": "precipitacion",
					"type": "uint256"
				},
				{
					"components": [
						{
							"internalType": "uint256",
							"name": "timestamp",
							"type": "uint256"
						}
					],
					"internalType": "struct ViveroBogota.Timestamp",
					"name": "fechaRegistro",
					"type": "tuple"
				}
			],
			"stateMutability": "view",
			"type": "function"
		},
		{
			"inputs": [
				{
					"internalType": "uint256",
					"name": "",
					"type": "uint256"
				},
				{
					"internalType": "uint256",
					"name": "",
					"type": "uint256"
				}
			],
			"name": "historialCrecimiento",
			"outputs": [
				{
					"internalType": "uint256",
					"name": "plantaId",
					"type": "uint256"
				},
				{
					"internalType": "string",
					"name": "estado",
					"type": "string"
				},
				{
					"components": [
						{
							"internalType": "uint256",
							"name": "timestamp",
							"type": "uint256"
						}
					],
					"internalType": "struct ViveroBogota.Timestamp",
					"name": "fechaActualizacion",
					"type": "tuple"
				}
			],
			"stateMutability": "view",
			"type": "function"
		},
		{
			"inputs": [],
			"name": "obtenerEstadisticas",
			"outputs": [
				{
					"internalType": "uint256",
					"name": "",
					"type": "uint256"
				},
				{
					"internalType": "uint256",
					"name": "",
					"type": "uint256"
				},
				{
					"internalType": "uint256",
					"name": "",
					"type": "uint256"
				}
			],
			"stateMutability": "view",
			"type": "function"
		},
		{
			"inputs": [],
			"name": "obtenerEstadisticasDetalladas",
			"outputs": [
				{
					"internalType": "uint256",
					"name": "totalSemillas",
					"type": "uint256"
				},
				{
					"internalType": "uint256",
					"name": "totalPlantas",
					"type": "uint256"
				},
				{
					"internalType": "uint256",
					"name": "semillasPorMes",
					"type": "uint256"
				},
				{
					"internalType": "uint256",
					"name": "plantasPorMes",
					"type": "uint256"
				}
			],
			"stateMutability": "view",
			"type": "function"
		},
		{
			"inputs": [],
			"name": "obtenerEstadisticasParamo",
			"outputs": [
				{
					"internalType": "uint256",
					"name": "_totalSemillas",
					"type": "uint256"
				},
				{
					"internalType": "uint256",
					"name": "_totalPlantas",
					"type": "uint256"
				},
				{
					"internalType": "uint256",
					"name": "_totalEspeciesNativas",
					"type": "uint256"
				},
				{
					"internalType": "uint256",
					"name": "_totalEventosClimaticos",
					"type": "uint256"
				}
			],
			"stateMutability": "view",
			"type": "function"
		},
		{
			"inputs": [],
			"name": "obtenerEventos",
			"outputs": [
				{
					"internalType": "string[]",
					"name": "",
					"type": "string[]"
				}
			],
			"stateMutability": "view",
			"type": "function"
		},
		{
			"inputs": [
				{
					"internalType": "uint256",
					"name": "_idSemilla",
					"type": "uint256"
				}
			],
			"name": "obtenerHistorialDeCambios",
			"outputs": [
				{
					"components": [
						{
							"internalType": "uint256",
							"name": "plantaId",
							"type": "uint256"
						},
						{
							"internalType": "string",
							"name": "estado",
							"type": "string"
						},
						{
							"components": [
								{
									"internalType": "uint256",
									"name": "timestamp",
									"type": "uint256"
								}
							],
							"internalType": "struct ViveroBogota.Timestamp",
							"name": "fechaActualizacion",
							"type": "tuple"
						}
					],
					"internalType": "struct ViveroBogota.HistorialCrecimiento[]",
					"name": "",
					"type": "tuple[]"
				}
			],
			"stateMutability": "view",
			"type": "function"
		},
		{
			"inputs": [
				{
					"internalType": "uint256",
					"name": "_idSemilla",
					"type": "uint256"
				}
			],
			"name": "obtenerSemilla",
			"outputs": [
				{
					"components": [
						{
							"internalType": "uint256",
							"name": "id",
							"type": "uint256"
						},
						{
							"internalType": "string",
							"name": "tipo",
							"type": "string"
						},
						{
							"components": [
								{
									"internalType": "int256",
									"name": "latitud",
									"type": "int256"
								},
								{
									"internalType": "int256",
									"name": "longitud",
									"type": "int256"
								}
							],
							"internalType": "struct ViveroBogota.UbicacionGPS",
							"name": "ubicacionInicial",
							"type": "tuple"
						},
						{
							"internalType": "string",
							"name": "responsable",
							"type": "string"
						},
						{
							"components": [
								{
									"internalType": "int256",
									"name": "temperatura",
									"type": "int256"
								},
								{
									"internalType": "uint256",
									"name": "humedadRelativa",
									"type": "uint256"
								},
								{
									"internalType": "uint256",
									"name": "precipitacion",
									"type": "uint256"
								},
								{
									"internalType": "uint256",
									"name": "horasLuzSolar",
									"type": "uint256"
								},
								{
									"internalType": "uint256",
									"name": "altitud",
									"type": "uint256"
								},
								{
									"components": [
										{
											"internalType": "uint256",
											"name": "timestamp",
											"type": "uint256"
										}
									],
									"internalType": "struct ViveroBogota.Timestamp",
									"name": "fechaRegistro",
									"type": "tuple"
								}
							],
							"internalType": "struct ViveroBogota.CondicionesClimaticas",
							"name": "condicionesClimaticas",
							"type": "tuple"
						},
						{
							"internalType": "string",
							"name": "comentariosDeCuidado",
							"type": "string"
						},
						{
							"components": [
								{
									"internalType": "uint256",
									"name": "timestamp",
									"type": "uint256"
								}
							],
							"internalType": "struct ViveroBogota.Timestamp",
							"name": "fechaRegistro",
							"type": "tuple"
						}
					],
					"internalType": "struct ViveroBogota.Semilla",
					"name": "",
					"type": "tuple"
				}
			],
			"stateMutability": "view",
			"type": "function"
		},
		{
			"inputs": [],
			"name": "obtenerTodasLasSemillas",
			"outputs": [
				{
					"components": [
						{
							"internalType": "uint256",
							"name": "id",
							"type": "uint256"
						},
						{
							"internalType": "string",
							"name": "tipo",
							"type": "string"
						},
						{
							"components": [
								{
									"internalType": "int256",
									"name": "latitud",
									"type": "int256"
								},
								{
									"internalType": "int256",
									"name": "longitud",
									"type": "int256"
								}
							],
							"internalType": "struct ViveroBogota.UbicacionGPS",
							"name": "ubicacionInicial",
							"type": "tuple"
						},
						{
							"internalType": "string",
							"name": "responsable",
							"type": "string"
						},
						{
							"components": [
								{
									"internalType": "int256",
									"name": "temperatura",
									"type": "int256"
								},
								{
									"internalType": "uint256",
									"name": "humedadRelativa",
									"type": "uint256"
								},
								{
									"internalType": "uint256",
									"name": "precipitacion",
									"type": "uint256"
								},
								{
									"internalType": "uint256",
									"name": "horasLuzSolar",
									"type": "uint256"
								},
								{
									"internalType": "uint256",
									"name": "altitud",
									"type": "uint256"
								},
								{
									"components": [
										{
											"internalType": "uint256",
											"name": "timestamp",
											"type": "uint256"
										}
									],
									"internalType": "struct ViveroBogota.Timestamp",
									"name": "fechaRegistro",
									"type": "tuple"
								}
							],
							"internalType": "struct ViveroBogota.CondicionesClimaticas",
							"name": "condicionesClimaticas",
							"type": "tuple"
						},
						{
							"internalType": "string",
							"name": "comentariosDeCuidado",
							"type": "string"
						},
						{
							"components": [
								{
									"internalType": "uint256",
									"name": "timestamp",
									"type": "uint256"
								}
							],
							"internalType": "struct ViveroBogota.Timestamp",
							"name": "fechaRegistro",
							"type": "tuple"
						}
					],
					"internalType": "struct ViveroBogota.Semilla[]",
					"name": "",
					"type": "tuple[]"
				}
			],
			"stateMutability": "view",
			"type": "function"
		},
		{
			"inputs": [
				{
					"internalType": "uint256",
					"name": "_idPlanta",
					"type": "uint256"
				}
			],
			"name": "obtenerUltimoHistorial",
			"outputs": [
				{
					"components": [
						{
							"internalType": "uint256",
							"name": "plantaId",
							"type": "uint256"
						},
						{
							"internalType": "string",
							"name": "estado",
							"type": "string"
						},
						{
							"components": [
								{
									"internalType": "uint256",
									"name": "timestamp",
									"type": "uint256"
								}
							],
							"internalType": "struct ViveroBogota.Timestamp",
							"name": "fechaActualizacion",
							"type": "tuple"
						}
					],
					"internalType": "struct ViveroBogota.HistorialCrecimiento",
					"name": "",
					"type": "tuple"
				}
			],
			"stateMutability": "view",
			"type": "function"
		},
		{
			"inputs": [],
			"name": "owner",
			"outputs": [
				{
					"internalType": "address",
					"name": "",
					"type": "address"
				}
			],
			"stateMutability": "view",
			"type": "function"
		},
		{
			"inputs": [],
			"name": "pausar",
			"outputs": [],
			"stateMutability": "nonpayable",
			"type": "function"
		},
		{
			"inputs": [],
			"name": "paused",
			"outputs": [
				{
					"internalType": "bool",
					"name": "",
					"type": "bool"
				}
			],
			"stateMutability": "view",
			"type": "function"
		},
		{
			"inputs": [
				{
					"internalType": "uint256",
					"name": "",
					"type": "uint256"
				}
			],
			"name": "plantas",
			"outputs": [
				{
					"internalType": "uint256",
					"name": "id",
					"type": "uint256"
				},
				{
					"internalType": "uint256",
					"name": "idSemilla",
					"type": "uint256"
				},
				{
					"internalType": "string",
					"name": "estado",
					"type": "string"
				},
				{
					"components": [
						{
							"internalType": "int256",
							"name": "latitud",
							"type": "int256"
						},
						{
							"internalType": "int256",
							"name": "longitud",
							"type": "int256"
						}
					],
					"internalType": "struct ViveroBogota.UbicacionGPS",
					"name": "ubicacionEnParamo",
					"type": "tuple"
				},
				{
					"internalType": "string",
					"name": "responsableTraslado",
					"type": "string"
				},
				{
					"internalType": "string",
					"name": "comentariosDeCuidado",
					"type": "string"
				},
				{
					"components": [
						{
							"internalType": "uint256",
							"name": "timestamp",
							"type": "uint256"
						}
					],
					"internalType": "struct ViveroBogota.Timestamp",
					"name": "fechaTraslado",
					"type": "tuple"
				}
			],
			"stateMutability": "view",
			"type": "function"
		},
		{
			"inputs": [
				{
					"internalType": "string",
					"name": "_nombre",
					"type": "string"
				},
				{
					"internalType": "string",
					"name": "_descripcion",
					"type": "string"
				},
				{
					"internalType": "uint256",
					"name": "_poblacionEstimada",
					"type": "uint256"
				}
			],
			"name": "registrarEspecieNativa",
			"outputs": [],
			"stateMutability": "nonpayable",
			"type": "function"
		},
		{
			"inputs": [
				{
					"internalType": "string",
					"name": "_tipo",
					"type": "string"
				},
				{
					"internalType": "int256",
					"name": "_temperatura",
					"type": "int256"
				},
				{
					"internalType": "uint256",
					"name": "_precipitacion",
					"type": "uint256"
				}
			],
			"name": "registrarEventoClimatico",
			"outputs": [],
			"stateMutability": "nonpayable",
			"type": "function"
		},
		{
			"inputs": [
				{
					"internalType": "string",
					"name": "_tipo",
					"type": "string"
				},
				{
					"components": [
						{
							"internalType": "int256",
							"name": "latitud",
							"type": "int256"
						},
						{
							"internalType": "int256",
							"name": "longitud",
							"type": "int256"
						}
					],
					"internalType": "struct ViveroBogota.UbicacionGPS",
					"name": "_ubicacionInicial",
					"type": "tuple"
				},
				{
					"internalType": "string",
					"name": "_responsable",
					"type": "string"
				},
				{
					"internalType": "int256",
					"name": "_temperatura",
					"type": "int256"
				},
				{
					"internalType": "uint256",
					"name": "_humedadRelativa",
					"type": "uint256"
				},
				{
					"internalType": "uint256",
					"name": "_precipitacion",
					"type": "uint256"
				},
				{
					"internalType": "uint256",
					"name": "_horasLuzSolar",
					"type": "uint256"
				},
				{
					"internalType": "uint256",
					"name": "_altitud",
					"type": "uint256"
				},
				{
					"internalType": "string",
					"name": "_comentariosDeCuidado",
					"type": "string"
				}
			],
			"name": "registrarSemilla",
			"outputs": [],
			"stateMutability": "nonpayable",
			"type": "function"
		},
		{
			"inputs": [
				{
					"internalType": "uint256",
					"name": "_idSemilla",
					"type": "uint256"
				},
				{
					"components": [
						{
							"internalType": "int256",
							"name": "latitud",
							"type": "int256"
						},
						{
							"internalType": "int256",
							"name": "longitud",
							"type": "int256"
						}
					],
					"internalType": "struct ViveroBogota.UbicacionGPS",
					"name": "_ubicacionEnParamo",
					"type": "tuple"
				},
				{
					"internalType": "string",
					"name": "_responsableTraslado",
					"type": "string"
				},
				{
					"internalType": "string",
					"name": "_comentariosDeCuidado",
					"type": "string"
				}
			],
			"name": "registroTrasladoPlanta",
			"outputs": [],
			"stateMutability": "nonpayable",
			"type": "function"
		},
		{
			"inputs": [
				{
					"internalType": "address",
					"name": "_admin",
					"type": "address"
				}
			],
			"name": "removerAdministrador",
			"outputs": [],
			"stateMutability": "nonpayable",
			"type": "function"
		},
		{
			"inputs": [
				{
					"internalType": "uint256",
					"name": "",
					"type": "uint256"
				}
			],
			"name": "semillas",
			"outputs": [
				{
					"internalType": "uint256",
					"name": "id",
					"type": "uint256"
				},
				{
					"internalType": "string",
					"name": "tipo",
					"type": "string"
				},
				{
					"components": [
						{
							"internalType": "int256",
							"name": "latitud",
							"type": "int256"
						},
						{
							"internalType": "int256",
							"name": "longitud",
							"type": "int256"
						}
					],
					"internalType": "struct ViveroBogota.UbicacionGPS",
					"name": "ubicacionInicial",
					"type": "tuple"
				},
				{
					"internalType": "string",
					"name": "responsable",
					"type": "string"
				},
				{
					"components": [
						{
							"internalType": "int256",
							"name": "temperatura",
							"type": "int256"
						},
						{
							"internalType": "uint256",
							"name": "humedadRelativa",
							"type": "uint256"
						},
						{
							"internalType": "uint256",
							"name": "precipitacion",
							"type": "uint256"
						},
						{
							"internalType": "uint256",
							"name": "horasLuzSolar",
							"type": "uint256"
						},
						{
							"internalType": "uint256",
							"name": "altitud",
							"type": "uint256"
						},
						{
							"components": [
								{
									"internalType": "uint256",
									"name": "timestamp",
									"type": "uint256"
								}
							],
							"internalType": "struct ViveroBogota.Timestamp",
							"name": "fechaRegistro",
							"type": "tuple"
						}
					],
					"internalType": "struct ViveroBogota.CondicionesClimaticas",
					"name": "condicionesClimaticas",
					"type": "tuple"
				},
				{
					"internalType": "string",
					"name": "comentariosDeCuidado",
					"type": "string"
				},
				{
					"components": [
						{
							"internalType": "uint256",
							"name": "timestamp",
							"type": "uint256"
						}
					],
					"internalType": "struct ViveroBogota.Timestamp",
					"name": "fechaRegistro",
					"type": "tuple"
				}
			],
			"stateMutability": "view",
			"type": "function"
		},
		{
			"inputs": [],
			"name": "totalEspeciesNativas",
			"outputs": [
				{
					"internalType": "uint256",
					"name": "",
					"type": "uint256"
				}
			],
			"stateMutability": "view",
			"type": "function"
		},
		{
			"inputs": [],
			"name": "totalEventosClimaticos",
			"outputs": [
				{
					"internalType": "uint256",
					"name": "",
					"type": "uint256"
				}
			],
			"stateMutability": "view",
			"type": "function"
		},
		{
			"inputs": [],
			"name": "totalPlantasRegistradas",
			"outputs": [
				{
					"internalType": "uint256",
					"name": "",
					"type": "uint256"
				}
			],
			"stateMutability": "view",
			"type": "function"
		},
		{
			"inputs": [],
			"name": "totalSemillasRegistradas",
			"outputs": [
				{
					"internalType": "uint256",
					"name": "",
					"type": "uint256"
				}
			],
			"stateMutability": "view",
			"type": "function"
		},
		{
			"inputs": [
				{
					"internalType": "address",
					"name": "nuevoDueno",
					"type": "address"
				}
			],
			"name": "transferirPropiedad",
			"outputs": [],
			"stateMutability": "nonpayable",
			"type": "function"
		},
		{
			"inputs": [
				{
					"internalType": "uint256",
					"name": "_idPlanta",
					"type": "uint256"
				}
			],
			"name": "trasladoPlanta",
			"outputs": [
				{
					"components": [
						{
							"internalType": "uint256",
							"name": "id",
							"type": "uint256"
						},
						{
							"internalType": "uint256",
							"name": "idSemilla",
							"type": "uint256"
						},
						{
							"internalType": "string",
							"name": "estado",
							"type": "string"
						},
						{
							"components": [
								{
									"internalType": "int256",
									"name": "latitud",
									"type": "int256"
								},
								{
									"internalType": "int256",
									"name": "longitud",
									"type": "int256"
								}
							],
							"internalType": "struct ViveroBogota.UbicacionGPS",
							"name": "ubicacionEnParamo",
							"type": "tuple"
						},
						{
							"internalType": "string",
							"name": "responsableTraslado",
							"type": "string"
						},
						{
							"internalType": "string",
							"name": "comentariosDeCuidado",
							"type": "string"
						},
						{
							"components": [
								{
									"internalType": "uint256",
									"name": "timestamp",
									"type": "uint256"
								}
							],
							"internalType": "struct ViveroBogota.Timestamp",
							"name": "fechaTraslado",
							"type": "tuple"
						}
					],
					"internalType": "struct ViveroBogota.Planta",
					"name": "",
					"type": "tuple"
				}
			],
			"stateMutability": "view",
			"type": "function"
		},
		{
			"inputs": [
				{
					"internalType": "uint256",
					"name": "_idSemilla",
					"type": "uint256"
				}
			],
			"name": "verificarCondicionesClimaticas",
			"outputs": [],
			"stateMutability": "nonpayable",
			"type": "function"
		}
	]
}